:100000000010002031090000290900002909000022
:10001000F8B51148114A1AE055689368D4689D42B2
:1000200009D0002104E06E1877683668C0C3083133
:10003000A142F8D100E01B191469002103E000255A
:10004000002660C30831A142F9D1143201380028DA
:10005000E2D101F0E5FDC04601000000201D0000D6
:1000600080B584B000AF021CFB1D1A70224A3B1CF5
:100070000E3312781A70214A3B1C0F3312781A7013
:100080001F4B1B68013BBB601AE01E4B1868BA6827
:10009000391C0E31131C5B009B181B1801331B7895
:1000A0000B70184B1868BA68391C0F31131C5B00B1
:1000B0009B181B1802331B780B70BB68013BBB609D
:1000C000BB68002B0ADB0F4B1968BA68131C5B0076
:1000D0009B185B5CFA1D12789A42D6D90A4B3A1CDF
:1000E0000E3212781A60094B3A1C0F3212781A60DD
:1000F000BD4604B080BDC046CCF1FF0FCDF1FF0F6F
:10010000F81C0000E00000201CFF0B4020FF0B400B
:1001100080B500AF1A4A1A4B19688023DB020B43E3
:1001200013603020FFF79CFF164B174A1278D2B2AB
:100130001A60052000F0A4FD144B35221A60144B00
:1001400010221A60134B10221A60134B20221A60DF
:10015000124B20221A60124A80231B061360114A98
:1001600080231B061360064A8023DB0213600E4BBC
:100170000E4A1A600E4B0F4A1A60BD4680BDC0463B
:1001800000010B4028FF0B40FDF1FF0F2CFF0B403F
:10019000080202400C0202402002024024020240F7
:1001A00008010B4004010B400000024007000080E2
:1001B000400002401F03008080B582B000AF72B6DD
:1001C000FB1C00221A7024E0FB1C1A78131C5B0035
:1001D0009B185B001A1C3A4BD3187B607B681A781B
:1001E000597809020A43997809040A43DB781B0607
:1001F00013431A1C7B6819795B791B020B439BB272
:10020000101C191C01F07CF9FB1CFA1C127801323D
:100210001A70FB1C1B78012BD6D92A4A2A4B101CBA
:10022000191C01F07DF9294B03221A60284B294A39
:100230001A60294B294A1A60294B09221A60294B56
:10024000294A1A60294B90221A60294B294A1A60C0
:10025000294B03221A60294B294A1A60294A9923FB
:100260001B041360284AC0239B021360274A99236A
:100270001B041360264A80231B061360254A99231A
:100280001B041360244B10221A60244B10221A60A6
:10029000234B234A1278D1B202220A43D2B21A70F7
:1002A0001F4B1F4A1278D1B206220A43D2B21A70EB
:1002B000FFF72EFF01F074F9BD4602B080BDC046C5
:1002C000A81C0000B41C0000D01C00000400014069
:1002D00008000140000008300C000140EEEE000074
:1002E0000001044008010440060C00000002044024
:1002F000080204400060C0000003044008030440FA
:10030000A40D000010500F4018500F4020500F4017
:1003100028500F4030500F4020010540600105403B
:1003200000700F4000B5034B1A78002A01D101205C
:10033000187000BDE800002008B504480368002BD1
:1003400003D0034B002B00D0984708BDC800002005
:100350000000000080B500AF002001F0ABF8642081
:1003600000F06AFC012001F0A5F8642000F064FCB4
:1003700000F05AFB00F0F6FB0A4B1B88181C00F03B
:1003800073FB094B1B88181C00F00CFC00F0A0FC50
:1003900000F006F9FA239B00181C00F04DFCBD4646
:1003A00080BDC046CC000020CE00002090B583B0B8
:1003B00000AF0A1CBB1D011C19803B1D1A80BB1D10
:1003C0001A88334B9A4213D8324B1A88BB1D1988AE
:1003D00080239B005B1AD9175B184B40002B00DA77
:1003E0007F33DB119BB2D31A9AB22A4B1A8011E0E9
:1003F000BB1D1B88284A9B18D9175B184B40002B44
:1004000000DA7F33DB119AB2224B1B88D3189AB2E1
:10041000204B1A801F4B1B88181C00F0C3FB3B1D90
:100420001A881E4B9A4214D83B1D1A88C0235B00C1
:100430009B1ADA179B185340181C602101F048FBE7
:10044000031C9AB2164B1B88D3189AB2144B1A800D
:1004500012E0134B1C883B1D1B88813BFF3BD917C7
:100460005B184B40181C602101F032FB031C9BB24F
:10047000E31A9AB20A4B1A80094B1B88181C00F029
:10048000F3FA0D2000F0D8FBBD4603B090BDC04686
:10049000FF010000CE00002000FEFFFF7F010000F2
:1004A000CC00002080B582B000AF3B1C00221A8037
:1004B000FB1C00221A703B1D00221A80BB1D00226B
:1004C0001A8062B6FFF746FF00E0C04600F0C2F8AF
:1004D000031C1A1CFB1C1A70FB1C1A780123134006
:1004E000DBB2002BF1D0084B1A683B1D1A80064B7B
:1004F0005A68BB1D1A803B1D1A88BB1D1B88101C27
:10050000191CFFF753FFE1E73401002080B584B0E8
:1005100000AF0A1CFB1D011C1970BB1D1A700023C3
:10052000FB601E4B1B78181C002100F0EFFC031C25
:10053000FB60FB68002B27D1012000F07DFBFB1D39
:100540001B78181C00F0FAFD031CFB60FB68002BF5
:100550001CD1012000F070FBBB1D1B78181C00F0A3
:10056000EDFD031CFB60FB68002B11D1012000F0A6
:1005700063FB00F071FD031CFB60FB68002B09D1DD
:10058000012000F059FB06E0C04604E0C04602E04E
:10059000C04600E0C046BD4604B080BD4401002016
:1005A00080B500AF254B01221A73254B02221A7326
:1005B000244B03221A73244B04221A73234A502318
:1005C0005B421370214B1B785B08DAB2204B1A7028
:1005D000022000F057FF022000F03EFF30200121F2
:1005E000FFF794FF0A2000F027FB30200821FFF7D7
:1005F0008DFF0A2000F020FB06209021FFF786FFE8
:100600000A2000F019FB0820C021FFF77FFF0A2015
:1006100000F012FB1A204021FFF778FF0A2000F0BB
:100620000BFB33203321FFF771FF0A2000F004FB9E
:10063000642000F001FBBD4680BDC04634010020AF
:1006400020010020480100200C01002008010020AA
:100650004401002090B587B000AF00237B613B1DB3
:1006600000221A60043300221A60043300221A6048
:10067000043300221A60043300F0FCFDA14B1B7808
:10068000181C002100F042FC031C7B617B69002BDD
:1006900001D0002331E1362000F050FD031C7B61C6
:1006A0007B69002B01D0002327E100F0D5FC031C5F
:1006B0007B617B69002B01D000231EE10A2000F042
:1006C000DFFA904B1B781A1C3B1D101C191C1022C2
:1006D000002300F07FFB031C7B617B69002B01D0B2
:1006E00000230AE100F0AAFD031C012BFAD1864B7E
:1006F00000221A6011E0844B1B68844A0021D15407
:10070000814B1A68804B1B68391DC95C7F4B99541B
:100710007D4B1B685A1C7C4B1A607B4B1B680F2B54
:10072000E9DD7B4B00221A70784B5B781A1C794B01
:100730001A60764B9B781A1C764B5A60734BDB78A9
:100740001A1C754B1A60734B1A68734B1968302367
:100750000B401B01D2186F4B1A606E4B5A686E4BE0
:100760001968C0230B409B00D2186A4B5A606A4B31
:100770001A680F231A40674B9A60664B9B680E22DB
:10078000D80FD117041C9A424C41221C604B1B7895
:100790001343DBB2DAB25E4B1A705C4B1B791A1C46
:1007A0005E4B1A60594B5B791A1C5C4B5A60574B75
:1007B0009B791A1C584B1A60584B1A68564B19688B
:1007C00030230B401B01D218544B1A60534B5A680C
:1007D000514B1968C0230B409B00D2184F4B5A60F5
:1007E0004D4B1A680F231A404C4B9A604B4B9B6839
:1007F0000E2B01DC022300E00023454A1278111C75
:100800001A1C0B1C1343DBB2DAB2414B1A703F4B7C
:10081000DB791A1C424B1A603C4B1B7A1A1C404B6A
:100820005A603A4B5B7A1A1C3B4B1A603C4B1A6875
:10083000394B196830230B401B01D218384B1A6012
:10084000374B5A68344B1968C0230B409B00D218B1
:10085000334B5A60304B1A680F231A40304B9A6062
:100860002F4B9B680E2B01DC042300E00023284A59
:100870001278111C1A1C0B1C1343DBB2DAB2244B86
:100880001A70224B9B7A1A1C264B1A601F4BDB7A7C
:100890001A1C244B5A601D4B1B7B1A1C1E4B1A60E2
:1008A000204B1A681C4B196830230B401B01D218CF
:1008B0001C4B1A601B4B5A68174B1968C0230B401E
:1008C0009B00D218174B5A60134B1A680F231A401B
:1008D000144B9A60134B9B680E2B01DC082300E03D
:1008E00000230B4A1278111C1A1C0B1C1343DBB299
:1008F000DAB2074B1A70064B1B78181CBD4607B0BE
:1009000090BDC046440100201C010020F8000020DA
:10091000F4000020340100203001002020010020DC
:10092000480100200C01002080B500AFFEE7C04662
:10093000014B9D46014B184700100020110000009C
:1009400080B582B000AF00237B600FE079687B68E0
:10095000032B04D87A680D4B9200D35800E00C4B5F
:100960000C4A89008B507B6801337B607B682F2B9E
:10097000ECD9FFF721FC084B00221A608023DB052D
:1009800001221A60BD4602B080BDC04600000000D2
:100990002909000000000020C000002080B500AF41
:1009A0000F4A8023DB0413600D4B0D4A12681A6056
:1009B0000B4B0B4A12681A600A4B0C221A6001207A
:1009C00000F07EF896239B00181C00F03FF80020F2
:1009D00000F04AF8044B31221A60BD4680BDC04683
:1009E00000010540240105402801054080B582B082
:1009F00000AF00F01AF9031C1A1CFB1D1A70094BFA
:100A0000084A116801220A431A60FB1D1B78181C52
:100A100000F00FF90120182100F034F8BD4602B0B3
:100A200080BDC0460000054080B500AF064B1B7876
:100A3000002B04D1FFF7B2FF034B01221A70FFF71E
:100A4000D5FFBD4680BDC046E900002080B582B01C
:100A500000AF7860034B7A681204120C1A60BD462E
:100A600002B080BD1401054080B582B000AF78604F
:100A7000034B7A681204120C1A60BD4602B080BDA6
:100A80000C01054080B584B000AF7860396000F09B
:100A9000CCF8031C1A1C3B1C0F331A70074B3A6826
:100AA0007968081C9040021C1A603B1C0F331B78AD
:100AB000181C00F0BEF8BD4604B080BD080005401B
:100AC00080B582B000AF7860024B7A681A60BD468C
:100AD00002B080BD3801054080B500AF0F4A8023C9
:100AE000DB0413600D4B0D4A12681A600B4B0B4A66
:100AF00012681A600A4B0C221A60012000F07EF87E
:100B000096239B00181C00F03FF8002000F04AF8E4
:100B1000044B31221A60BD4680BDC04640010540ED
:100B2000640105406801054080B582B000AF00F067
:100B30007CF8031C1A1CFB1D1A70094B084A11682B
:100B400002220A431A60FB1D1B78181C00F071F882
:100B50000220182100F034F8BD4602B080BDC04626
:100B60000000054080B500AF064B1B78002B04D178
:100B7000FFF7B2FF034B01221A70FFF7D5FFBD4606
:100B800080BDC046EA00002080B582B000AF78602A
:100B9000034B7A681204120C1A60BD4602B080BD85
:100BA0005401054080B582B000AF7860034B7A688D
:100BB0001204120C1A60BD4602B080BD4C01054003
:100BC00080B584B000AF7860396000F02EF8031C67
:100BD0001A1C3B1C0F331A70074B3A687968081CC3
:100BE0009040021C1A603B1C0F331B78181C00F04D
:100BF00020F8BD4604B080BD0800054080B582B035
:100C000000AF7860024B7A681A60BD4602B080BDC2
:100C100078010540000000000230800804D0C04682
:100C20000138FDD1C046C0467047EFF3108072B660
:100C3000704780F31088704780B582B000AF78604D
:100C400008E00C4B1B68181CFFF7E6FF7B680A4A9C
:100C50009B187B607A6880231B029A42F1D8074B6D
:100C60001B687A685343181CFFF7D6FFBD4602B0D5
:100C700080BDC046DC0000200080FFFFD4000020C3
:100C800080B582B000AF021CBB1D1A80BB1D1B8843
:100C9000044A12785343181CFFF7BEFFBD4602B04A
:100CA00080BDC046D800002080B500AF00F022F81B
:100CB000BD4680BD80B500AF044A044B196880234F
:100CC0001B060B431360BD4680BDC04600000740B5
:100CD00080B500AF064B1B78002B04D1044B0122DA
:100CE0001A70FFF7E1FFFFF7E5FFBD4680BDC04684
:100CF000EC00002080B500AF1F4B00221A601F4B94
:100D00001F4A1A601F4B1F4A11680C220A431A60BF
:100D10001D4B1E4A1A601E4B00221A601D4B0022FA
:100D20001A601D4B1D4A1A601D4B00221A601D4B94
:100D300000221A601C4B00221A601C4B00221A6011
:100D40001B4B1C4A1A601C4B00221A601B4B0022D2
:100D50001A601B4B181C00F001FB1A4B10221A7072
:100D6000194B00221A80194B00221A60184B0022DE
:100D70001A60BD4680BDC0460000074060000740C5
:100D800077080080700007400003074007030080D9
:100D900004030740100307400002074007010080DA
:100DA00004020740880E0740C80E0740480F07405E
:100DB000080F074013010000C80F0740880F0740C5
:100DC000A9150000580100206801002064010020DE
:100DD0006C01002080B586B000AFF860B9607A6021
:100DE0003B6004237B61BB68002B21D0384B1B7810
:100DF000DBB2102B0ED100F001FB364B1B681A1C26
:100E000001231340DBB2002B01D0082300E00023B4
:100E10007B610DE02E4B1B78DBB2602B08D12E4B93
:100E20001B889BB22D4A13402B4A138000237B6101
:100E30007B69002B44D1264B29221A70284B0022B3
:100E40001A60284B7A681A60BA68274B1A603B68A8
:100E5000DAB2264B1A70FB685A00FF231A400123AE
:100E60001343FB601C4B1B889BB2214A13401A4A58
:100E70001380204B204A1A603A6801231340DBB2EA
:100E8000002B05D000F008FA1C4BFA681A6005E048
:100E90001A4BFA681A601A4B02221A60114B1B682F
:100EA000072B03D8174B04221A6009E0164A164B89
:100EB000196880235B000B431360124B08221A60F1
:100EC00000F092FA7B69181CBD4606B080BDC04692
:100ED000580100206400074068010020F7FF00006F
:100EE00064010020780100205C01002070010020D6
:100EF000FEFF0000000F07401703000040020740FC
:100F000068000740C80F07406000074080B584B004
:100F100000AF786039600423BB603B1C0F330022B4
:100F20001A70454B1B78DBB2102B00D07EE0434B90
:100F30001B681A1C01231340DBB2002B02D00823CC
:100F4000BB6073E000F05AFA7B685A00FF2313403D
:100F50007B603B68002B03D1374B24221A7006E0DC
:100F6000354B25221A707A68012313437B60344B7A
:100F70007A681A60334B344A1A60344B02221A6082
:100F8000304B1A68324B1340002BF9D02D4B1A68A6
:100F900004231340002B02D00023BB6024E0294B24
:100FA0001A6802231340002B02D00223BB601BE00F
:100FB000244B1B681A1C01231340DBB2002B09D001
:100FC0001D4B10221A700123BB603B1C0F33012202
:100FD0001A7009E0184B10221A7080235B00BB6066
:100FE0003B1C0F3301221A70164B194A1A603B1C26
:100FF0000F331B78002B19D0FFF717FE031C1A1CA8
:101000003B1C0F331A70134B124A126852005208DD
:101010001A60104A0F4B196880231B060B4313609C
:101020003B1C0F331B78181CFFF703FEBB68181C12
:10103000BD4604B080BDC046580100206400074092
:1010400040020740000F07401703000068000740F8
:10105000070100000000074080B582B000AF042304
:101060003B60FB1D00221A702E4B1B78DBB21A1C52
:1010700020231340002B4FD02B4B2C4A11682022E9
:101080000A40002A01D0182200E010221A60284BE2
:101090001A68284B1340002BF9D0254B1A681023EF
:1010A0001340002B02D000233B6013E0204B1B6851
:1010B0001A1C01231340DBB2002B05D001233B6037
:1010C000FB1D01221A7005E080235B003B60FB1DC5
:1010D00001221A70164B174A1A60FB1D1B78002B51
:1010E00017D0FFF7A2FD031C1A1CFB1D1A70124B30
:1010F000114A1268520052081A600F4A0E4B1968C2
:1011000080231B060B431360FB1D1B78181CFFF785
:1011100090FD044B10221A703B68181CBD4602B0AB
:1011200080BDC046580100206800074064000740A9
:10113000000F0740110100000000074080B584B097
:1011400000AF78600423BB603B1C0F3300221A7091
:10115000354B1B78DBB21A1C20231340002B5ED0CA
:10116000324B7A681A60324B1A68324B1340002BAC
:10117000F9D02F4B1A6804231340002B05D02A4BBB
:1011800060221A700023BB6027E0294B1A680223F3
:101190001340002B05D0244B60221A700223BB6041
:1011A0001BE0234B1B681A1C01231340DBB2002BEE
:1011B00009D01D4B10221A700123BB603B1C0F335A
:1011C00001221A7009E0184B10221A7080235B006C
:1011D000BB603B1C0F3301221A70154B154A1A6075
:1011E0003B1C0F331B78002B19D0FFF71EFD031C8F
:1011F0001A1C3B1C0F331A700F4B0F4A1268520017
:1012000052081A600C4A0C4B196880231B060B43CA
:1012100013603B1C0F331B78181CFFF70AFDBB68DB
:10122000181CBD4604B080BD580100204002074094
:10123000000F0740070100000000074080B582B0A2
:1012400000AF0A4B1B889BB27B60094B1B78DBB25B
:101250001A1C20231340002B03D07A680423134365
:101260007B607B68181CBD4602B080BD6801002011
:101270005801002080B582B000AF064B1B889BB29E
:101280007B60044B00221A807B68181CBD4602B0AC
:1012900080BDC0466801002080B500AF2B4B1A68A6
:1012A00020231340002B38D0002000F0B1F8284B49
:1012B000274A12680F218A431A60264B254A126872
:1012C000520052081A60002000F0A2F80320FFF735
:1012D000D7FC012000F09CF80320FFF7D1FC002090
:1012E00000F096F80320FFF7CBFC1A4A194B196857
:1012F00080231B060B431360154B154A12680F2100
:10130000101C8843011C0E220A431A60124B012252
:101310001A60002000F07CF815E0002000F078F85A
:101320000C4B0C4A1268520052081A60094A094BC9
:10133000196880231B060B431360074B01221A60B8
:10134000012000F065F8BD4680BDC046640007403E
:101350000C000140000007406800074080B582B0E3
:1013600000AF786000F04AF87B68181C00F008F8BD
:10137000032000F011F800F037F8BD4602B080BD40
:1013800080B582B000AF7860024B7A68DA66BD46FD
:1013900002B080BD0000002090B585B000AF021CF7
:1013A000FB1D1A701E23FB60FFF73FFC031C1A1C79
:1013B0003B1C0B331A700B4B0A4A126892009108BF
:1013C000FA1D1078FA68041C9440221C0A431A6023
:1013D0003B1C0B331B78181CFFF72BFCBD4605B0DC
:1013E00090BDC04608E400E080B500AF024A80230B
:1013F0001B011360BD4680BD00E100E080B500AF79
:10140000024A80231B011360BD4680BD80E100E0DD
:1014100080B584B000AF021CFB1D1A700D4B1B6819
:10142000DAB23B1C0F3301218A431A70FB1D1B7873
:10143000012213403A1C0F32391C0F3109780B433B
:101440001370044B3A1C0F3212781A60BD4604B078
:1014500080BDC0460003044080B582B000AF021CCE
:10146000FB1D1A70064B064A12680721101C8843A0
:10147000011CFA1D12780A431A60BD4602B080BDF5
:101480000803044080B582B000AF021CFB1D1A7037
:10149000074B074A12683821101C8843011CFA1DAB
:1014A0001278D2000A431A60BD4602B080BDC04621
:1014B0000803044080B584B000AF021CFB1D1A7005
:1014C0000E4B1B68DAB23B1C0F3308218A431A709B
:1014D000FB1D1B78DB00DBB2082213403A1C0F32E5
:1014E000391C0F3109780B431370044B3A1C0F322F
:1014F00012781A60BD4604B080BDC04600010440A9
:1015000080B582B000AF786039607A683B68101CA3
:1015100000211A1C00F03EFBBD4602B080BDC04653
:1015200080B586B000AF786039600023FB6000238F
:10153000BB602EE0BB689A007B68D3181B683B61D8
:101540003B1C17333A691A703B69FF2293433B6196
:1015500017E0FB685A003B68D3181B781A1C3B69DC
:10156000D318FA6851003A688A1852781A70FB68E2
:101570000133FB603B1C17333A1C17321278013AD7
:101580001A703B1C17331B78002BE2D1BB68013368
:10159000BB60BB68062BCDD9BD4606B080BDC0463A
:1015A00080B500AFBD4680BD80B584B000AF0023DC
:1015B000BB60C94B1B68002B02D0C74B1B68984708
:1015C000C64B1B681A1C01231340DBB2002B02D050
:1015D000C34B00221A60C34B1B78DBB21A1C2023BA
:1015E0001340002B41D0C04B1A6880235B0013408E
:1015F000002B0AD0BD4B1B889AB2C0239B0013431B
:101600009AB2BA4B1A800123BB60B74B1B681A1CF5
:1016100001231340DBB2002B0AD0B44B1B889AB2D3
:1016200090239B0013439AB2B04B1A800123BB60F6
:10163000BB68002B19D0AB4B1B78DBB21A1C012303
:101640001340DBB2002B01D0012300E00223A74AA4
:10165000128892B2111C1A1C0B1C13439BB29AB233
:10166000A24B1A809F4B00221A709E4B1B78DBB254
:101670001A1C20231340002B00D1B4E19A4B1A68A6
:1016800010231340002B1DD0994B10221A60954B4C
:101690001B78DBB21A1C01231340DBB2002B01D0F4
:1016A000012300E00223914A128892B2111C1A1CF5
:1016B0000B1C13439BB29AB28C4B1A80894B10229D
:1016C0001A70D5E1874B1B78DBB21A1C0823134034
:1016D000002B27D0844B1A6802231340002B0ED016
:1016E000834B02221A60814B1B889AB288239B008D
:1016F00013439AB27D4B1A800123BB6012E0794BF1
:101700001B78DBB21A1C01231340DBB2002B03D081
:10171000744B25221A7005E0724B24221A70754B07
:1017200010221A606F4B1B78DBB21A1C0423134083
:10173000002B00D118E16B4B1B78DBB21A1C012384
:101740001340DBB2002B5DD06B4B1A6808231340AB
:10175000002B33D0694B1A68694B19680F23194065
:10176000684B1B68CB18D31A7B607B68082B02D9A7
:1017700008237B601EE07B68002B1BD1624B624A12
:101780001168624A0A401A6008237B600123BB602B
:1017900010E05F4B1A685B4B1B68D2185D4B1B68EF
:1017A000DBB21370574B1B685A1C564B1A607B6890
:1017B000013B7B607B68002BEBD11FE04E4B1A682E
:1017C00004231340002B19D0514B1A684D4B1B6852
:1017D000D218504B1B68DBB213704A4B1B685A1C63
:1017E000484B1A60474B1A68444B1B689A4203D215
:1017F000494B04221A6001E00123BB60474B484A71
:101800001A60B1E0384B1A6802231340002B33D022
:10181000374B02221A60434B1A68434B19680F2357
:101820001940414B186880231B020340002B01D054
:10183000012300E00023CB18D21A3A4B1A60394B2F
:101840001A683A4B1A60294B1B889AB284239B0072
:1018500013439AB2254B1A80354A354B19688023B9
:101860005B020B431360324B314A1168314A0A4024
:101870001A600123BB6077E02F4B1A6810231340D6
:10188000002B65D013E0274B1A682C4B1B689A423B
:1018900014D22B4B2B4A1168224A12688A181278EC
:1018A000D2B21A601F4B1B685A1C1E4B1A601E4B8B
:1018B0001A680F231340082BE5D100E0C046194BEE
:1018C0001A681E4B1B689A4202D10A4B40221A60CA
:1018D0001D4B1E4A1A6047E0F00000208C0E0740A6
:1018E000880E0740580100200C0F074068010020B7
:1018F000000F0740880F0740CC0F074078010020F9
:10190000080307406401002060000740FFFEFFFF5E
:101910005C0100204003074068000740C00F0740FB
:10192000ED0F000074010020080207406C01002048
:1019300004020740FFFFFEFF8C0F07407C010020E0
:101940004002074060010020800F0740F3070000BD
:10195000494B1A6840231340002B05D0474B1A68A7
:10196000474B1A600123BB60BB68002B00D17EE0AF
:10197000444B444A1168444A0A401A60434B0022CF
:101980001A60434B00221A60424B1B78DBB21A1CD0
:1019900002231340002B1AD03F4B1B78DBB21A1CDA
:1019A00001231340DBB2002B01D0092300E00A23FE
:1019B0003A4A128892B2111C1A1C0B1C13439BB298
:1019C0009AB2364B1A80344B60221A7050E0344B76
:1019D000344A116820220A40002A01D0182200E06F
:1019E00010221A6044E02C4B1B78DBB21A1C102327
:1019F0001340002B3CD12C4B2C4A1A602C4B2D4A07
:101A00001A60FFF712F9031C1A1C3B1C0F331A70E3
:101A1000294B294A1268520052081A60264A264B5E
:101A2000196880231B060B4313603B1C0F331B7884
:101A3000181CFFF7FEF8134B124A11681F4A0A40A0
:101A40001A60104B0F4A11680F4A0A401A600F4B78
:101A500000221A600E4B00221A60194B194A1A60B4
:101A6000194B1A4A1A600C4B10221A7000E0C0463B
:101A7000BD4604B080BDC0468C0F074074010020F5
:101A80006C01002060000740FFFEFFFFC80F074009
:101A9000880F0740700100205801002068010020D5
:101AA0006800074064000740400F0740FF0F000038
:101AB000000F07401703000000000740FFDFFFFF93
:101AC000800F0740ED0F0000C00F0740F307000034
:101AD000002941D010B4041C4C40A446012300222C
:101AE000002900D54942002800D5404288422CD325
:101AF00001242407A14204D2814202D209011B0120
:101B0000F8E7E400A14204D2814202D249005B001E
:101B1000F8E7884201D3401A1A434C08A04202D386
:101B2000001B5C0822438C08A04202D3001B9C08C7
:101B30002243CC08A04202D3001BDC082243002829
:101B400003D01B0901D00909E3E7101C6446002CEF
:101B500000D5404210BC7047002806D003DB0020AF
:101B6000C043400801E08020000607B4024802A1FB
:101B70004018029003BDC046190000000029EBD0B8
:101B800003B5FFF7A7FF0EBC4243891A1847C046AA
:101B90007047C04630B5C9B2032A08D8002A05D01C
:101BA000031C1218197001339342FBD130BD841805
:101BB000031C032201E0197001331342FBD10A0216
:101BC000521815045219E51A11E01A605A609A6009
:101BD000DA601A615A619A61DA611A625A629A622B
:101BE000DA621A635A639A63DA63403D40333F2DE9
:101BF000EBDCE51A05E01A605A609A60DA60103D85
:101C000010330F2DF7DCE51A01E004C3043D032D6A
:101C1000FBDC01E0197001339C42FBD8C6E7C046EB
:101C200008B500F01DF80A4B002B01D1002000E0A0
:101C30001868084B002B01D1002100E01968002230
:101C4000FEF730FC044B002B01D000E000BFFEE7A4
:101C5000000000000000000000000000FEE700009F
:101C600070B50D4D0D4E761BB610002E05D000241C
:101C700008CD01349847A642FAD800F03FF8084D45
:101C8000084E761BB610002E05D0002408CD013476
:101C90009847A642FAD870BD081D0000081D000034
:081CA000081D0000101D0000EA
:101CA80000300F40000400400F40000404300F4093
:101CB80001310F4002330F4003410F4002420F40F1
:101CC80006430F4002600F403AC058045C095F01A8
:101CD8001801B401E6805D808980D6206102D802AF
:101CE8001C208810B502C604E601EC0802011101A7
:101CF80004000000F8B5C046F8BC08BC9E46704712
:101D08003903000041090000F8B5C046F8BC08BC1A
:101D18009E4670472503000000000000381D0000A3
:101D2800C80000202000000098000000000000000B
:101D38000000000050005000006CDC0280BB000076
:101D4800300000000000C05DC0F1FF0F000000007F
:0400000300000931BF
:00000001FF
