:100000000010002021030000190300001903000064
:10001000F8B51148114A1AE055689368D4689D42B2
:1000200009D0002104E06E1877683668C0C3083133
:10003000A142F8D100E01B191469002103E000255A
:10004000002660C30831A142F9D1143201380028DA
:10005000E2D100F01BFBC046010000006407000075
:1000600080B584B000AF021CFB1D1A70224A3B1CF5
:100070000E3312781A70214A3B1C0F3312781A7013
:100080001F4B1B68013BBB601AE01E4B1868BA6827
:10009000391C0E31131C5B009B181B1801331B7895
:1000A0000B70184B1868BA68391C0F31131C5B00B1
:1000B0009B181B1802331B780B70BB68013BBB609D
:1000C000BB68002B0ADB0F4B1968BA68131C5B0076
:1000D0009B185B5CFA1D12789A42D6D90A4B3A1CDF
:1000E0000E3212781A60094B3A1C0F3212781A60DD
:1000F000BD4604B080BDC046CCF1FF0FCDF1FF0F6F
:100100003C070000DC0000201CFF0B4020FF0B40E0
:1001100080B500AF164A164B19688023DB020B43EB
:1001200013601820FFF79CFF124B19221A6005205C
:1001300000F056FA104B114A1278D2B21A6005201C
:1001400000F048F90A4B0A4A11680D4A0A401A6041
:100150000C4B10221A600C4A80231B0613600B4ABA
:1001600080231B0613600A4B0A4A1A60BD4680BDF5
:1001700000010B402CFF0B4028FF0B40E5F1FF0F67
:10018000FFFFFBFF2002024008010B4004010B406F
:10019000000002400100008080B582B000AF72B65E
:1001A000FB1C00221A7024E0FB1C1A78131C5B0055
:1001B0009B185B001A1C304BD3187B607B681A7845
:1001C000597809020A43997809040A43DB781B0627
:1001D00013431A1C7B6819795B791B020B439BB292
:1001E000101C191C00F0A8F9FB1CFA1C1278013233
:1001F0001A70FB1C1B78012BD6D9204A204B101CEF
:10020000191C00F0A9F91F4AC0239B0413601E4A61
:10021000EE231B0213601D4B40221A601C4AC023B0
:100220005B0313601B4AD8231B0113601A4A9923EE
:100230001B041360194A80239B051360184A9923F5
:100240001B041360174B10221A60174B164A1278C2
:10025000D1B202220A43D2B21A70134B124A127858
:10026000D1B206220A43D2B21A70FFF751FF00F052
:10027000B3F9BD4602B080BD14070000200700009E
:100280002C070000040001400C0001400001044064
:10029000080104400803044010500F4018500F405C
:1002A00030500F402001054000700F4000B5034B57
:1002B0001A78002A01D10120187000BDE00000204A
:1002C00008B504480368002B03D0034B002B00D073
:1002D000984708BDC80000200000000080B582B02B
:1002E00000AF00F0D1F8BB1DBA1D128801321A8090
:1002F000BB1D1A88074B9A4202D9BB1D00221A80E7
:10030000BB1D1B88181C00F0DFF8012000F03EF830
:10031000E9E7C046E703000080B500AFFEE7C0464E
:10032000014B9D46014B18470010002011000000B2
:1003300080B582B000AF00237B600FE079687B68F6
:10034000032B04D87A680D4B9200D35800E00C4B75
:100350000C4A89008B507B6801337B607B682F2BB4
:10036000ECD9FFF719FF084B00221A608023DB0548
:1003700001221A60BD4602B080BDC04600000000E8
:100380001903000000000020C000002080B582B0EA
:1003900000AF786008E00C4B1B68181C00F020F9D7
:1003A0007B680A4A9B187B607A6880231B029A420A
:1003B000F1D8074B1B687A685343181C00F010F9FA
:1003C000BD4602B080BDC046D80000200080FFFFBF
:1003D000D000002080B582B000AF021CBB1D1A8087
:1003E000BB1D1B88044A12785343181C00F0F8F810
:1003F000BD4602B080BDC046D400002080B500AF2D
:100400000F4A8023DB0413600D4B0D4A12681A60FB
:100410000B4B0B4A12681A600A4B0C221A6001201F
:1004200000F07EF8FA239B00181C00F03FF8002033
:1004300000F04AF8044B31221A60BD4680BDC04628
:1004400000010540240105402801054080B582B027
:1004500000AF00F0CEF8031C1A1CFB1D1A70094BEC
:10046000084A116801220A431A60FB1D1B78181CF8
:1004700000F0C3F80120182100F034F8BD4602B0A6
:1004800080BDC0460000054080B500AF064B1B781C
:10049000002B04D1FFF7B2FF034B01221A70FFF7C4
:1004A000D5FFBD4680BDC046E100002080B582B0CA
:1004B00000AF7860034B7A681204120C1A60BD46D4
:1004C00002B080BD1401054080B582B000AF7860F5
:1004D000034B7A681204120C1A60BD4602B080BD4C
:1004E0000C01054080B584B000AF7860396000F041
:1004F00080F8031C1A1C3B1C0F331A70074B3A6818
:100500007968081C9040021C1A603B1C0F331B7852
:10051000181C00F072F8BD4604B080BD080005400C
:1005200080B582B000AF7860024B7A681A60BD4631
:1005300002B080BD3801054080B582B000AF786060
:1005400039607A683B68101C00211A1C00F058F8CA
:10055000BD4602B080BDC04680B586B000AF7860B1
:1005600039600023FB600023BB602EE0BB689A006B
:100570007B68D3181B683B613B1C17333A691A70C0
:100580003B69FF2293433B6117E0FB685A003B68DD
:10059000D3181B781A1C3B69D318FA6851003A68C3
:1005A0008A1852781A70FB680133FB603B1C1733C2
:1005B0003A1C17321278013A1A703B1C17331B7819
:1005C000002BE2D1BB680133BB60BB68022BCDD9E5
:1005D000BD4606B080BDC04680B500AFBD4680BDFB
:1005E0000230800804D0C0460138FDD1C046C04664
:1005F0007047EFF3108072B6704780F31088704731
:1006000030B5C9B2032A08D8002A05D0031C121835
:10061000197001339342FBD130BD8418031C0322AF
:1006200001E0197001331342FBD10A02521815047C
:100630005219E51A11E01A605A609A60DA601A617C
:100640005A619A61DA611A625A629A62DA621A63CC
:100650005A639A63DA63403D40333F2DEBDCE51A81
:1006600005E01A605A609A60DA60103D10330F2D71
:10067000F7DCE51A01E004C3043D032DFBDC01E0D7
:10068000197001339C42FBD8C6E7C04608B500F09C
:100690001DF80A4B002B01D1002000E01868084B20
:1006A000002B01D1002100E019680022FFF716FE9F
:1006B000044B002B01D000E000BFFEE7000000006B
:1006C0000000000000000000FEE7000070B50D4DC6
:1006D0000D4E761BB610002E05D0002408CD013437
:1006E0009847A642FAD800F02BF8084D084E761B22
:1006F000B610002E05D0002408CD01349847A6423C
:10070000FAD870BD4C0700004C0700004C070000F1
:04071000540700008A
:1007140000300F40000400400F40000401330F403C
:1007240003410F4004430F40E61062048E04D84096
:1007340018808C40C608E60804000000F8B5C046DE
:10074400F8BC08BC9E467047C1020000310300009B
:10075400F8B5C046F8BC08BC9E467047AD02000020
:100764000000000078070000C80000201800000006
:040774000800000079
:100778000000000000366E01C05D00001800000097
:080788000000E02EC0F1FF0F9C
:0400000300000321D5
:00000001FF
