:4000000000800020110000000D0400000D04000008B5044B1A6803F53F5302331A6000F00FFA00BFFA46004010B5054C237833B9044B13B10448AFF300800123237010BD4C
:400040009881FF1F00000000B8280000084B10B51BB108480849AFF300800848036803B910BD074B002BFBD0BDE81040184700BF00000000B82800009C81FF1F0881FF1F61
:40008000000000002DE9F04F83B062B600F0A0F8804601F0C5FD00F079FE00F0BBFD01F0ADFB00F087FE00F0C9FD01F0BBFB00F081FE002000F086FE002000F08FFE87B24C
:4000C000012000F08BFE86B200F0B8FD002000F0BDFD002000F0C6FD84B2012000F0C2FD1FFA80FA01F0EEFB85B20095204621463A46334600F0CCF808B900F04FF93846BC
:40010000012100F041F881463046012100F03CF883462046002100F037F807465046002100F032F882462846022100F02DF806464846594600F0D8F804463846514600F06E
:40014000D3F805462046002102F064FA20B92846002102F05FFA08B100F020F9CDF80080204629460022334600F00AF902F084FA01F0C0FE0022002301F078FF002896D01B
:4001800000F00CF993E700BF08B5012909D011B102290CD011E002F051F80A4902F05AF90CE002F04BF8074902F054F906E002F045F8054902F04EF900E00020034902F03A
:4001C00095F808BD00F07F4500FC7F460000C84210B51C2002F0A2FA044600F0E3F82060002222610023A3606360E3606261204610BD00BF2DE9F8430446884691460668D6
:4002000001F01CFD0546074601F0B0FC01F008FD304641464A462B4600F0CCF82369434423616068494601F059FF6060636901336361A3691D44A56113E0304600F0D8F880
:400240000546027823699B1A23616068696801F043FF60606369013B6361AA68A3699B1AA361B7F5FA4FE8DC6668606901F0EAFF05463046294602F0EDF8A060206901F01A
:40028000E1FF294602F0E6F8E060BDE8F88300BF38B141B14AB153B1BDF800304BB900207047002070470020704700207047002070470120704700BF08B5034608461946C0
:4002C00001F00AFF20F0004001F026FE04A3D3E9002301F0D5FE08B1012008BD002008BD9A9999999999B93F38B505460C46FFF7E3FF40B12846214601F0F0FE4FF07C512F
:4003000001F0F4FF38BD002038BD00BF10B50C46064902F0A7F928B12046054902F0A2F910B910BD002010BD012010BD0000A04000002041F8B5064617461C4601F0CCFED9
:4003400020F0004538463146FFF7E0FF014620462A46FFF74FFFA068074902F083F930B9E068064902F07EF918B10020F8BD0020F8BD0120F8BD00BF000020410000B442EF
:4003800010B50446084611461A46029BFFF7D2FF08B9002010BD204610BD00BF08B501F0E5FB08BD08B5082002F0B8F900224260026008BDF8B504460F4616461D464368A9
:4003C00053B9102002F0AAF960600023C3600770466085602060F8BD102002F09FF90023C3600770466085606368D8606060F8BD38B5056845B10446EB680360284602F0C5
:4004000095F9236803B96360284638BDFEE700BF08B5094B1A681044084BC31A802B02DC054B186005E002F04DF90C2303604FF0FF32104608BD00BF0C81FF1F2082FF1F51
:4004400008B5104E104D16E029686B68AC68002204E051F8040B43F8040B0432A242F8D1E868002203E0002143F8041B04328242F9D11035013E002EE6D102F029F9FFF704
:4004800001FEFEE7010000003C29000008B5134A134B1A60134A136843F40073136000230AE0032B03D8104A52F8231000E00F490F4A42F8231001332F2BF2D90D4B1A78DD
:4004C0000D4B1A700A4A0D4B1A6000F03BF900F003FA00220A4B1A6008BD00BF0004FA050CED00E014ED00E0000000000D0400000080FF1FBC7600400481FF1F08ED00E018
:400500000081FF1FFEE700BFF0B40022174611E050F82760F3B226F0FF0608E001EB420511F812406D78A5550132013BDBB2002BF4D10137292FEBD9F0BC704708B50A46D0
:40054000002102F006F908BDF8B51E4B1B78DBB21D4E3478E4B21D4F3D78EDB203F007011B4A11701B090132137044F00303337045F003033B7040F20342164B1A803022BF
:40058000D1331A704023144A13700232137006321370023213700422104B1A70212223331A7003230E4A13702021033211702D3213700A2000F074FA3D7034704422094BA5
:4005C0001A70F8BDCF010049F8460040F94600406E5800402C51004001590040005B0040285B00407658004008B502F0A7F808BD38B50024384B1C80502202331A700E2239
:4006000002331A80182335490B7002310A80344A1370172102321180023213701925023215800232137040F2ED2102321180023213702C482C490422FFF7D6FF02222B4B57
:400640001A7008224FF040231A70032103F500731970274B1B78DBB226490B70264B1A8041F25122023B1A800CE0244B1B7803F0010343EA440404F003044FF4F07000F096
:400680001BF9013D0DB1032CEFD115B90320FFF739FF1B4B4FF480721A8007221A70002218490A704820023108701A700222033B1A7004220A331A70134A137843F03F0364
:4006C0001370013A137843F001031370013A137843F08003137038BD80400040864000408A40004000410040880B00480043004008010049A1460040224200402542004050
:400700000440004006400040A2430040012807D8044B53F820201844017A13780B431370704700BFBC280000012808D8044B53F820201844017A137823EA0103137070478B
:40074000BC28000038B572B6424A137843F00403137000240AE0404963001A1952000A44D068118AFFF7EAFE0134E4B2082CF2D9002410E03849A3001A1952000A4452F80F
:40078000440F23445B000B445168B3F84C20FFF72BFF0134E4B2012CECD94FF090402F49FFF7B2FE0A252E4B1D702E480421FFF7C5FE2D482D490422FFF716FF2C482D496C
:4007C0000422FFF711FF2C482C490422FFF70CFF2B4A137843F0020313701032137843F002031370274C237843F040032370A2F58632513A137843F010031370224823495F
:400800002A46FFF7F1FE224822490822FFF7ECFE214822490822FFF7E7FE214821490822FFF7E2FE204A137843F0080313701F4D61232B70FFF7DCFE81232B7001221C4BFE
:400840001A70FFF781FE1B4821460E22FFF7CCFE38BD00BFE8460040BC280000A80000488358004000760040087600408C0B004810760040900B004818760040940B0048FD
:4008800003500140A0430040C0510040640B0048F2510040700B004812510040780B004822510040800B0048224300400048004004000840B04300400230800803D000BF47
:4008C00001380046FCD17047EFF3108072B6704780F31088704700BF0B4A7F2313708021517007E0DA0002F1804202F5F042013BDBB21370002BF5D1DB0003F1804303F5E1
:40090000F04300221A7070471081FF1F172815D831B103010A495A5C42F020025A5405E0030107495A5C02F0DF025A540001044A835C43F0010383540020704701207047FA
:400940001070004017280CD80001074BC1180A7942F004020A71C25C42F00102C254002070470120704700BF1070004017280BD80001064A835C03F0F10301F0070143EA3C
:400980004101815400207047012070471070004041F6FF73994201D14FF4005141F6FF739A4201D14FF40052172808D8C00000F1804000F5EC408180C280002070470120EF
:4009C000704700BF172805D8034B03EB0010417200207047012070471070004017281BD810B4C00000F1804404F5EC44D201D2B201F07F01114321709DF804201201D2B266
:400A000003F00F03134363709DF8083003F00F03A3700020E07001E0012070475DF8044B704700BF10B5FFF74FFF0A4B5B78182B0BD9084A1478013B5370E30003F1804391
:400A400003F5F0431B78137000E0FF24FFF740FF204610BD1081FF1F10F0800F0CD111F4704F0BD1C00000F1804000F5F04001808270C3700020704701207047012070474C
:400A800010F0800F08D1C00000F1804000F5F0408180C280002070470120704701BE704708B5034B1B7A03FB00F0FFF705FF08BD1881FF1F70B504460E46074B1D681F28EB
:400AC00002D90020FFF7EAFF04F01F04103455F8240045F8246070BD08ED00E038B504460D46072902D90020FFF7D8FF1F2C02D90020FFF7D3FF04F01F0000F1604000F564
:400B000064406D01EDB2057038BD00BF10B5022001214FF4804241F6FF7300F019FA084C20700420012141F6FF72134600F030FA6070044800F04CFA012000F04FFA10BD63
:400B4000B481FF1F810C000070B52C4C2078FFF7F9FE6078FFF7F6FE294B1B78FF2B03D1FFF760FF264B1870254D2A78104604210623FFF771FF214E341DA4B2287845F64F
:400B8000A2312246FFF77CFF30782978FFF71AFF6B78FF2B02D1FFF745FF6870184D6A78104604210723FFF757FF68782146154A92B2FFF765FF114C60786978FFF702FFB6
:400BC00020780121FFF7A2FE60780121FFF79EFEFFF77AFE0C4A137843F020031370FFF777FE0A4B1A7842F001021A701A7842F002021A700222064B1A6070BDB481FF1F1F
:400C00002881FF1FF081FF1F976500407364004080E200E008B5074B9B6823B9FFF776FF0122044B9A60FFF78FFF00F083F9024B1B7808BDB481FF1F60640040024A137841
:400C400043F004031370704773640040044B1B7803F0FF020BB90028F8D01046704700BF60640040C0F10100034B33F81030034A1088181A00B27047F081FF1FF881FF1F7E
:400C8000704700BF10B5022001214FF4804241F6FF7300F055FA084C20700420012141F6FF72134600F06CFA6070044800F086FA002000F089FA10BDC081FF1FF90D0000F6
:400CC00070B52C4C2078FFF73DFE6078FFF73AFE294B1B78FF2B03D1FFF7A4FE264B1870254D2A78104604210623FFF7B5FE214E341DA4B2287845F6A0312246FFF7C0FEB3
:400D000030782978FFF75EFE6B78FF2B02D1FFF789FE6870184D6A78104604210723FFF79BFE68782146154A92B2FFF7A9FE114C60786978FFF746FE20780121FFF7E6FDFE
:400D400060780121FFF7E2FDFFF7BEFD0C4A137843F020031370FFF7BBFD0A4B1A7842F001021A701A7842F002021A700122064B1A6070BDC081FF1F2A81FF1FF481FF1FBD
:400D8000946400407764004080E200E008B5074B9B6823B9FFF776FF0122044B9A60FFF78FFF00F0BFF9024B1B7808BDC081FF1F62640040024A137843F004031370704758
:400DC00077640040044B1B7803F0FF020BB90028F8D01046704700BF62640040C0F10100034B33F81030034A1088181A00B27047F481FF1F0482FF1F704700BF08B50A28F5
:400E00000FD00C2802D0082806D102E04FF4805209E04FF4807206E00020FFF73FFE002201E04FF480620021094B198042F2107303FB02F303F6C413064A82FB0302DB1704
:400E4000C3EBE223044A1360044B198008BD00BF0282FF1FAD8BDB68FC81FF1FF881FF1F10B5FFF731FD0446184A137843F0020313701032137843F00203137002F5AA52ED
:400E80001032137843F0030313701822104B1A70013B1A7842F040021A701A7802F0FC021A70CE22053B1A700222A3F59753123B1A70084A137843F0080313700A20FFF7BD
:400EC000EFFD2046FFF704FD10BD00BFAB4300400E5900402F5B004010B504460A280DD00C2802D0082804D101E0C22207E0422205E00020FFF7D2FDC22200E08222034BC5
:400F00001A702046FFF77AFF10BD00BF0A59004008B5064A137843F0060313700C20FFF7DBFF0022024B1A8008BD00BF095900400082FF1F08B5054B1B7823B9FFF7E8FFA8
:400F40000122024B1A70FFF78BFF08BDCC81FF1FF0B583B086460F4616461D460B4C03232370002200920192184671463A46FFF735FD207831462A46FFF70AFD20780221C4
:400F8000FFF7F4FC207803B0F0BD00BF2C81FF1FF0B583B084468E4617461E460B4C022525700023009301932846614672462B46FFF714FD207839463246FFF7E9FC2078EE
:400FC0002946FFF7D3FC207803B0F0BD2D81FF1F014B1B685864704708ED00E04001C0B2014B1870704700BF01E400E008B50A280FD00C2802D0082806D102E04FF480524E
:4010000009E04FF4807206E00020FFF747FD002201E04FF480620021094B198042F2107303FB02F303F6C413064A82FB0302DB17C3EBE223044A1360044B198008BD00BFFE
:401040000882FF1FAD8BDB680C82FF1F0482FF1F10B5FFF739FC0446184A137843F0010313701032137843F00103137002F5AA520832137843F0030313701822104B1A7002
:40108000013B1A7842F040021A701A7802F0FC021A70CE22053B1A700222A3F597530C3B1A70084A137843F0080313700A20FFF7F7FC2046FFF70CFC10BD00BFAB43004058
:4010C00006590040275B004010B504460A280DD00C2802D0082804D101E0C22207E0422205E00020FFF7DAFCC22200E08222034B1A702046FFF77AFF10BD00BF0259004049
:4011000008B5064A137843F0060313700C20FFF7DBFF0022024B1A8008BD00BF015900400682FF1F08B5054B1B7823B9FFF7E8FF0122024B1A70FFF78BFF08BDCD81FF1F8B
:40114000F0B583B086460F4616461D460B4C01232370002200920192184671463A46FFF73DFC207831462A46FFF712FC20780221FFF7FCFB207803B0F0BD00BF2E81FF1FEF
:40118000F0B583B086460F4616461D460A4C0023237000930193184671463A46FFF71EFC207831462A46FFF7F3FB20780221FFF7DDFB207803B0F0BD2F81FF1F014B1B681E
:4011C0001864704708ED00E04001C0B2014B1870704700BF00E400E038B59DF81040651EEDB2032D4AD80138092826D8DFE800F00525250525250D15251D0F2B02D9214841
:4012000000781BE02048007818E00F2B02D91F48007813E01E48007810E00F2B02D91D4800780BE01C48007808E00F2B02D91B48007803E01A48007800E0002040B201EB82
:40124000401101FB02F2D20B91B20D2B0BD8C3F10E0192B20A4191B2124A02EB8402013302F8023C05E00F4B03EB84030F2203F8022C013C0B4B23F8241038BD0020FFF727
:401280000DFC38BD180100491C010049190100491D0100491A0100491E0100491B0100491F010049D081FF1FF8B50746FFF70CFB06460D4D2B7843F003032B700B4C23788F
:4012C00043F0030323700A4B1F700320FFF7E8FB2B7803F0FC032B70237803F0FC0323703046FFF7F5FAF8BDF8460040F946004092580040F8B504460022C04B1A740128E0
:401300005BD13822BE4B1A70052702331F70072201331A70002501331D7001331D702D2201331A7002331D7001331D7001331D7001260A331E70142203F527631A7001335D
:401340001F70162201331A7001331D70442203331A70482201331A7001331E7002331E70112201331A70192201331A70972201331A705220FFF798FF5822A24B1A700133CF
:401380001D7005331F70022201331A7001331D7001331D70284600F0C1FA40F6CD429A4B1A600C20314600F0DDFA3320314600F05DFB1D209549FFF77DFB022C5DD13822FD
:4013C0008F4B1A70042202331A70062201331A70002501331D7001331D703F2201331A7002331D7001331D7001331D7001260A331E70502203F527631A70272201331A703D
:401400002C2201331A7001331D70552203331A705A2201331A70052701331F7002331E70112201331A70192201331A70972201331A704420FFF738FF5822724B1A700133D5
:401440001D7005331F70022201331A7001331D7001331D70284600F061FA4FF47A426A4B1A600820314600F07DFA2520314600F0FDFA1D206649FFF71DFB032C5DD1382273
:401480005F4B1A70042202331A70062201331A70002501331D7001331D703F2201331A7002331D7001331D7001331D7001260A331E70502203F527631A70272201331A70AC
:4014C0002C2201331A7001331D70552203331A705A2201331A70052701331F7002331E70112201331A70192201331A70972201331A704420FFF7D8FE5822424B1A700133A6
:401500001D7005331F70022201331A7001331D7001331D70284600F001FA4FF47A423A4B1A600820314600F01DFA2520314600F09DFA1D203749FFF7BDFA042C5DD1382291
:401540002F4B1A70042202331A70062201331A70002401331C7001331C703F2201331A7002331C7001331C7001331C7001250A331D70502203F527631A70272201331A7023
:401580002C2201331A7001331C70552203331A705A2201331A70052601331E7002331D70112201331A70192201331A70972201331A704420FFF778FE5822124B1A70013379
:4015C0001C7005331E70022201331A7001331C7001331C70204600F0A1F94FF47A420A4B1A600820294600F0BDF92520294600F03DFA1D200849FFF75DFAF8BDD081FF1F62
:40160000004E0040945800401482FF1FED180000F1180000F5180000F91800002DE9F04182B0394D4FF0010885F80080374E00247474102000F084F9102000F005FA1D2042
:401640000721FFF74BFA0427314B1F7001331C7007331C702F4A137843F0180313702E4B1C7003F2F5231C7001331C700A22A3F209331A7001331C7002331C7012220533A4
:401680001A70132201331A7004331C701422A3F68C231A70CDF80080022048F66B5147F2E9720E23FFF798FD02230093204649F2DA014FF400421023FFF78EFD032300930B
:4016C000204649F2DA014FF400421023FFF784FD0097204649F2DA014FF400421023FFF77BFD2B7806EB830313F8022C0B4B1A702B78013B36F82320094B1A802878FFF7FF
:40170000F9FD02B0BDE8F0813081FF1FD081FF1F96580040075B0040935800400E4E00400C4E004070B5FFF7CFF806462A4B1B782A4B1A7842F001021A701A7842F01002AA
:401740001A7010331A7842F001021A701A7842F010021A70224D2B7843F002032B70214C237843F0020323701F4A137843F0030313700320FFF794F92B7803F0FD032B70AC
:40178000237803F0FD032370184A137843F0060313707A22164B1A70164A137843F0010313701032137843F0010313700F3A137843F0010313701032137843F00103137094
:4017C0004FF000530C4A1360A2F5C07213603046FFF77EF870BD00BF3081FF1FAA430040F8460040F9460040915800407758004082580040A143004080E200E008B5084BC3
:401800009B7C4BB9064BDB7C13F0FF0F01D1FFF705FF0122024B9A74FFF784FF08BD00BFD081FF1F024A137843F0010313707047004E0040024A137803F0FE031370704743
:40184000004E0040094B1B7C13F0FF0F03D0074B5B7CDBB203E0064B1B7803F00103012B01D00028EED01846704700BFD081FF1F014E00400E4B1B7803F00303012B03D8F6
:401880000C4B188880B209E00A4A12780A49087842EA0020032B01D1084B1B78084B1B7C13F0FF0F02D00022054B5A7400B27047144E0040104E0040114E0040124E00403E
:4018C000D081FF1F10B5084A137843F004031370FFF7A8FF0020FFF7B5FFFFF7CBFF0446FFF7A8FF204610BD014E0040704700BF704700BF704700BF704700BF10B5002489
:4019000004E02046FEF710FF0134E4B2012CF8D9FF22014B1A7010BD3181FF1F10B50446FFF7ECFF2046FEF7F1FE014B1C7010BD3181FF1F014B188880B270478040004078
:40194000034B1A7800F0F80010431870704700BF82400040024B187800F00700704700BF8240004070B505460E46FFF7F3FF0446FFF7E0FF854256D02B4B1B7803F0010249
:4019800094B900B185B938B9284B1D80284A137803F0BF03137070BD254A137843F040031370224B1D8070BD22B3002321490B7001240F310C7004310B700C390B7803F035
:4019C0007F030B701A4B1B7813F0080F00D08DB9194B18800721013B1970164B1B7813F0010FFAD110490B7803F0FE030B700021104B19700C4B1B7813F0010F0DD00E4B84
:401A00001D800EB1032200E001220A4B1A70094B1B7813F0010FFAD170BD044B1D8002490B7813430B7070BDA243004080400040824000400140004002400040014B188883
:401A400080B2704700410040034B1A7800F0F80010431870704700BF02410040024B187800F00700704700BF0241004070B505460E46FFF7F3FF0446FFF7E0FF854256D0DB
:401A80002B4B1B7803F0010294B900B185B938B9284B1D80284A137803F0BF03137070BD254A137843F040031370224B1D8070BD22B3002321490B70012413310C7004395F
:401AC0000B7008390B7803F07F030B701A4B1B7813F0080F00D08DB9194B18800721013B1970164B1B7813F0010FFAD110490B7803F0FE030B700021104B19700C4B1B789A
:401B000013F0010F0DD00E4B1D800EB1032200E001220A4B1A70094B1B7813F0010FFAD170BD044B1D8002490B7813430B7070BDA1430040004100400241004001400040A6
:401B400002400040084A137843F0020313701032137843F00203137002F65932137843F001031370704700BFA3430040084A137803F0FE031370A2F66932137803F0FD035A
:401B800013701032137803F0FD031370704700BF0C4F0040014B1870704700BF0F4F0040014B1880704700BF104F0040014B1880704700BF124F004008B5164A137803F0D7
:401BC000010313700232137803F0FC031370124B1A7802F0CF021A701A7842F030021A701A7802F0F0021A701A7842F00F021A700A4A137843F0010313704FF6FF70FFF7CC
:401C0000CFFF4FF6FF70FFF7D1FF0820FFF7C2FF08BD00BF0C4F0040174F00400D4F004008B5054B1B7823B9FFF7C6FF0122024B1A70FFF787FF08BDE481FF1F024B1B8837
:401C4000024B188880B27047124F0040144F004081F0004102E000BF83F0004330B54FEA41044FEA430594EA050F08BF90EA020F1FBF54EA000C55EA020C7FEA645C7FEA72
:401C8000655C00F0E2804FEA5454D4EB5555B8BF6D420CDD2C4480EA020281EA030382EA000083EA010180EA020281EA0303362D88BF30BD11F0004F4FEA01314FF4801C7E
:401CC0004CEA113102D0404261EB410113F0004F4FEA03334CEA133302D0524263EB430394EA050F00F0A780A4F10104D5F1200E0DDB02FA0EFC22FA05F2801841F1000150
:401D000003FA0EF2801843FA05F359410EE0A5F120050EF1200E012A03FA0EFC28BF4CF0020C43FA05F3C01851EBE37101F0004507D54FF0000EDCF1000C7EEB00006EEB6F
:401D40000101B1F5801F1BD3B1F5001F0CD349085FEA30004FEA3C0C04F101044FEA445212F5800F80F09A80BCF1004F08BF5FEA500C50F1000041EB045141EA050130BD0E
:401D80005FEA4C0C404141EB010111F4801FA4F10104E9D191F0000F04BF01460020B1FA81F308BF2033A3F10B03B3F120020CDA0C3208DD02F1140CC2F10C0201FA0CF0AC
:401DC00021FA02F10CE002F11402D8BFC2F1200C01FA02F120FA0CFCDCBF41EA0C019040E41AA2BF01EB0451294330BD6FEA04041F3C1CDA0C340EDC04F11404C4F12002FE
:401E000020FA04F001FA02F340EA030021FA04F345EA030130BDC4F10C04C4F1200220FA02F001FA04F340EA0300294630BD21FA04F0294630BD94F0000F83F4801306BF55
:401E400081F480110134013D4EE77FEA645C18BF7FEA655C29D094EA050F08BF90EA020F05D054EA000C04BF1946104630BD91EA030F1EBF0021002030BD5FEA545C05D1C2
:401E80004000494128BF41F0004130BD14F580043CBF01F5801130BD01F0004545F0FE4141F470014FF0000030BD7FEA645C1ABF194610467FEA655C1CBF0B46024650EA0B
:401EC000013406BF52EA033591EA030F41F4002130BD00BF90F0000F04BF0021704730B54FF4806404F132044FF000054FF0000150E700BF90F0000F04BF0021704730B5FB
:401F00004FF4806404F1320410F0004548BF40424FF000013EE700BF42004FEAE2014FEA31014FEA02701FBF12F07F4393F07F4F81F06051704792F0000F14BF93F07F4F68
:401F4000704730B54FF4607401F0004521F0004120E700BF50EA010208BF704730B54FF000050AE050EA010208BF704730B511F0004502D5404261EB41014FF4806404F1A9
:401F800032045FEA915C3FF4DCAE4FF003025FEADC0C18BF03325FEADC0C18BF033202EBDC02C2F1200300FA03FC20FA02F001FA03FE40EA0E0021FA02F11444C1E600BF94
:401FC0004FF0FF3C06E000BF4FF0010C02E000BF4FF0010C4DF804CD4FEA410C7FEA6C5C4FEA430C18BF7FEA6C5C1BD001B050EA410C0CBF52EA430C91EA030F02BF90EAEB
:40200000020F0020704710F1000F91EA030F58BF994208BF90422CBFD8176FEAE37040F0010070474FEA410C7FEA6C5C02D150EA013C07D14FEA430C7FEA6C5CD6D152EAAD
:40204000033CD3D05DF8040B704700BF8446104662468C461946634600E000BF01B5FFF7B7FF002848BF10F1000F01BD4DF808EDFFF7F4FF0CBF012000205DF808FB00BFBE
:402080004DF808EDFFF7EAFF34BF012000205DF808FB00BF4DF808EDFFF7E0FF94BF012000205DF808FB00BF4DF808EDFFF7CEFF94BF012000205DF808FB00BF4DF808ED20
:4020C000FFF7C4FF34BF012000205DF808FB00BF80F0004002E000BF81F0004142001FBF5FEA410392EA030F7FEA226C7FEA236C6AD04FEA1262D2EB1363C1BFD2184140AA
:4021000048404140B8BF5B42192B88BF704710F0004F40F4000020F07F4018BF404211F0004F41F4000121F07F4118BF494292EA030F3FD0A2F1010241FA03FC10EB0C0068
:40214000C3F1200301FA03F100F0004302D5494260EB4000B0F5000F13D3B0F1807F06D340084FEA310102F10102FE2A51D2B1F1004F40EBC25008BF20F0010040EA03003F
:402180007047490040EB000010F4000FA2F10102EDD1B0FA80FCACF1080CB2EB0C0200FA0CF0AABF00EBC25052421843BCBFD0401843704792F0000F81F4000106BF80F4E3
:4021C00000000132013BB5E74FEA41037FEA226C18BF7FEA236C21D092EA030F04D092F0000F08BF0846704790EA010F1CBF0020704712F07F4F04D1400028BF40F0004069
:40220000704712F100723CBF00F50000704700F0004343F0FE4040F4000070477FEA226216BF08467FEA23630146420206BF5FEA412390EA010F40F4800070474FF0000309
:4022400004E000BF10F0004348BF40425FEA000C08BF704743F0964301464FF000001CE050EA010208BF70474FF000030AE000BF50EA010208BF704711F0004302D5404290
:4022800061EB41015FEA010C02BF84460146002043F0B64308BFA3F18053A3F50003BCFA8CF2083AA3EBC25310DB01FA02FC634400FA02FCC2F12002BCF1004F20FA02F2D8
:4022C00043EB020008BF20F00100704702F1200201FA02FCC2F1200250EA4C0021FA02F243EB020008BF20EADC7070474FF0FF0C1CEAD0521EBF1CEAD15392EA0C0F93EA16
:402300000C0F6FD01A4480EA010C400218BF5FEA41211ED04FF0006343EA501043EA5111A0FB01310CF00040B1F5000F3EBF490041EAD3715B0040EA010062F17F02FD2A0A
:402340001DD8B3F1004F40EBC25008BF20F00100704790F0000F0CF0004C08BF49024CEA502040EA51207F3AC2BFD2F1FF0340EAC250704740F400004FF00003013A5DDCA3
:4023800012F1190FDCBF00F000407047C2F10002410021FA02F1C2F1200200FA02FC5FEA310040F1000053EA4C0308BF20EADC70704792F0000F00F0004C02BF400010F4C2
:4023C000000F013AF9D040EA0C0093F0000F01F0004C02BF490011F4000F013BF9D041EA0C018FE70CEAD15392EA0C0F18BF93EA0C0F0AD030F0004C18BF31F0004CD8D1A1
:4024000080EA010000F00040704790F0000F17BF90F0004F084691F0000F91F0004F14D092EA0C0F01D142020FD193EA0C0F03D14B0218BF084608D180EA010000F00040A5
:4024400040F0FE4040F40000704740F0FE4040F4400070474FF0FF0C1CEAD0521EBF1CEAD15392EA0C0F93EA0C0F69D0A2EB030280EA010C49024FEA402037D04FF0805383
:4024800043EA111143EA10130CF000408B4238BF5B0042F17D024FF4000C8B4224BF5B1A40EA0C00B3EB510F24BFA3EB510340EA5C00B3EB910F24BFA3EB910340EA9C0074
:4024C000B3EBD10F24BFA3EBD10340EADC001B0118BF5FEA1C1CE0D1FD2A3FF650AF8B4240EBC25008BF20F0010070470CF0004C4CEA50207F32C2BFD2F1FF0340EAC250D9
:40250000704740F400004FF00003013A37E792F0000F00F0004C02BF400010F4000F013AF9D040EA0C0093F0000F01F0004C02BF490011F4000F013BF9D041EA0C0195E754
:402540000CEAD15392EA0C0F08D142027FF47DAF93EA0C0F7FF470AF084676E793EA0C0F04D14B023FF44CAF08466EE730F0004C18BF31F0004CCAD130F000427FF45CAF63
:4025800031F000437FF43CAF5FE700BF4FF0FF3C06E000BF4FF0010C02E000BF4FF0010C4DF804CD4FEA40024FEA41037FEA226C18BF7FEA236C11D001B052EA530C18BF24
:4025C00090EA010F58BFB2EB030088BFC81738BF6FEAE17018BF40F0010070477FEA226C02D15FEA402C05D17FEA236CE4D15FEA412CE1D05DF8040B704700BF84460846B9
:402600006146FFE70FB5FFF7C9FF002848BF10F1000F0FBD4DF808EDFFF7F4FF0CBF012000205DF808FB00BF4DF808EDFFF7EAFF34BF012000205DF808FB00BF4DF808ED9C
:40264000FFF7E0FF94BF012000205DF808FB00BF4DF808EDFFF7D2FF94BF012000205DF808FB00BF4DF808EDFFF7C8FF34BF012000205DF808FB00BF4FEA4002B2F1FE4F81
:402680000FD34FF09E03B3EB12620DD94FEA002343F0004310F0004F23FA02F018BF404270474FF00000704712F1610F01D1420205D110F0004008BF6FF0004070474FF02F
:4026C00000007047014B1868704700BF9481FF1F0E4B70B51E460E4C0025E41AA410A54204D056F8253098470135F8E700F014F9084B094C1E46E41AA4100025A54204D0AE
:4027000056F8253098470135F8E770BD2429000024290000242900002C290000024B0146186800F063B800BF9481FF1F024B0146186800F017B800BF9481FF1F10B5431E9D
:402740000A44914204D011F8014B03F8014FF8E710BD03460244934202D003F8011BFAE77047000030B500293CD051F8042C0B1F1D49002AB8BF9B180A680C4612B95A6073
:402780000B6030BD93420DD219685818904201BF5A5852181A60426823605A6030BD994203D80A4651680029F9D1146815199D420AD11B682344D0188842136012D10868A8
:4027C000034413604B680CE002D90C23036030BD1C681819884201BF08684968001918605960536030BD00BFEC81FF1F70B5CC1C24F0030408340C2C38BF0C24002C064657
:4028000003DA0C233360002070BD8C42F9D3204A136810461946A1B10A68121B0ED40B2A03D90A608B188C501FE08B420BBF5A684A6802605A6018BF0B4616E00B46496865
:40284000E9E7144D2B681BB9304600F025F828603046214600F020F8421C0346D1D0C51C25F0030585420AD11C6003F10B001A1D20F00700821A0AD05142995070BD30468A
:40288000E91A00F009F80130BBD02B46ECE770BDEC81FF1FE881FF1F38B5064C0023054608462360FDF7B4FD431C02D1236803B12B6038BD1882FF1F00000000035B00407B
:4028C0002443004040000000004F0040180000510040100030510040400000000140001000140140000480180140800300400140000A004C014000021050014010000000D7
:4029000000180140D40A0048800000500140540B0048100043000000F8B500BFF8BC08BC9E4670474D0000008D040000F8B500BFF8BC08BC9E46704729000000502900008F
:402940000881FF1F900000008800000000000000000000002082FF1F7F8000000F0000000000E02EC05D00001800000000366E01FFFFFFFFFFFFFFFF01FF000000000000EA
:4029800000000000000000000000000000000000000000000000000000000000142900000000000000000000000000000000000000000000000000000000000000000000DA
:4029C000000000000000000000000000000000000000000000000000000000003481FF1F000000000000000000000000000000000000000000000000000000000000000004
:402A00000000000000000000000000000000000000000000000000000000000000000000000000000000000000000000000000000000000000000000000000000000000096
:402A40000000000000000000000000000000000000000000000000000000000000000000000000000000000000000000000000000000000000000000000000000000000056
:402A80000000000000000000000000000000000000000000000000000000000000000000000000000000000000000000000000000000000000000000000000000000000016
:402AC00000000000000000000000000000000000000000000000000000000000000000000000000000000000000000000000000000000000000000000000000000000000D6
:020000040003F7
:0200000480007A
:40000000044F004007520040025B0040026400400365004025000140300101402E0201404E0301401A040140410501402E060140450701402D0801403A0901401F0A014082
:400040003E0B0140240C01403B0D01400C0E0140280F0140231401404615014021160140461701400418014048190140341A01404B1B01400E400140054101400142014030
:4000800002430140044401400B450140104601400D47014010480140134C0140084D0140035001400251014001300A360D50163608400940100111036180644078202784E5
:4000C0002F848401880F843887018B7201020501060209100B200F02118013401520171019081A011D0422042304270129402B802F083002320135FF36043F10540158045A
:4001000059045B0C5C025D105F019701B301D804D904DC22DF0100400220030804A009060A020B080F8A10801110120115101702184019041A021BCD2110242025042808CC
:4001400029052B412F8830A032203305370638A03A0A3B083D183E803F025840798084408A028B01C0C7C2DFC45BCAAFCCCFCEFFD608DE08E2405401580459045B0C5C2276
:400180005D205F01800481018201842087048B408D08911096309701980A9A059B209C079E089F10A308A602A702A80FA904AC01AD20B020B210B303B40CB603B77CB98050
:4001C000BF40D207D306D80CD904DB04DC91DD10DF0100020108042005010601070209080A060C0111141380140816501710190A1A0621082280230228212A122B052C404C
:400200002D032F0230A0310933023401350436803710388039213A483B403D083F405C805E406804699479807D40802084818B018D0190A0912092089580980899059C40DE
:400240009E0B9F07A104A305A4A0A850A902AA80B008B110B204C0DCC217C477CA1FCCFFCE5FD610DE18E040E60CE804EA010401050119011A041E022C0130023101320125
:400280003404380839023E043F015602573D580459045B0C5C215D205F01D804D904DC11DF0100480318044005180610072009850A040F061040121A144015081840190607
:4002C0001B20210229012B042F2830013294350A38A83C203D0A3F065A20610268A06B05720A7340794082028440872090A09180920895409640980199019E0A9F85A0049D
:40030000A2C0A304A4A0AE01B240B706C0E7C2CFC43FCA65CCCFCEEED604D801DE08E201E820EC025608580459045B045C115D905F01800482018310842087408B048C0A85
:400340008E058F0190019101940F951098079A089B209E309F08A108A504A602A920AF02B020B103B210B37CB403B60CB908BF04D207D306D80CD904DB04DC92DD20DF01FB
:4003800001880380051209100A2A0B400D0811041508168619891A48206021042209280129122A042B282E802F283010318935023608386839013D023E023F045E80640193
:4003C00069446A207940811083808680872089088B049180934095489664970499069B109D109FA0A240A320A410A581A608A708A804C05DC22FC4F4CA7FCCCFCECFD6106B
:40040000D810DE08E003E604EE0102200301042A061409010E2814401B011C031D011E04200322342403261C27012E15303831013440360F3A8A3E103F01540158045904B5
:400440005B045C145D405F018003840390039803A203A403AC01AE02B002B201D804D904DC11DF010002010805400680071009020B080F2211011222144116201820190185
:400480001C401D081EE9278029082A022C202E022F063222344035083641371039213B083D803E243F025D105E085F8281018540860289128A25946096019A809F10A0A0DE
:4004C000A311C0BCC2AAC4BDCAF3CCF5CEF7D6F0E005E420E604EE01580459045C225F0184028C039A019C03B003B802BE01C053C104C5C0C6EBC80EC9FFCAFFCBFFCEF005
:40050000CF44D00CD804D904DA04DC22DD04DF01E6C0EA40EB02010802C0030404400648071108010B080C320E010F1010021210140517041D02280429092A082C062F1429
:4005400030023280330434013501368137043A103B303E08441047014E014F02548057105A038010930899089A909B049C04A022A281A502B402B510B681C0FEC2FAC4E59E
:40058000CA77CCDBCE44D0C0D210E004E201E850EC024004460449FF4A074BFF4C404D204EF04F0550085608580459045A045B045C225D945F01604061A862406320810399
:4005C0008903910395039D03A901AB02AF03B102B301D804D904DC22DF01010803040510061208060C0610021290140217042010234028062C822D082F0430023280330468
:40060000368137043A124502542056805D40670280108301874089088A028C028D408E0193089A109B049D189E03A080A681A880AA08AB14B304C0E6C23CC4ADCAFCCCDBB0
:40064000CE05D080D610D810E0C0E443E608EA80580459045C225F0183019A01B201B501D804D904DC22DF01010A030405100612071009080D080E020F041289154016010E
:4006800017041D0C1F04270429052C802D082F0430803110330435033681370439403A023D403F028B05C0EEC2E4C4ABCAE3CCDECE99E080E240E4200208040707010804E1
:4006C0000A020B020E101002120518201E102001220226082C072F0430073101322033043408361037023E545418580459045B045C145D405F01D804D904DC11DF0102247F
:400700000381044005200680074008A00A400D080F02109011401440150819511A502040210822C9284029202A402B102D202E802F203108320133603440368839143C40A3
:400740003F205902615079087B1080808140889089028E30911C94409680982099209A449B419D01A3A1A508AA04AB80AF01B321B440B511C0DFC2ABC43DCA7FCC5FCE36F3
:40078000D601D80CE605EA03EE04580459045C115F018202860188408A808E08901092209301960498019C02A004A408A820AA10AC80AE40B301B4FFB802BE11D602D73940
:4007C000D804D904DB0CDC10DD10DF010060012203600440050209890AC40B600D080F421012111512401508172018081B022020232029222B202E402F1030023108324070
:4008000035023608384039083C603F025B1061046802691570107180720473807980850287028C208E40918894289501960499069B109C109D109FA0A208A320A589B01056
:40084000C09FC2BFC46FCA57CCCBCEBAD604D802DE08E00BE408E812D804D904DC11DF010002010804280540068809420B090C800E48110112601401162017111C201D4059
:400880001E082401275029082A022C402DA02E08322034013540371039203A403B093C013D0C3EA03F02452847404C024E804F24840186028E2591219240970898419AA032
:4008C0009D489E029F10A080A14AA210A401A621AB12B021B111B303C0FCC2DBC4FCCAF3CCB4CEFFD070D230E01BE240E812EC80580459045C115F01800F82F0840C850809
:4009000088048C418D398F4292F3930694FF9539974498F3997F9A0C9C829F01A008A110A4C3A567A718A81CA918AAE3AD01AF80B02CB180B21CB320B40FB51FB6C0B7403A
:40094000B980BA22BB20BF04D602D712D804D904DB04DC44DD40DF010002010A0581062409020B080C030D200E200F0211C11220144815041D651E401F1026042746290AA6
:400980002CC02D802E202F103102322034093610374439413B083E485E08610463206C146F217480762C8104832089C08B028C048D2091059308942899089DA09F01A0030E
:4009C000A142A230A301A520A710A801AA80AF04B012B304B50CC0FCC2FAC47DCAF3CCF5CE5BD640E2B0E410E680E8C0EC4011441688301036103B023E88400886108F0142
:400A0000C4F0CC30CEE0D010E61084188D4091449C18E650B1041810C6107D018F04DE01E2022380510155018101850187809501A704C802D401D6041B04250145085208D3
:400A4000562082088380934095019B80A784AF40C608C801D001D40641024780810282208304934095019E20A304A508A780A901D006208027216780680283208442874052
:400A80009F01AF01B410C8E0D880DA40E0C0E210E8401F8036023B4064808380850186029340950198809F80A780AD08B480C601CC01CE08D801E8081080798088808D40C6
:400AC000C408DC01E408E60110121A121C12000F10AA0000102000508000008080010006090010082C00110300000000000C03031400000C8001000E30300C001C30220032
:400B00004010006000C0800F1F00603080000008000000012503060001EC000003FFFFFF62A0F0410C0000000000000004040400440400010000000000004002001030103D
:400B40000010101200000000000000000000000000000000160100000000000006010601160014018000408080008000000000003030000000303000004040004000000033
:400B800003030000000307003300180100010000000200000003000000000000000000000000000000000000000000000000000000000000000000000000000000000000D3
:400BC00000000000000000000000000000000000000000000000000000000000000000000000000000000000000000000000000000000000000000000000000000000000F5
:400C000000000000000000000000000000000000000000000000000000000000000000000000000000000000000000000000000000000000000000000000000000000000B4
:400C40000000000000000000000000000000000000000000000000000000000000000000000000000000000000000000000000000000000000000000000000000000000074
:400C80000000000000000000000000000000000000000000000000000000000000000000000000000000000000000000000000000000000000000000000000000000000034
:0200000490006A
:0400000000004005B7
:0200000490105A
:04000000BC90ACAF55
:0200000490303A
:02000000A63C1C
:0200000490402A
:4000000000000000000000000000000000000000000000000000000000000000000000000000000000000000000000000000000000000000000000000000000000000000C0
:400040000000000000000000000000000000000000000000000000000000000000000000000000000000000000000000000000000000000000000000000000000000000080
:400080000000000000000000000000000000000000000000000000000000000000000000000000000000000000000000000000000000000000000000000000000000000040
:4000C0000000000000000000000000000000000000000000000000000000000000000000000000000000000000000000000000000000000000000000000000000000000000
:0200000490501A
:0C00000000012E16106900012E28B6A584
:00000001FF