:400000000080002011000000B5030000B503000008B5044B1A6803F53F5302331A6000F0E3F900BFFA46004010B5054C237833B9044B13B10448AFF300800123237010BD2B
:400040009881FF1F00000000E02C0000084B10B51BB108480849AFF300800848036803B910BD074B002BFBD0BDE81040184700BF00000000E02C00009C81FF1F0881FF1F09
:40008000000000000000000070B504460E4602F0AFFD194D054003D5013D65F00105013502F0A6FD154B83FB0632F317C3EB621390FBF3F202FB13000DB1044400E0241A11
:4000C000304601F0D3FE0AA3D3E9002301F034FF02F0CCF9844204DB301A844203DD701E70BD002070BD204670BD00BFAFF30080333333333333C33F010000801F85EB51BB
:400100002DE9F04383B000F09BFD62B6002002F0B9FD02F045FD00F091F800F053FD00F0C5FC00F021FC01F0C9F800F0D3FC00F02FFC01F0D7F840F2FF74204640F6FF7133
:40014000FFF7A2FF84B200230093204621462246234600F085F8B0F1FF3F01D100F0C4F82046012100F046F880462046012100F041F807462046002100F03CF806462046BD
:40018000002100F037F805460020022100F032F881460520414600F0CFF80620394600F0CBF80320314600F0C7F80420294600F0C3F80220494600F0BFF84046394600F001
:4001C0007FF807463046294600F07AF805463846074902F015FC20B92846054902F010FC08B100F081F8322001F0A2FCA5E700BF000080BF08B5012909D011B102290CD02F
:4002000011E002F011FA0A4902F01AFB0CE002F00BFA074902F014FB06E002F005FA054902F00EFB00E00020034902F055FA08BD00F07F4500FC7F460000C84210B51C2050
:4002400002F03CFC044600F053F82060002222610023A3606360E3606261204610BD00BF40B151B162B173B1BDF8003073B94FF0FF3070474FF0FF3070474FF0FF3070471F
:400280004FF0FF3070474FF0FF3070470120704708B503460846194602F014F920F0004001F0F6FD04A3D3E9002302F0B7F808B1002008BD012008BD9A9999999999B93FFC
:4002C00038B505460C46FFF7E3FF40B92846214602F0FAF84FF07C5102F0FEF938BD014838BD00BF000080BF08B500F011FC08BD08B5082002F0E2FB00224260026008BDA6
:4003000010B50446C0B200F0A9FCC4F3072000F0A5FCC4F3074000F0A1FC200E00F09EFC10BD00BF10B5002403E0FF2000F096FC0134032CF9DD10BD38B504460D46FFF775
:40034000F1FFA01E042818D8DFE800F01303070B0F00114800F08EFC12E0104800F08AFC0EE00F4800F086FC0AE00E4800F082FC06E00D4800F07EFC02E00C4800F07AFC8C
:40038000284601F085FD0022094B01F0D5FD02F06DF8FFF7B5FF38BDE42C0000EC2C0000F42C0000FC2C0000042D00000C2D000000005940FEE700BF08B5094B1A6810442F
:4003C000084BC31A802B02DC054B186005E002F049FB0C2303604FF0FF32104608BD00BF0C81FF1F2082FF1F08B5104E104D16E029686B68AC68002204E051F8040B43F89B
:40040000040B0432A242F8D1E868002203E0002143F8041B04328242F9D11035013E002EE6D102F025FBFFF76BFEFEE701000000942D000008B5134A134B1A60134A1368EB
:4004400043F40073136000230AE0032B03D8104A52F8231000E00F490F4A42F8231001332F2BF2D90D4B1A780D4B1A700A4A0D4B1A6000F03BF901F077FA00220A4B1A60B2
:4004800008BD00BF0004FA050CED00E014ED00E000000000B50300000080FF1FBC7600400481FF1F08ED00E00081FF1FFEE700BFF0B40022174611E050F82760F3B226F0DA
:4004C000FF0608E001EB420511F812406D78A5550132013BDBB2002BF4D10137292FEBD9F0BC704708B50A46002102F0FAFA08BDF8B51E4B1B78DBB21D4E3478E4B21D4FD7
:400500003D78EDB203F007011B4A11701B090132137044F00303337045F003033B7040F20342164B1A803022D1331A704023144A1370023213700632137002321370042204
:40054000104B1A70212223331A7003230E4A13702021033211702D3213700A2001F0FEFA3D7034704422094B1A70F8BDCF010049F8460040F94600406E5800402C51004063
:4005800001590040005B0040285B00407658004008B502F09BFA08BD38B50024384B1C80502202331A700E2202331A80182335490B7002310A80344A1370172102321180DD
:4005C000023213701925023215800232137040F2ED2102321180023213702C482C490422FFF7D6FF02222B4B1A7008224FF040231A70032103F500731970274B1B78DBB2CC
:4006000026490B70264B1A8041F25122023B1A800CE0244B1B7803F0010343EA440404F003044FF4F07001F08FF9013D0DB1032CEFD115B90320FFF739FF1B4B4FF4807232
:400640001A8007221A70002218490A704820023108701A700222033B1A7004220A331A70134A137843F03F031370013A137843F001031370013A137843F08003137038BD66
:4006800080400040864000408A40004000410040880B00480043004008010049A146004022420040254200400440004006400040A2430040012807D8044B53F8202018441A
:4006C000017A13780B431370704700BF142D0000012808D8044B53F820201844017A137823EA010313707047142D000038B572B6424A137843F00403137000240AE040491B
:4007000063001A1952000A44D068118AFFF7EAFE0134E4B2082CF2D9002410E03849A3001A1952000A4452F8440F23445B000B445168B3F84C20FFF72BFF0134E4B2012C67
:40074000ECD94FF090402F49FFF7B2FE0A252E4B1D702E480421FFF7C5FE2D482D490422FFF716FF2C482D490422FFF711FF2C482C490422FFF70CFF2B4A137843F0020384
:4007800013701032137843F002031370274C237843F040032370A2F58632513A137843F010031370224823492A46FFF7F1FE224822490822FFF7ECFE214822490822FFF7EB
:4007C000E7FE214821490822FFF7E2FE204A137843F0080313701F4D61232B70FFF7DCFE81232B7001221C4B1A70FFF781FE1B4821460E22FFF7CCFE38BD00BFE84600408C
:40080000142D0000A80000488358004000760040087600408C0B004810760040900B004818760040940B004803500140A0430040C0510040640B0048F2510040700B0048B6
:4008400012510040780B004822510040800B0048224300400048004004000840B043004010B5022001214FF4804241F6FF7300F0F3FD084C20700420012141F6FF72134616
:4008800000F00AFE6070044800F026FE012000F029FE10BDB481FF1FA109000070B52C4C207801F097F8607801F094F8294B1B78FF2B03D101F0FEF8264B1870254D2A780B
:4008C00010460421062301F00FF9214E341DA4B2287845F6A231224601F01AF93078297801F0B8F86B78FF2B02D101F0E3F86870184D6A7810460421072301F0F5F8687813
:400900002146154A92B201F003F9114C6078697801F0A0F82078012101F040F86078012101F03CF801F018F80C4A137843F02003137001F015F80A4B1A7842F001021A70C0
:400940001A7842F002021A700222064B1A6070BDB481FF1F1081FF1FF081FF1F976500407364004080E200E008B5074B9B6823B9FFF776FF0122044B9A60FFF78FFF00F0AA
:400980005DFD024B1B7808BDB481FF1F60640040024A137843F004031370704773640040704700BF10B5022001214FF4804241F6FF7300F049FE084C20700420012141F6BA
:4009C000FF72134600F060FE6070044800F07AFE002000F07DFE10BDC081FF1FE50A000070B52C4C207800F0F5FF607800F0F2FF294B1B78FF2B03D101F05CF8264B1870A0
:400A0000254D2A7810460421062301F06DF8214E341DA4B2287845F6A031224601F078F83078297801F016F86B78FF2B02D101F041F86870184D6A7810460421072301F016
:400A400053F868782146154A92B201F061F8114C6078697800F0FEFF2078012100F09EFF6078012100F09AFF00F076FF0C4A137843F02003137000F073FF0A4B1A7842F090
:400A800001021A701A7842F002021A700122064B1A6070BDC081FF1F1281FF1FF481FF1F946400407764004080E200E008B5074B9B6823B9FFF776FF0122044B9A60FFF749
:400AC0008FFF00F0B3FD024B1B7808BDC081FF1F62640040024A137843F004031370704777640040704700BF084A137843F0020313701032137843F00203137002F659323F
:400B0000137843F001031370704700BFA3430040084A137803F0FE031370A2F66932137803F0FD0313701032137803F0FD031370704700BF0C4F0040014B1870704700BFAE
:400B40000F4F0040014B1880704700BF104F0040014B1880704700BF124F004008B5164A137803F0010313700232137803F0FC031370124B1A7802F0CF021A701A7842F08D
:400B800030021A701A7802F0F0021A701A7842F00F021A700A4A137843F0010313704FF6FF70FFF7CFFF4FF6FF70FFF7D1FF0820FFF7C2FF08BD00BF0C4F0040174F0040EB
:400BC0000D4F004008B5054B1B7823B9FFF7C6FF0122024B1A70FFF787FF08BDCC81FF1F7222084B1A702022073B1A700622A3F5AC731A70472210331A7000224C331A7033
:400C0000704700BF8B65004010B500F0A5FE04460A4A137843F020031370073A137843F010031370FC3A137843F01003137000F057FD204600F094FE10BD00BF9B6500409D
:400C400008B5054B1B7823B9FFF7CAFF0122024B1A70FFF7D9FF08BDCD81FF1F034B1B7813F0040FFAD1024B18707047686400404B64004038B5074B1B782BB938BDFFF756
:400C8000EDFF0134A4B201E005460024285D0028F5D138BDCD81FF1F38B59DF81040651EEDB2032D4AD80138092826D8DFE800F00525250525250D15251D0F2B02D92148B4
:400CC00000781BE02048007818E00F2B02D91F48007813E01E48007810E00F2B02D91D4800780BE01C48007808E00F2B02D91B48007803E01A48007800E0002040B201EBC8
:400D0000401101FB02F2D20B91B20D2B0BD8C3F10E0192B20A4191B2124A02EB8402013302F8023C05E00F4B03EB84030F2203F8022C013C0B4B23F8241038BD002000F072
:400D4000F5FE38BD180100491C010049190100491D0100491A0100491E0100491B0100491F010049D081FF1FF8B5074600F0F4FD06460D4D2B7843F003032B700B4C237806
:400D800043F0030323700A4B1F70032000F0E6FE2B7803F0FC032B70237803F0FC032370304600F0DDFDF8BDF8460040F946004092580040F8B504460022C04B1A74012845
:400DC0005BD13822BE4B1A70052702331F70072201331A70002501331D7001331D702D2201331A7002331D7001331D7001331D7001260A331E70142203F527631A700133A3
:400E00001F70162201331A7001331D70442203331A70482201331A7001331E7002331E70112201331A70192201331A70972201331A705220FFF798FF5822A24B1A70013314
:400E40001D7005331F70022201331A7001331D7001331D70284600F061FC40F6CD429A4B1A600C20314600F07DFC3320314600F0FDFC1D20954900F07BFE022C5DD1382262
:400E80008F4B1A70042202331A70062201331A70002501331D7001331D703F2201331A7002331D7001331D7001331D7001260A331E70502203F527631A70272201331A7082
:400EC0002C2201331A7001331D70552203331A705A2201331A70052701331F7002331E70112201331A70192201331A70972201331A704420FFF738FF5822724B1A7001331B
:400F00001D7005331F70022201331A7001331D7001331D70284600F001FC4FF47A426A4B1A600820314600F01DFC2520314600F09DFC1D20664900F01BFE032C5DD13822D7
:400F40005F4B1A70042202331A70062201331A70002501331D7001331D703F2201331A7002331D7001331D7001331D7001260A331E70502203F527631A70272201331A70F1
:400F80002C2201331A7001331D70552203331A705A2201331A70052701331F7002331E70112201331A70192201331A70972201331A704420FFF7D8FE5822424B1A700133EB
:400FC0001D7005331F70022201331A7001331D7001331D70284600F0A1FB4FF47A423A4B1A600820314600F0BDFB2520314600F03DFC1D20374900F0BBFD042C5DD13822F8
:401000002F4B1A70042202331A70062201331A70002401331C7001331C703F2201331A7002331C7001331C7001331C7001250A331D70502203F527631A70272201331A7068
:401040002C2201331A7001331C70552203331A705A2201331A70052601331E7002331D70112201331A70192201331A70972201331A704420FFF778FE5822124B1A700133BE
:401080001C7005331E70022201331A7001331C7001331C70204600F041FB4FF47A420A4B1A600820294600F05DFB2520294600F0DDFB1D20084900F05BFDF8BDD081FF1FC7
:4010C000004E004094580040FC81FF1FF5120000F9120000FD120000011300002DE9F04182B0394D4FF0010885F80080374E00247474102000F024FB102000F0A5FB1D2055
:40110000072100F049FD0427314B1F7001331C7007331C702F4A137843F0180313702E4B1C7003F2F5231C7001331C700A22A3F209331A7001331C7002331C7012220533EE
:401140001A70132201331A7004331C701422A3F68C231A70CDF80080022048F66B5147F2E9720E23FFF798FD02230093204649F2DA014FF400421023FFF78EFD0323009350
:40118000204649F2DA014FF400421023FFF784FD0097204649F2DA014FF400421023FFF77BFD2B7806EB830313F8022C0B4B1A702B78013B36F82320094B1A802878FFF744
:4011C000F9FD02B0BDE8F0811481FF1FD081FF1F96580040075B0040935800400E4E00400C4E004070B500F0B7FB06462A4B1B782A4B1A7842F001021A701A7842F0100227
:401200001A7010331A7842F001021A701A7842F010021A70224D2B7843F002032B70214C237843F0020323701F4A137843F003031370032000F092FC2B7803F0FD032B70F6
:40124000237803F0FD032370184A137843F0060313707A22164B1A70164A137843F0010313701032137843F0010313700F3A137843F0010313701032137843F001031370D9
:401280004FF000530C4A1360A2F5C0721360304600F066FB70BD00BF1481FF1FAA430040F8460040F9460040915800407758004082580040A143004080E200E008B5084B3F
:4012C0009B7C4BB9064BDB7C13F0FF0F01D1FFF705FF0122024B9A74FFF784FF08BD00BFD081FF1F024A137843F0010313707047004E0040704700BF704700BF704700BF2C
:40130000704700BF08B50A280FD00C2802D0082806D102E04FF4805209E04FF4807206E0002000F003FC002201E04FF480620021094B198042F2107303FB02F303F6C413A2
:40134000064A82FB0302DB17C3EBE223044A1360044B198008BD00BF0A82FF1FAD8BDB680482FF1F0082FF1F10B500F0F5FA0446184A137843F0020313701032137843F0CA
:401380000203137002F5AA521032137843F0030313701822104B1A70013B1A7842F040021A701A7802F0FC021A70CE22053B1A700222A3F59753123B1A70084A137843F0EB
:4013C000080313700A2000F0C9FB204600F0C8FA10BD00BFAB4300400E5900402F5B004010B504460A280DD00C2802D0082804D101E0C22207E0422205E0002000F096FB7F
:40140000C22200E08222034B1A702046FFF77AFF10BD00BF0A59004008B5064A137843F0060313700C20FFF7DBFF0022024B1A8008BD00BF095900400882FF1F08B5054B31
:401440001B7823B9FFF7E8FF0122024B1A70FFF78BFF08BDE481FF1FF0B583B086460F4616461D460B4C03232370002200920192184671463A4600F0F9FA207831462A4658
:4014800000F0CEFA2078022100F0B8FA207803B0F0BD00BF1581FF1FF0B583B084468E4617461E460B4C022525700023009301932846614672462B4600F0D8FA2078394601
:4014C000324600F0ADFA2078294600F097FA207803B0F0BD1681FF1F014B1B685864704708ED00E04001C0B2014B1870704700BF01E400E008B50A280FD00C2802D00828CB
:4015000006D102E04FF4805209E04FF4807206E0002000F00BFB002201E04FF480620021094B198042F2107303FB02F303F6C413064A82FB0302DB17C3EBE223044A1360DB
:40154000044B198008BD00BF1082FF1FAD8BDB681482FF1F0C82FF1F10B500F0FDF90446184A137843F0010313701032137843F00103137002F5AA520832137843F0030360
:4015800013701822104B1A70013B1A7842F040021A701A7802F0FC021A70CE22053B1A700222A3F597530C3B1A70084A137843F0080313700A2000F0D1FA204600F0D0F9DE
:4015C00010BD00BFAB43004006590040275B004010B504460A280DD00C2802D0082804D101E0C22207E0422205E0002000F09EFAC22200E08222034B1A702046FFF77AFFF5
:4016000010BD00BF0259004008B5064A137843F0060313700C20FFF7DBFF0022024B1A8008BD00BF015900400E82FF1F08B5054B1B7823B9FFF7E8FF0122024B1A70FFF712
:401640008BFF08BDE581FF1FF0B583B086460F4616461D460B4C01232370002200920192184671463A4600F001FA207831462A4600F0D6F92078022100F0C0F9207803B01D
:40168000F0BD00BF1781FF1FF0B583B086460F4616461D460A4C0023237000930193184671463A4600F0E2F9207831462A4600F0B7F92078022100F0A1F9207803B0F0BD61
:4016C0001881FF1F014B1B681864704708ED00E04001C0B2014B1870704700BF00E400E0054A137843F0100313701032137843F010031370704700BFA243004010B50024DE
:4017000004E02046FEF7E4FF0134E4B2012CF8D9FF22014B1A7010BD1981FF1F10B50446FFF7ECFF2046FEF7C5FF014B1C7010BD1981FF1F014B188880B270478040004001
:40174000034B1A7800F0F80010431870704700BF82400040024B187800F00700704700BF8240004070B505460E46FFF7F3FF0446FFF7E0FF854256D02B4B1B7803F001024B
:4017800094B900B185B938B9284B1D80284A137803F0BF03137070BD254A137843F040031370224B1D8070BD22B3002321490B7001240F310C7004310B700C390B7803F037
:4017C0007F030B701A4B1B7813F0080F00D08DB9194B18800721013B1970164B1B7813F0010FFAD110490B7803F0FE030B700021104B19700C4B1B7813F0010F0DD00E4B86
:401800001D800EB1032200E001220A4B1A70094B1B7813F0010FFAD170BD044B1D8002490B7813430B7070BDA243004080400040824000400140004002400040014B188885
:4018400080B2704700410040034B1A7800F0F80010431870704700BF02410040024B187800F00700704700BF0241004070B505460E46FFF7F3FF0446FFF7E0FF854256D0DD
:401880002B4B1B7803F0010294B900B185B938B9284B1D80284A137803F0BF03137070BD254A137843F040031370224B1D8070BD22B3002321490B70012413310C70043961
:4018C0000B7008390B7803F07F030B701A4B1B7813F0080F00D08DB9194B18800721013B1970164B1B7813F0010FFAD110490B7803F0FE030B700021104B19700C4B1B789C
:4019000013F0010F0DD00E4B1D800EB1032200E001220A4B1A70094B1B7813F0010FFAD170BD044B1D8002490B7813430B7070BDA1430040004100400241004001400040A8
:4019400002400040000000000230800803D000BF01380046FCD17047EFF3108072B6704780F31088704700BF0B4A7F2313708021517007E0DA0002F1804202F5F042013B0D
:40198000DBB21370002BF5D1DB0003F1804303F5F04300221A7070471C81FF1F172815D831B103010A495A5C42F020025A5405E0030107495A5C02F0DF025A540001044A6F
:4019C000835C43F00103835400207047012070471070004017280CD80001074BC1180A7942F004020A71C25C42F00102C254002070470120704700BF1070004017280BD84D
:401A00000001064A835C03F0F10301F0070143EA4101815400207047012070471070004041F6FF73994201D14FF4005141F6FF739A4201D14FF40052172808D8C00000F13D
:401A4000804000F5EC408180C280002070470120704700BF172805D8034B03EB0010417200207047012070471070004017281BD810B4C00000F1804404F5EC44D201D2B25F
:401A800001F07F01114321709DF804201201D2B203F00F03134363709DF8083003F00F03A3700020E07001E0012070475DF8044B704700BF10B5FFF74FFF0A4B5B78182BB6
:401AC0000BD9084A1478013B5370E30003F1804303F5F0431B78137000E0FF24FFF740FF204610BD1C81FF1F10F0800F0CD111F4704F0BD1C00000F1804000F5F040018001
:401B00008270C37000207047012070470120704710F0800F08D1C00000F1804000F5F0408180C280002070470120704701BE704710B5044605E0084B1868FFF705FFA4F539
:401B40000044B4F5004FF6D8034B586800FB04F0FFF7FAFE10BD00BF2481FF1F08B5034B1B7A03FB00F0FFF7EFFE08BD2481FF1F70B504460E46074B1D681F2802D900204C
:401B8000FFF7D4FF04F01F04103455F8240045F8246070BD08ED00E038B504460D46072902D90020FFF7C2FF1F2C02D90020FFF7BDFF04F01F0000F1604000F564406D01BE
:401BC000EDB2057038BD00BF81F0004102E000BF83F0004330B54FEA41044FEA430594EA050F08BF90EA020F1FBF54EA000C55EA020C7FEA645C7FEA655C00F0E2804FEAF9
:401C00005454D4EB5555B8BF6D420CDD2C4480EA020281EA030382EA000083EA010180EA020281EA0303362D88BF30BD11F0004F4FEA01314FF4801C4CEA113102D040427E
:401C400061EB410113F0004F4FEA03334CEA133302D0524263EB430394EA050F00F0A780A4F10104D5F1200E0DDB02FA0EFC22FA05F2801841F1000103FA0EF2801843FACA
:401C800005F359410EE0A5F120050EF1200E012A03FA0EFC28BF4CF0020C43FA05F3C01851EBE37101F0004507D54FF0000EDCF1000C7EEB00006EEB0101B1F5801F1BD38D
:401CC000B1F5001F0CD349085FEA30004FEA3C0C04F101044FEA445212F5800F80F09A80BCF1004F08BF5FEA500C50F1000041EB045141EA050130BD5FEA4C0C404141EB76
:401D0000010111F4801FA4F10104E9D191F0000F04BF01460020B1FA81F308BF2033A3F10B03B3F120020CDA0C3208DD02F1140CC2F10C0201FA0CF021FA02F10CE002F18D
:401D40001402D8BFC2F1200C01FA02F120FA0CFCDCBF41EA0C019040E41AA2BF01EB0451294330BD6FEA04041F3C1CDA0C340EDC04F11404C4F1200220FA04F001FA02F36D
:401D800040EA030021FA04F345EA030130BDC4F10C04C4F1200220FA02F001FA04F340EA0300294630BD21FA04F0294630BD94F0000F83F4801306BF81F480110134013D5B
:401DC0004EE77FEA645C18BF7FEA655C29D094EA050F08BF90EA020F05D054EA000C04BF1946104630BD91EA030F1EBF0021002030BD5FEA545C05D14000494128BF41F0DA
:401E0000004130BD14F580043CBF01F5801130BD01F0004545F0FE4141F470014FF0000030BD7FEA645C1ABF194610467FEA655C1CBF0B46024650EA013406BF52EA0335FF
:401E400091EA030F41F4002130BD00BF90F0000F04BF0021704730B54FF4806404F132044FF000054FF0000150E700BF90F0000F04BF0021704730B54FF4806404F1320497
:401E800010F0004548BF40424FF000013EE700BF42004FEAE2014FEA31014FEA02701FBF12F07F4393F07F4F81F06051704792F0000F14BF93F07F4F704730B54FF4607488
:401EC00001F0004521F0004120E700BF50EA010208BF704730B54FF000050AE050EA010208BF704730B511F0004502D5404261EB41014FF4806404F132045FEA915C3FF43E
:401F0000DCAE4FF003025FEADC0C18BF03325FEADC0C18BF033202EBDC02C2F1200300FA03FC20FA02F001FA03FE40EA0E0021FA02F11444C1E600BF70B54FF0FF0C4CF404
:401F4000E06C1CEA11541DBF1CEA135594EA0C0F95EA0C0F00F0DEF82C4481EA030621EA4C5123EA4C5350EA013518BF52EA033541F4801143F4801338D0A0FB02CE4FF032
:401F80000005E1FB02E506F00042E0FB03E54FF00006E1FB03569CF0000F18BF4EF0010EA4F1FF04B6F5007F64F5407404D25FEA4E0E6D4146EB060642EAC62141EA55510C
:401FC0004FEAC52040EA5E504FEACE2EB4F1FD0C88BFBCF5E06F1ED8BEF1004F08BF5FEA500E50F1000041EB045170BD06F0004646EA010140EA020081EA0301B4EB5C0468
:40200000C2BFD4EB0C0541EA045170BD41F480114FF0000E013C00F3AB8014F1360FDEBF002001F0004170BDC4F10004203C35DA0C341BDC04F11404C4F1200500FA05F39A
:4020400020FA04F001FA05F240EA020001F0004221F0004110EBD37021FA04F642EB06015EEA430E08BF20EAD37070BDC4F10C04C4F1200500FA04F320FA05F001FA04F2BE
:4020800040EA020001F0004110EBD37041F100015EEA430E08BF20EAD37070BDC4F1200500FA05F24EEA020E20FA04F301FA05F243EA020321FA04F001F0004121FA04F2DD
:4020C00020EA020000EBD3705EEA430E08BF20EAD37070BD94F0000F0FD101F00046400041EB010111F4801F08BF013CF7D041EA060195F0000F18BF704703F00046520066
:4021000043EB030313F4801F08BF013DF7D043EA0603704794EA0C0F0CEA135518BF95EA0C0F0CD050EA410618BF52EA4306D1D181EA030101F000414FF0000070BD50EA02
:40214000410606BF1046194652EA430619D094EA0C0F02D150EA013613D195EA0C0F05D152EA03361CBF104619460AD181EA030101F0004141F0FE4141F470014FF0000029
:4021800070BD41F0FE4141F4780170BD70B54FF0FF0C4CF4E06C1CEA11541DBF1CEA135594EA0C0F95EA0C0F00F0A7F8A4EB050481EA030E52EA03354FEA013100F088804A
:4021C0004FEA03334FF0805545EA131343EA12634FEA022245EA111545EA10654FEA00260EF000419D4208BF964244F1FD0404F5407402D25B084FEA3202B61A65EB030544
:402200005B084FEA32024FF480104FF4002CB6EB020E75EB030E22BFB61A754640EA0C005B084FEA3202B6EB020E75EB030E22BFB61A754640EA5C005B084FEA3202B6EB73
:40224000020E75EB030E22BFB61A754640EA9C005B084FEA3202B6EB020E75EB030E22BFB61A754640EADC0055EA060E18D04FEA051545EA16754FEA06164FEAC30343EA7E
:4022800052734FEAC2025FEA1C1CC0D111F4801F0BD141EA00014FF000004FF0004CB6E711F4801F04BF01430020B4F1FD0C88BFBCF5E06F3FF6AFAEB5EB030C04BFB6EBD2
:4022C000020C5FEA500C50F1000041EB045170BD0EF0004E4EEA113114EB5C04C2BFD4EB0C0541EA045170BD41F480114FF0000E013C90E645EA060E8DE60CEA135594EAC1
:402300000C0F08BF95EA0C0F3FF43BAF94EA0C0F0AD150EA01347FF434AF95EA0C0F7FF425AF104619462CE795EA0C0F06D152EA03353FF4FDAE1046194622E750EA410620
:4023400018BF52EA43067FF4C5AE50EA41047FF40DAF52EA43057FF4EBAE12E74FF0FF3C06E000BF4FF0010C02E000BF4FF0010C4DF804CD4FEA410C7FEA6C5C4FEA430C37
:4023800018BF7FEA6C5C1BD001B050EA410C0CBF52EA430C91EA030F02BF90EA020F0020704710F1000F91EA030F58BF994208BF90422CBFD8176FEAE37040F00100704756
:4023C0004FEA410C7FEA6C5C02D150EA013C07D14FEA430C7FEA6C5CD6D152EA033CD3D05DF8040B704700BF8446104662468C461946634600E000BF01B5FFF7B7FF0028E1
:4024000048BF10F1000F01BD4DF808EDFFF7F4FF0CBF012000205DF808FB00BF4DF808EDFFF7EAFF34BF012000205DF808FB00BF4DF808EDFFF7E0FF94BF012000205DF825
:4024400008FB00BF4DF808EDFFF7CEFF94BF012000205DF808FB00BF4DF808EDFFF7C4FF34BF012000205DF808FB00BF4FEA410212F5001215D211D56FF47873B3EB6252B2
:4024800012D94FEAC12343F0004343EA505311F0004F23FA02F018BF404270474FF00000704750EA013005D111F0004008BF6FF0004070474FF00000704700BF80F0004065
:4024C00002E000BF81F0004142001FBF5FEA410392EA030F7FEA226C7FEA236C6AD04FEA1262D2EB1363C1BFD218414048404140B8BF5B42192B88BF704710F0004F40F478
:40250000000020F07F4018BF404211F0004F41F4000121F07F4118BF494292EA030F3FD0A2F1010241FA03FC10EB0C00C3F1200301FA03F100F0004302D5494260EB400060
:40254000B0F5000F13D3B0F1807F06D340084FEA310102F10102FE2A51D2B1F1004F40EBC25008BF20F0010040EA03007047490040EB000010F4000FA2F10102EDD1B0FAE5
:4025800080FCACF1080CB2EB0C0200FA0CF0AABF00EBC25052421843BCBFD0401843704792F0000F81F4000106BF80F400000132013BB5E74FEA41037FEA226C18BF7FEA5C
:4025C000236C21D092EA030F04D092F0000F08BF0846704790EA010F1CBF0020704712F07F4F04D1400028BF40F00040704712F100723CBF00F50000704700F0004343F0EB
:40260000FE4040F4000070477FEA226216BF08467FEA23630146420206BF5FEA412390EA010F40F4800070474FF0000304E000BF10F0004348BF40425FEA000C08BF7047FC
:4026400043F0964301464FF000001CE050EA010208BF70474FF000030AE000BF50EA010208BF704711F0004302D5404261EB41015FEA010C02BF84460146002043F0B643CC
:4026800008BFA3F18053A3F50003BCFA8CF2083AA3EBC25310DB01FA02FC634400FA02FCC2F12002BCF1004F20FA02F243EB020008BF20F00100704702F1200201FA02FC09
:4026C000C2F1200250EA4C0021FA02F243EB020008BF20EADC7070474FF0FF0C1CEAD0521EBF1CEAD15392EA0C0F93EA0C0F6FD01A4480EA010C400218BF5FEA41211ED0FE
:402700004FF0006343EA501043EA5111A0FB01310CF00040B1F5000F3EBF490041EAD3715B0040EA010062F17F02FD2A1DD8B3F1004F40EBC25008BF20F00100704790F0B3
:40274000000F0CF0004C08BF49024CEA502040EA51207F3AC2BFD2F1FF0340EAC250704740F400004FF00003013A5DDC12F1190FDCBF00F000407047C2F10002410021FA15
:4027800002F1C2F1200200FA02FC5FEA310040F1000053EA4C0308BF20EADC70704792F0000F00F0004C02BF400010F4000F013AF9D040EA0C0093F0000F01F0004C02BFA3
:4027C000490011F4000F013BF9D041EA0C018FE70CEAD15392EA0C0F18BF93EA0C0F0AD030F0004C18BF31F0004CD8D180EA010000F00040704790F0000F17BF90F0004FF0
:40280000084691F0000F91F0004F14D092EA0C0F01D142020FD193EA0C0F03D14B0218BF084608D180EA010000F0004040F0FE4040F40000704740F0FE4040F44000704735
:402840004FF0FF0C1CEAD0521EBF1CEAD15392EA0C0F93EA0C0F69D0A2EB030280EA010C49024FEA402037D04FF0805343EA111143EA10130CF000408B4238BF5B0042F144
:402880007D024FF4000C8B4224BF5B1A40EA0C00B3EB510F24BFA3EB510340EA5C00B3EB910F24BFA3EB910340EA9C00B3EBD10F24BFA3EBD10340EADC001B0118BF5FEA98
:4028C0001C1CE0D1FD2A3FF650AF8B4240EBC25008BF20F0010070470CF0004C4CEA50207F32C2BFD2F1FF0340EAC250704740F400004FF00003013A37E792F0000F00F0D3
:40290000004C02BF400010F4000F013AF9D040EA0C0093F0000F01F0004C02BF490011F4000F013BF9D041EA0C0195E70CEAD15392EA0C0F08D142027FF47DAF93EA0C0F52
:402940007FF470AF084676E793EA0C0F04D14B023FF44CAF08466EE730F0004C18BF31F0004CCAD130F000427FF45CAF31F000437FF43CAF5FE700BF4FF0FF3C06E000BF7E
:402980004FF0010C02E000BF4FF0010C4DF804CD4FEA40024FEA41037FEA226C18BF7FEA236C11D001B052EA530C18BF90EA010F58BFB2EB030088BFC81738BF6FEAE170FE
:4029C00018BF40F0010070477FEA226C02D15FEA402C05D17FEA236CE4D15FEA412CE1D05DF8040B704700BF844608466146FFE70FB5FFF7C9FF002848BF10F1000F0FBDA3
:402A00004DF808EDFFF7F4FF0CBF012000205DF808FB00BF4DF808EDFFF7EAFF34BF012000205DF808FB00BF4DF808EDFFF7E0FF94BF012000205DF808FB00BF4DF808EDF8
:402A4000FFF7D2FF94BF012000205DF808FB00BF4DF808EDFFF7C8FF34BF012000205DF808FB00BF014B1868704700BF9481FF1F0E4B70B51E460E4C0025E41AA410A54233
:402A800004D056F8253098470135F8E700F070F9084B094C1E46E41AA4100025A54204D056F8253098470135F8E770BD7C2D00007C2D00007C2D0000842D0000024B0146B0
:402AC000186800F017B800BF9481FF1F10B5431E0A44914204D011F8014B03F8014FF8E710BD03460244934202D003F8011BFAE77047000070B5CC1C24F0030408340C2CBD
:402B000038BF0C24002C064603DA0C233360002070BD8C42F9D3204A136810461946A1B10A68121B0ED40B2A03D90A608B188C501FE08B420BBF5A684A6802605A6018BF0C
:402B40000B4616E00B464968E9E7144D2B681BB9304600F087F828603046214600F082F8421C0346D1D0C51C25F0030585420AD11C6003F10B001A1D20F00700821A0AD099
:402B80005142995070BD3046E91A00F06BF80130BBD02B46ECE770BDEC81FF1FE881FF1F38B5124B05461C68A36BD3B91820FFF785FF43F20E33A06303804AF6CD334380FD
:402BC00041F2342383804EF26D63C3804DF6EC630381052343810B23838101220023C0E90423A36B00221D615A6138BD9481FF1F194B10B51C68A36BD3B91820FFF75EFF48
:402C000043F20E33A06303804AF6CD33438041F2342383804EF26D63C3804DF6EC630381052343810B23838101220023C0E90423A16B0A4C0B6948695C43094A02FB0040B5
:402C4000A3FB02230132034443F10003C1E9042323F0004010BD00BF9481FF1F2DF451582D7F954C38B5064C0023054608462360FDF7A2FB431C02D1236803B12B6038BDA6
:402C80001882FF1F13B5084B044669461868002200F00CF8002803DB00981CB1206001E04FF0FF3002B010BD9481FF1F38B5074C0023054608461146236000F009F8431CA0
:402CC00002D1236803B12B6038BD00BF1882FF1F024B58221A604FF0FF3070471882FF1F000000005450533000000000545053310000000041505330000000004150533135
:402D0000000000004252414B000000004552525200000000035B00402443004040000000004F00401800005100401000305100404000000001400010001401400004801828
:402D40000140800300400140000A004C01400002105001401000000000180140D40A0048800000500140540B0048100043000000F8B500BFF8BC08BC9E4670474D0000006E
:402D800035040000F8B500BFF8BC08BC9E46704729000000A82D00000881FF1F900000008800000000000000000000002082FF1FFFFFFFFF01FFFFFFFFFF00007F800000E7
:402DC0000F0000000000E02EC05D00001800000000366E0100000000000000000000000000000000000000000000000000000000000000006C2D0000000000000000000043
:402E0000000000000000000000000000000000000000000000000000000000000000000000000000000000000000000000000000000000003481FF1F0000000000000000BF
:402E40000000000000000000000000000000000000000000000000000000000000000000000000000000000000000000000000000000000000000000000000000000000052
:402E80000000000000000000000000000000000000000000000000000000000000000000000000000000000000000000000000000000000000000000000000000000000012
:402EC00000000000000000000000000000000000000000000000000000000000000000000000000000000000000000000000000000000000000000000000000000000000D2
:402F00000000000000000000000000000000000000000000000000000000000000000000000000000000000000000000000000000000000000000000000000000000000091
:020000040003F7
:0200000480007A
:40000000044F004007520040025B0040026400400365004025000140300101402E0201404E0301401A040140410501402E060140450701402D0801403A0901401F0A014082
:400040003E0B0140240C01403B0D01400C0E0140280F0140231401404615014021160140461701400418014048190140341A01404B1B01400E400140054101400142014030
:4000800002430140044401400B450140104601400D47014010480140134C0140084D0140035001400251014001300A360D50163608400940100111036180644078202784E5
:4000C0002F848401880F843887018B7201020501060209100B200F02118013401520171019081A011D0422042304270129402B802F083002320135FF36043F10540158045A
:4001000059045B0C5C025D105F019701B301D804D904DC22DF0100400220030804A009060A020B080F8A10801110120115101702184019041A021BCD2110242025042808CC
:4001400029052B412F8830A032203305370638A03A0A3B083D183E803F025840798084408A028B01C0C7C2DFC45BCAAFCCCFCEFFD608DE08E2405401580459045B0C5C2276
:400180005D205F01800481018201842087048B408D08911096309701980A9A059B209C079E089F10A308A602A702A80FA904AC01AD20B020B210B303B40CB603B77CB98050
:4001C000BF40D207D306D80CD904DB04DC91DD10DF0100020108042005010601070209080A060C0111141380140816501710190A1A0621082280230228212A122B052C404C
:400200002D032F0230A0310933023401350436803710388039213A483B403D083F405C805E406804699479807D40802084818B018D0190A0912092089580980899059C40DE
:400240009E0B9F07A104A305A4A0A850A902AA80B008B110B204C0DCC217C477CA1FCCFFCE5FD610DE18E040E60CE804EA010401050119011A041E022C0130023101320125
:400280003404380839023E043F015602573D580459045B0C5C215D205F01D804D904DC11DF0100480318044005180610072009850A040F061040121A144015081840190607
:4002C0001B20210229012B042F2830013294350A38A83C203D0A3F065A20610268A06B05720A7340794082028440872090A09180920895409640980199019E0A9F85A0049D
:40030000A2C0A304A4A0AE01B240B706C0E7C2CFC43FCA65CCCFCEEED604D801DE08E201E820EC025608580459045B045C115D905F01800482018310842087408B048C0A85
:400340008E058F0190019101940F951098079A089B209E309F08A108A504A602A920AF02B020B103B210B37CB403B60CB908BF04D207D306D80CD904DB04DC92DD20DF01FB
:4003800001880380051209100A2A0B400D0811041508168619891A48206021042209280129122A042B282E802F283010318935023608386839013D023E023F045E80640193
:4003C00069446A207940811083808680872089088B049180934095489664970499069B109D109FA0A240A320A410A581A608A708A804C05DC22FC4F4CA7FCCCFCECFD6106B
:40040000D810DE08E003E604EE0102200301042A061409010E2814401B011C031D011E04200322342403261C27012E15303831013440360F3A8A3E103F01540158045904B5
:400440005B045C145D405F018003840390039803A203A403AC01AE02B002B201D804D904DC11DF010002010805400680071009020B080F2211011222144116201820190185
:400480001C401D081EE9278029082A022C202E022F063222344035083641371039213B083D803E243F025D105E085F8281018540860289128A25946096019A809F10A0A0DE
:4004C000A311C0BCC2AAC4BDCAF3CCF5CEF7D6F0E005E420E604EE01580459045C225F0184028C039A019C03B003B802BE01C053C104C5C0C6EBC80EC9FFCAFFCBFFCEF005
:40050000CF44D00CD804D904DA04DC22DD04DF01E6C0EA40EB02010802C0030404400648071108010B080C320E010F1010021210140517041D02280429092A082C062F1429
:4005400030023280330434013501368137043A103B303E08441047014E014F02548057105A038010930899089A909B049C04A022A281A502B402B510B681C0FEC2FAC4E59E
:40058000CA77CCDBCE44D0C0D210E004E201E850EC024004460449FF4A074BFF4C404D204EF04F0550085608580459045A045B045C225D945F01604061A862406320810399
:4005C0008903910395039D03A901AB02AF03B102B301D804D904DC22DF01010803040510061208060C0610021290140217042010234028062C822D082F0430023280330468
:40060000368137043A124502542056805D40670280108301874089088A028C028D408E0193089A109B049D189E03A080A681A880AA08AB14B304C0E6C23CC4ADCAFCCCDBB0
:40064000CE05D080D610D810E0C0E443E608EA80580459045C225F0183019A01B201B501D804D904DC22DF01010A030405100612071009080D080E020F041289154016010E
:4006800017041D0C1F04270429052C802D082F0430803110330435033681370439403A023D403F028B05C0EEC2E4C4ABCAE3CCDECE99E080E240E4200208040707010804E1
:4006C0000A020B020E101002120518201E102001220226082C072F0430073101322033043408361037023E545418580459045B045C145D405F01D804D904DC11DF0102247F
:400700000381044005200680074008A00A400D080F02109011401440150819511A502040210822C9284029202A402B102D202E802F203108320133603440368839143C40A3
:400740003F205902615079087B1080808140889089028E30911C94409680982099209A449B419D01A3A1A508AA04AB80AF01B321B440B511C0DFC2ABC43DCA7FCC5FCE36F3
:40078000D601D80CE605EA03EE04580459045C115F018202860188408A808E08901092209301960498019C02A004A408A820AA10AC80AE40B301B4FFB802BE11D602D73940
:4007C000D804D904DB0CDC10DD10DF010060012203600440050209890AC40B600D080F421012111512401508172018081B022020232029222B202E402F1030023108324070
:4008000035023608384039083C603F025B1061046802691570107180720473807980850287028C208E40918894289501960499069B109C109D109FA0A208A320A589B01056
:40084000C09FC2BFC46FCA57CCCBCEBAD604D802DE08E00BE408E812D804D904DC11DF010002010804280540068809420B090C800E48110112601401162017111C201D4059
:400880001E082401275029082A022C402DA02E08322034013540371039203A403B093C013D0C3EA03F02452847404C024E804F24840186028E2591219240970898419AA032
:4008C0009D489E029F10A080A14AA210A401A621AB12B021B111B303C0FCC2DBC4FCCAF3CCB4CEFFD070D230E01BE240E812EC80580459045C115F01800F82F0840C850809
:4009000088048C418D398F4292F3930694FF9539974498F3997F9A0C9C829F01A008A110A4C3A567A718A81CA918AAE3AD01AF80B02CB180B21CB320B40FB51FB6C0B7403A
:40094000B980BA22BB20BF04D602D712D804D904DB04DC44DD40DF010002010A0581062409020B080C030D200E200F0211C11220144815041D651E401F1026042746290AA6
:400980002CC02D802E202F103102322034093610374439413B083E485E08610463206C146F217480762C8104832089C08B028C048D2091059308942899089DA09F01A0030E
:4009C000A142A230A301A520A710A801AA80AF04B012B304B50CC0FCC2FAC47DCAF3CCF5CE5BD640E2B0E410E680E8C0EC4011441688301036103B023E88400886108F0142
:400A0000C4F0CC30CEE0D010E61084188D4091449C18E650B1041810C6107D018F04DE01E2022380510155018101850187809501A704C802D401D6041B04250145085208D3
:400A4000562082088380934095019B80A784AF40C608C801D001D40641024780810282208304934095019E20A304A508A780A901D006208027216780680283208442874052
:400A80009F01AF01B410C8E0D880DA40E0C0E210E8401F8036023B4064808380850186029340950198809F80A780AD08B480C601CC01CE08D801E8081080798088808D40C6
:400AC000C408DC01E408E60110121A121C12000F10AA0000102000508000008080010006090010082C00110300000000000C03031400000C8001000E30300C001C30220032
:400B00004010006000C0800F1F00603080000008000000012503060001EC000003FFFFFF62A0F0410C0000000000000004040400440400010000000000004002001030103D
:400B40000010101200000000000000000000000000000000160100000000000006010601160014018000408080008000000000003030000000303000004040004000000033
:400B800003030000000307003300180100010000000200000003000000000000000000000000000000000000000000000000000000000000000000000000000000000000D3
:400BC00000000000000000000000000000000000000000000000000000000000000000000000000000000000000000000000000000000000000000000000000000000000F5
:400C000000000000000000000000000000000000000000000000000000000000000000000000000000000000000000000000000000000000000000000000000000000000B4
:400C40000000000000000000000000000000000000000000000000000000000000000000000000000000000000000000000000000000000000000000000000000000000074
:400C80000000000000000000000000000000000000000000000000000000000000000000000000000000000000000000000000000000000000000000000000000000000034
:0200000490006A
:0400000000004005B7
:0200000490105A
:04000000BC90ACAF55
:0200000490303A
:02000000495D58
:0200000490402A
:4000000000000000000000000000000000000000000000000000000000000000000000000000000000000000000000000000000000000000000000000000000000000000C0
:400040000000000000000000000000000000000000000000000000000000000000000000000000000000000000000000000000000000000000000000000000000000000080
:400080000000000000000000000000000000000000000000000000000000000000000000000000000000000000000000000000000000000000000000000000000000000040
:4000C0000000000000000000000000000000000000000000000000000000000000000000000000000000000000000000000000000000000000000000000000000000000000
:0200000490501A
:0C00000000012E16106900012E2A59C6BE
:00000001FF