:400000000080002011000000CD010000CD01000008B5044B1A6803F53F5302331A6000F0D7F800BFFA46004010B5054C237833B9044B13B10448AFF300800123237010BD0C
:400040002881FF1F00000000400B0000084B10B51BB108480849AFF300800848036803B910BD074B002BFBD0BDE81040184700BF00000000400B00002C81FF1F0881FF1F6B
:400080000000000030B58BB009AB009308AB019307AB029306AB039305AB0493002307E00AAA02EB830252F8282C002111600133042BF5DD002411E00AAB03EB840353F89E
:4000C000285C28684FF07C5100F05CFB2860104900F0CCFC08B100232B600134042CEBDD0320099900F038F80420089900F034F80520079900F030F80620069900F02CF8F0
:400100000220059900F028F8322000F0ABFAD1E70000C84208B500F0F5FAFFF7B3FF00BF10B50446C0B200F0FBFAC4F3072000F0F7FAC4F3074000F0F3FA200E00F0F0FA3B
:4001400010BD00BF10B5002403E0FF2000F0E8FA0134032CF9DD10BD38B504460D46FFF7F1FFA01E042818D8DFE800F01303070B0F00104800F0E0FA12E00F4800F0DCFAC6
:400180000EE00E4800F0D8FA0AE00D4800F0D4FA06E00C4800F0D0FA02E00B4800F0CCFA284600F06DFC642303FB00F0FFF7B8FF38BD00BF440B00004C0B0000540B0000BB
:4001C0005C0B0000640B00006C0B0000FEE700BF08B5104E104D16E029686B68AC68002204E051F8040B43F8040B0432A242F8D1E868002203E0002143F8041B04328242D3
:40020000F9D11035013E002EE6D100F05FFCFFF781FFFEE701000000F00B000008B5134A134B1A60134A136843F40073136000230AE0032B03D8104A52F8231000E00F49DD
:400240000F4A42F8231001332F2BF2D90D4B1A780D4B1A700A4A0D4B1A6000F01FF900F0E7F900220A4B1A6008BD00BF0004FA050CED00E014ED00E000000000CD01000095
:400280000080FF1FBC7600400481FF1F08ED00E00081FF1FFEE700BFF0B40022174611E050F82760F3B226F0FF0608E001EB420511F812406D78A5550132013BDBB2002B54
:4002C000F4D10137292FEBD9F0BC704708B50A46002100F02CFC08BDF8B51E4B1B78DBB21D4E3478E4B21D4F3D78EDB203F007011B4A11701B090132137044F0030333703C
:4003000045F003033B7040F20342164B1A803022D1331A704023144A13700232137006321370023213700422104B1A70212223331A7003230E4A13702021033211702D3293
:4003400013700A2000F0A4F93D7034704422094B1A70F8BDCF010049F8460040F94600406E5800402C51004001590040005B0040285B00407658004008B500F0CDFB08BDE0
:4003800038B50024384B1C80502202331A700E2202331A80182335490B7002310A80344A1370172102321180023213701925023215800232137040F2ED2102321180023240
:4003C00013702C482C490422FFF7D6FF02222B4B1A7008224FF040231A70032103F500731970274B1B78DBB226490B70264B1A8041F25122023B1A800CE0244B1B7803F029
:40040000010343EA440404F003044FF4F07000F0FFF8013D0DB1032CEFD115B90320FFF739FF1B4B4FF480721A8007221A70002218490A704820023108701A700222033BD0
:400440001A7004220A331A70134A137843F03F031370013A137843F001031370013A137843F08003137038BD80400040864000408A40004000410040880B004800430040C2
:4004800008010049A146004022420040254200400440004006400040A243004038B572B6424A137843F00403137000240AE0404963001A1952000A44D068118AFFF706FFC5
:4004C0000134E4B2082CF2D9002410E03849A3001A1952000A4452F8440F23445B000B445168B3F84C20FFF747FF0134E4B2012CECD94FF090402F49FFF7CEFE0A252E4BBF
:400500001D702E480421FFF7E1FE2D482D490422FFF732FF2C482D490422FFF72DFF2C482C490422FFF728FF2B4A137843F0020313701032137843F002031370274C2378D7
:4005400043F040032370A2F58632513A137843F010031370224823492A46FFF70DFF224822490822FFF708FF214822490822FFF703FF214821490822FFF7FEFE204A137826
:4005800043F0080313701F4D61232B70FFF7F8FE81232B7001221C4B1A70FFF79DFE1B4821460E22FFF7E8FE38BD00BFE8460040740B0000A80000488358004000760040E7
:4005C000087600408C0B004810760040900B004818760040940B004803500140A0430040C0510040640B0048F2510040700B004812510040780B004822510040800B004807
:40060000224300400048004004000840B04300400230800803D000BF01380046FCD17047EFF3108072B6704780F31088704700BF0B4A7F2313708021517007E0DA0002F15D
:40064000804202F5F042013BDBB21370002BF5D1DB0003F1804303F5F04300221A7070470C81FF1F10B5044605E0084B1868FFF7CFFFA4F50044B4F5004FF6D8034B58684B
:4006800000FB04F0FFF7C4FF10BD00BF1481FF1F08B5034B1B7A03FB00F0FFF7B9FF08BD1481FF1F7222084B1A702022073B1A700622A3F5AC731A70472210331A7000225F
:4006C0004C331A70704700BF8B65004010B5FFF7A7FF04460A4A137843F020031370073A137843F010031370FC3A137843F01003137000F033F82046FFF796FF10BD00BF31
:400700009B65004008B5054B1B7823B9FFF7CAFF0122024B1A70FFF7D9FF08BD4481FF1F034B1B7813F0040FFAD1024B18707047686400404B64004038B5074B1B782BB9CF
:4007400038BDFFF7EDFF0134A4B201E005460024285D0028F5D138BD4481FF1F054A137843F0100313701032137843F010031370704700BFA243004080F0004002E000BF57
:4007800081F0004142001FBF5FEA410392EA030F7FEA226C7FEA236C6AD04FEA1262D2EB1363C1BFD218414048404140B8BF5B42192B88BF704710F0004F40F4000020F066
:4007C0007F4018BF404211F0004F41F4000121F07F4118BF494292EA030F3FD0A2F1010241FA03FC10EB0C00C3F1200301FA03F100F0004302D5494260EB4000B0F5000F1A
:4008000013D3B0F1807F06D340084FEA310102F10102FE2A51D2B1F1004F40EBC25008BF20F0010040EA03007047490040EB000010F4000FA2F10102EDD1B0FA80FCACF1DD
:40084000080CB2EB0C0200FA0CF0AABF00EBC25052421843BCBFD0401843704792F0000F81F4000106BF80F400000132013BB5E74FEA41037FEA226C18BF7FEA236C21D052
:4008800092EA030F04D092F0000F08BF0846704790EA010F1CBF0020704712F07F4F04D1400028BF40F00040704712F100723CBF00F50000704700F0004343F0FE4040F456
:4008C000000070477FEA226216BF08467FEA23630146420206BF5FEA412390EA010F40F4800070474FF0000304E000BF10F0004348BF40425FEA000C08BF704743F09643C0
:4009000001464FF000001CE050EA010208BF70474FF000030AE000BF50EA010208BF704711F0004302D5404261EB41015FEA010C02BF84460146002043F0B64308BFA3F1DA
:400940008053A3F50003BCFA8CF2083AA3EBC25310DB01FA02FC634400FA02FCC2F12002BCF1004F20FA02F243EB020008BF20F00100704702F1200201FA02FCC2F12002EC
:4009800050EA4C0021FA02F243EB020008BF20EADC7070474FF0FF3C06E000BF4FF0010C02E000BF4FF0010C4DF804CD4FEA40024FEA41037FEA226C18BF7FEA236C11D091
:4009C00001B052EA530C18BF90EA010F58BFB2EB030088BFC81738BF6FEAE17018BF40F0010070477FEA226C02D15FEA402C05D17FEA236CE4D15FEA412CE1D05DF8040B40
:400A0000704700BF844608466146FFE70FB5FFF7C9FF002848BF10F1000F0FBD4DF808EDFFF7F4FF0CBF012000205DF808FB00BF4DF808EDFFF7EAFF34BF012000205DF826
:400A400008FB00BF4DF808EDFFF7E0FF94BF012000205DF808FB00BF4DF808EDFFF7D2FF94BF012000205DF808FB00BF4DF808EDFFF7C8FF34BF012000205DF808FB00BF0C
:400A80004FEA4002B2F1FE4F0FD34FF09E03B3EB12620DD94FEA002343F0004310F0004F23FA02F018BF404270474FF00000704712F1610F01D1420205D110F0004008BF75
:400AC0006FF0004070474FF0000070470E4B70B51E460E4C0025E41AA410A54204D056F8253098470135F8E700F070F8084B094C1E46E41AA4100025A54204D056F82530AC
:400B000098470135F8E770BDD80B0000D80B0000D80B0000E00B000010B5431E0A44914204D011F8014B03F8014FF8E710BD03460244934202D003F8011BFAE770470000B4
:400B40000000000054505330000000005450533100000000415053300000000041505331000000004252414B000000004552525200000000035B004024430040400000001D
:400B8000004F0040180000510040100030510040400000000140001000140140000480180140800300400140000A004C01400002105001401000000000180140D40A00489C
:400BC000800000500140540B00481000F8B500BFF8BC08BC9E4670474D0000001D020000F8B500BFF8BC08BC9E46704729000000000C00000881FF1F2000000020000000A7
:400C0000000000007F8000000F0000000000E02EC05D00001800000000366E01000000000000000000000000000000000000000000000000000000000000000000000000BE
:400C40000000000000000000000000000000000000000000000000000000000000000000000000000000000000000000000000000000000000000000000000000000000074
:400C80000000000000000000000000000000000000000000000000000000000000000000000000000000000000000000000000000000000000000000000000000000000034
:400CC00000000000000000000000000000000000000000000000000000000000000000000000000000000000000000000000000000000000000000000000000000000000F4
:400D000000000000000000000000000000000000000000000000000000000000000000000000000000000000000000000000000000000000000000000000000000000000B3
:020000040003F7
:0200000480007A
:40000000044F004007520040025B0040026400400365004025000140300101402E0201404E0301401A040140410501402E060140450701402D0801403A0901401F0A014082
:400040003E0B0140240C01403B0D01400C0E0140280F0140231401404615014021160140461701400418014048190140341A01404B1B01400E400140054101400142014030
:4000800002430140044401400B450140104601400D47014010480140134C0140084D0140035001400251014001300A360D50163608400940100111036180644078202784E5
:4000C0002F848401880F843887018B7201020501060209100B200F02118013401520171019081A011D0422042304270129402B802F083002320135FF36043F10540158045A
:4001000059045B0C5C025D105F019701B301D804D904DC22DF0100400220030804A009060A020B080F8A10801110120115101702184019041A021BCD2110242025042808CC
:4001400029052B412F8830A032203305370638A03A0A3B083D183E803F025840798084408A028B01C0C7C2DFC45BCAAFCCCFCEFFD608DE08E2405401580459045B0C5C2276
:400180005D205F01800481018201842087048B408D08911096309701980A9A059B209C079E089F10A308A602A702A80FA904AC01AD20B020B210B303B40CB603B77CB98050
:4001C000BF40D207D306D80CD904DB04DC91DD10DF0100020108042005010601070209080A060C0111141380140816501710190A1A0621082280230228212A122B052C404C
:400200002D032F0230A0310933023401350436803710388039213A483B403D083F405C805E406804699479807D40802084818B018D0190A0912092089580980899059C40DE
:400240009E0B9F07A104A305A4A0A850A902AA80B008B110B204C0DCC217C477CA1FCCFFCE5FD610DE18E040E60CE804EA010401050119011A041E022C0130023101320125
:400280003404380839023E043F015602573D580459045B0C5C215D205F01D804D904DC11DF0100480318044005180610072009850A040F061040121A144015081840190607
:4002C0001B20210229012B042F2830013294350A38A83C203D0A3F065A20610268A06B05720A7340794082028440872090A09180920895409640980199019E0A9F85A0049D
:40030000A2C0A304A4A0AE01B240B706C0E7C2CFC43FCA65CCCFCEEED604D801DE08E201E820EC025608580459045B045C115D905F01800482018310842087408B048C0A85
:400340008E058F0190019101940F951098079A089B209E309F08A108A504A602A920AF02B020B103B210B37CB403B60CB908BF04D207D306D80CD904DB04DC92DD20DF01FB
:4003800001880380051209100A2A0B400D0811041508168619891A48206021042209280129122A042B282E802F283010318935023608386839013D023E023F045E80640193
:4003C00069446A207940811083808680872089088B049180934095489664970499069B109D109FA0A240A320A410A581A608A708A804C05DC22FC4F4CA7FCCCFCECFD6106B
:40040000D810DE08E003E604EE0102200301042A061409010E2814401B011C031D011E04200322342403261C27012E15303831013440360F3A8A3E103F01540158045904B5
:400440005B045C145D405F018003840390039803A203A403AC01AE02B002B201D804D904DC11DF010002010805400680071009020B080F2211011222144116201820190185
:400480001C401D081EE9278029082A022C202E022F063222344035083641371039213B083D803E243F025D105E085F8281018540860289128A25946096019A809F10A0A0DE
:4004C000A311C0BCC2AAC4BDCAF3CCF5CEF7D6F0E005E420E604EE01580459045C225F0184028C039A019C03B003B802BE01C053C104C5C0C6EBC80EC9FFCAFFCBFFCEF005
:40050000CF44D00CD804D904DA04DC22DD04DF01E6C0EA40EB02010802C0030404400648071108010B080C320E010F1010021210140517041D02280429092A082C062F1429
:4005400030023280330434013501368137043A103B303E08441047014E014F02548057105A038010930899089A909B049C04A022A281A502B402B510B681C0FEC2FAC4E59E
:40058000CA77CCDBCE44D0C0D210E004E201E850EC024004460449FF4A074BFF4C404D204EF04F0550085608580459045A045B045C225D945F01604061A862406320810399
:4005C0008903910395039D03A901AB02AF03B102B301D804D904DC22DF01010803040510061208060C0610021290140217042010234028062C822D082F0430023280330468
:40060000368137043A124502542056805D40670280108301874089088A028C028D408E0193089A109B049D189E03A080A681A880AA08AB14B304C0E6C23CC4ADCAFCCCDBB0
:40064000CE05D080D610D810E0C0E443E608EA80580459045C225F0183019A01B201B501D804D904DC22DF01010A030405100612071009080D080E020F041289154016010E
:4006800017041D0C1F04270429052C802D082F0430803110330435033681370439403A023D403F028B05C0EEC2E4C4ABCAE3CCDECE99E080E240E4200208040707010804E1
:4006C0000A020B020E101002120518201E102001220226082C072F0430073101322033043408361037023E545418580459045B045C145D405F01D804D904DC11DF0102247F
:400700000381044005200680074008A00A400D080F02109011401440150819511A502040210822C9284029202A402B102D202E802F203108320133603440368839143C40A3
:400740003F205902615079087B1080808140889089028E30911C94409680982099209A449B419D01A3A1A508AA04AB80AF01B321B440B511C0DFC2ABC43DCA7FCC5FCE36F3
:40078000D601D80CE605EA03EE04580459045C115F018202860188408A808E08901092209301960498019C02A004A408A820AA10AC80AE40B301B4FFB802BE11D602D73940
:4007C000D804D904DB0CDC10DD10DF010060012203600440050209890AC40B600D080F421012111512401508172018081B022020232029222B202E402F1030023108324070
:4008000035023608384039083C603F025B1061046802691570107180720473807980850287028C208E40918894289501960499069B109C109D109FA0A208A320A589B01056
:40084000C09FC2BFC46FCA57CCCBCEBAD604D802DE08E00BE408E812D804D904DC11DF010002010804280540068809420B090C800E48110112601401162017111C201D4059
:400880001E082401275029082A022C402DA02E08322034013540371039203A403B093C013D0C3EA03F02452847404C024E804F24840186028E2591219240970898419AA032
:4008C0009D489E029F10A080A14AA210A401A621AB12B021B111B303C0FCC2DBC4FCCAF3CCB4CEFFD070D230E01BE240E812EC80580459045C115F01800F82F0840C850809
:4009000088048C418D398F4292F3930694FF9539974498F3997F9A0C9C829F01A008A110A4C3A567A718A81CA918AAE3AD01AF80B02CB180B21CB320B40FB51FB6C0B7403A
:40094000B980BA22BB20BF04D602D712D804D904DB04DC44DD40DF010002010A0581062409020B080C030D200E200F0211C11220144815041D651E401F1026042746290AA6
:400980002CC02D802E202F103102322034093610374439413B083E485E08610463206C146F217480762C8104832089C08B028C048D2091059308942899089DA09F01A0030E
:4009C000A142A230A301A520A710A801AA80AF04B012B304B50CC0FCC2FAC47DCAF3CCF5CE5BD640E2B0E410E680E8C0EC4011441688301036103B023E88400886108F0142
:400A0000C4F0CC30CEE0D010E61084188D4091449C18E650B1041810C6107D018F04DE01E2022380510155018101850187809501A704C802D401D6041B04250145085208D3
:400A4000562082088380934095019B80A784AF40C608C801D001D40641024780810282208304934095019E20A304A508A780A901D006208027216780680283208442874052
:400A80009F01AF01B410C8E0D880DA40E0C0E210E8401F8036023B4064808380850186029340950198809F80A780AD08B480C601CC01CE08D801E8081080798088808D40C6
:400AC000C408DC01E408E60110121A121C12000F10AA0000102000508000008080010006090010082C00110300000000000C03031400000C8001000E30300C001C30220032
:400B00004010006000C0800F1F00603080000008000000012503060001EC000003FFFFFF62A0F0410C0000000000000004040400440400010000000000004002001030103D
:400B40000010101200000000000000000000000000000000160100000000000006010601160014018000408080008000000000003030000000303000004040004000000033
:400B800003030000000307003300180100010000000200000003000000000000000000000000000000000000000000000000000000000000000000000000000000000000D3
:400BC00000000000000000000000000000000000000000000000000000000000000000000000000000000000000000000000000000000000000000000000000000000000F5
:400C000000000000000000000000000000000000000000000000000000000000000000000000000000000000000000000000000000000000000000000000000000000000B4
:400C40000000000000000000000000000000000000000000000000000000000000000000000000000000000000000000000000000000000000000000000000000000000074
:400C80000000000000000000000000000000000000000000000000000000000000000000000000000000000000000000000000000000000000000000000000000000000034
:0200000490006A
:0400000000004005B7
:0200000490105A
:04000000BC90ACAF55
:0200000490303A
:02000000A4A6B4
:0200000490402A
:4000000000000000000000000000000000000000000000000000000000000000000000000000000000000000000000000000000000000000000000000000000000000000C0
:400040000000000000000000000000000000000000000000000000000000000000000000000000000000000000000000000000000000000000000000000000000000000080
:400080000000000000000000000000000000000000000000000000000000000000000000000000000000000000000000000000000000000000000000000000000000000040
:4000C0000000000000000000000000000000000000000000000000000000000000000000000000000000000000000000000000000000000000000000000000000000000000
:0200000490501A
:0C00000000012E16106900012E1DB50F26
:00000001FF