:400000000010002011000000D1010000D101000008B500F0DFF8C04610B5154C22688023DB0213432360182000F064F92268114B13402360104A114B1A602022104B1A60C0
:400040001022104B1A60822212060F4B1A600F4A0F4B1A600F4A104B1A6009200F4900F02FF9092000F020F900220D4B1A6010BD00010B40FFFFFBFF0600008004010B40E8
:400080001C0202402002024008010B4001000080000002400700008040000240090500000C020B4038B572B60024234D0CE063001B195B00EB1899881A8858880004104371
:4000C00000F0D2F80134E4B2012CF0D9802212031A4B1A60EE221202194B1A6099231B04184A1360184A1360184A1360184B197802220A431A70174A11783C208143142066
:4001000001431170197816220A431A708022124B1A601822114B1A60C022D201104B1A600822104B1A60D82212010F4B1A60FFF773FF00F0AFF838BD3806000008000140EC
:400140000C00014010500F4020500F4030500F4000700F4001700F40180104400002044008020440180204400803044010B5064C2378002B07D1054B002B02D0044800E0AA
:4001800000BF0123237010BDE0000020000000003406000008B5084B002B03D00748084900E000BF07480368002B03D0064B002B00D0984708BDC04600000000340600008D
:4001C000E4000020C80000200000000062B6FEE7FEE7C046F8B50F4F0F4E002412E031687368B568221C02E001C901C30432AA42FAD1F168221C01E010C304328A42FBD168
:400200001036013F002FEAD100F0E6F9FFF7DEFFFEE7C046010000009806000038B500230D4C0E4D0E4808E0032B02D89A00515900E0211C9A00115001332F2BF4D9FFF76B
:4002400031FF0022074B1A608023DB05196801220A431A6038BDC046D10100000000000000000020C000002008B50A1C002100F0D9F908BD064B1B68002803D08022120691
:400280001A4301E05A005208014B1A607047C04680031A4008B50822024B1A600120FFF7E9FF08BD00031A401F23184001238340181C014B1860704700E100E001BE7047B6
:4002C00038B5041C0D1C1F2802D90020FFF7F6FFA400024BE4182068256038BD4000002008B5034B1B7A584300F062F908BDC046CC000020F0B557464E464546E0B4041CFA
:4003000000F060F98046E51E2D2D73D83F4B1B78DBB2A34208D33E4B1B78DBB29A463D4B1B78DBB2994631E03B4B1B78DBB2A34208D33A4B1B78DBB29A46394B1B78DBB2EC
:40034000994623E0374B1B78DBB2A34208D3364B1B78DBB29A46354B1B78DBB2994615E0334B1B78DBB2A34208D3324B1B78DBB29A46314B1B78DBB2994607E02F4B1B78FA
:40038000DBB29A462E4B1B78DBB299462D4B5E5D2F2E09D92A2C07D919222B4B1A60052000F006F9192703E0274B1F683F231F40BE4206D2234B5A5D234B1A60052000F09A
:4003C000F7F81F4AA4182278D2B2204B1A60204B52461A601F4B4A461A600520FFF780FFBE420AD9174B5A5D174B1A60052000F0DFF802E00020FFF761FF404600F0E6F8EB
:400400001CBC90469946A246F0BDC046C0F1FF0FC1F1FF0FC2F1FF0FC3F1FF0FC4F1FF0FC5F1FF0FC6F1FF0FC7F1FF0FC8F1FF0FC9F1FF0FCAF1FF0FCBF1FF0FCCF1FF0F93
:40044000CDF1FF0F440600002CFF0B4028FF0B401CFF0B4020FF0B40044B1A68C0231B021A4201D0012000E00020704700010B4008B500F0A7F8044B1968C02212020A432D
:400480001A6000F0A3F808BD00010B4010B500F099F8084B1968084A11408024E4012143196019680A40802109020A431A6000F08DF810BD00010B40FF3FFFFF38B5051CED
:4004C00000F080F8041CFFF7C7FF002803D0FFF7DDFF012200E00022084B1D40084B1868084901400D431D601B68012A01D1FFF7BFFF201C00F06AF838BDC046040404001B
:4005000010020B40FBFBFBFF10B5244B1B685A0715D5234B1B685A070ED5224B9C69042214401F490868A0430860996991439961DB68002B00D098470420FFF7BFFF174B01
:400540001B685A0518D5164B1B685A0510D5154B9A698020C0001040114A1168814311609969114A0A409A611B69002B00D098478020C000FFF7A2FF084B1B685A030CD55D
:40058000074B1B685A0304D5064B5B69002B00D098478020C002FFF791FF10BD10020B40DC000020FC000020FFFBFFFF000000000230800804D0C0460138FDD1C046C04678
:4005C000C0467047EFF3108072B6704780F310887047C046C046C04670B50E4B0E4D0024ED1AAD101E1CAC4204D0A300F35898470134F8E700F03EF8084B094D0024ED1A81
:40060000AD101E1CAC4204D0A300F35898470134F8E770BD80060000800600008006000088060000031C8218934202D019700133FAE770470000000000300F40000400405B
:400640000F400004030405060708090A0B0C0E0F101112131415161718191B1C1D1E1F2021222325262728292A2B2E2F3031323334350000F8B5C046F8BC08BC9E46704771
:40068000950100001D020000F8B5C046F8BC08BC9E4670476D010000A8060000C80000201800000038000000000000000000E02EC05D00001800000000366E010404040077
:4006C00000000000000000000000000000000000000000000000000000000000000000000000000000000000000000000000000000000000000000000000000000000000FA
:4007000000000000000000000000000000000000000000000000000000000000000000000000000000000000000000000000000000000000000000000000000000000000B9
:400740000000000000000000000000000000000000000000000000000000000000000000000000000000000000000000000000000000000000000000000000000000000079
:400780000000000000000000000000000000000000000000000000000000000000000000000000000000000000000000000000000000000000000000000000000000000039
:0200000490303A
:0200000031AF1E
:0200000490402A
:200000000000000000000000000000000000000000000000000000000000000000000000E0
:0200000490501A
:0C000000000204C81193110104CA43421D
:0200000490600A
:0100000001FE
:00000001FF