:400000000040002011000000BD020000BD02000008B500F055F9C04638B512222A4B1A6000F024FC294800F03FFB012000F03EFC302000F049FB264A264B1A60264C8025D4
:40004000ED052560254B196802220A431A60244A244B1A60244B1A6808218A431A60FA20C00000F0CDFB214800F0C0FBC02292001F4B1A601F4B204A1A60F02109011F4AA5
:4000800011601F4A1A60D02149021E4A11601E4A1A60822212061D4B1A608022D2021C4B1A6040221B4B1A6041221B4B1A6042221A4B1A6008201A4900F04CFB082000F05E
:4000C0003DFB256038BDC04630001040001BB7000600008004010B400C020B4078002E402D3E00007C002E406CF02E40DC050000000301400000014040FF00800403014055
:4001000041FF00800803014042FF008008010B4000010B401C0101401801014004010140C909000038B572B600222C4B1A6000242B4D0CE063001B195B00EB1899881A881A
:4001400058880004104300F027F90134E4B2012CF0D92349081C0C30203100F001F9214A214B1A600622214B1A60C0229205204B1A6099231B041F4A13601F4A13601F4AB7
:400180001360C02212061E4B1A601E4B197802220A431A701C4A11783C208143142001431170197816220A431A702023174A13601749184A1160184A13600123174A13603B
:4001C000174A13608022174B1A60C0221204164B1A60FFF721FF00F0F5F838BD6CF02E40E40B0000000099EE00000240000202400003024000500F4020500F4030500F40BA
:4002000038500F4000700F4001700F40000004400010DB0008000440180004400002044018020440000304400803044010B5064C2378002B07D1054B002B02D0044800E029
:4002400000BF0123237010BDE000002000000000E00B000008B5084B002B03D00748084900E000BF07480368002B03D0064B002B00D0984708BDC04600000000E00B00006A
:40028000E4000020C80000200000000008B500F0F9F900F0FFFB62B600F048F900F056F9022000F05DF9002000F070F980B200F001FC052000F082FAF5E7C046FEE7C046E3
:4002C000F8B50F4F0F4E002412E031687368B568221C02E001C901C30432AA42FAD1F168221C01E010C304328A42FBD11036013F002FEAD100F046FCFFF7C8FFFEE7C046F1
:4003000001000000780C000038B5104B1A6801218A431A6000230E4C0E4D0F4808E0032B02D89A00515900E0211C9A00115001332F2BF4D9FFF7F6FE0022084B1A60034B08
:40034000196801220A431A6038BDC04600001040BD0200000000000000000020C0000020F0B500220027FF239C4611E0BB00C658F3B26446A64308E054000C192578AD1950
:4003800064782C700132013BDBB2002BF4D10137042FEBD9F0BDC04608B50A1C002100F017FC08BD064B1B68002803D0802212061A4301E05A005208014B1A607047C0462D
:4003C00080033A4008B50323094A1360094A136080221205084B1A608022D202074B1A600022074B1A600120FFF7DCFF08BDC046300030403000314000003A4000033A40E6
:40040000000E3F4038B50F20032100F0B3F90F20224900F09FF90122214B1A60214B1A68214B1B68002B01DA204B00E0204B1A431C4B1A601F4A204B1A60204A204B1A60B4
:400440000023204A1360204A20490A6020490A60204A106880214902014311601E4A13601E4A136001221E4B1A601E4B19681E4A0A40802189050A431A60002300221B48F3
:4004800009E099001A4D4C1922605C00194D6253194C08510133002BF3D038BDB505000020003A4000003A4080033A40C0021051C00200518800008004003A400000FF0793
:4004C00018003A401C003A400400040010003A4014003A4000033A4028023A4038023A4018023A4030003A40FEFFFFDF204E000080003A40200100202401002008B5094BC7
:400500001B68002B0CDB084A1368002BFCDB054B1968802212060A431A600A2000F066F908BDC04600003A4008023A4008B5064B1B78002B04D1FFF765FF0122024B1A70CE
:40054000FFF7DCFF08BDC046FC000020034B1968802252020A431A607047C04604003A4083070ED0084A0123022101401068184001D10029FAD1002804D00122024B1A603E
:4005800000E000207047C04610023A4010B5041E02D0002000F0DCF8002C06D1A400044BE41820680004000C00E0002000B210BD80013A40014B1A681A60704710023A40C6
:4005C0000004000C014B18607047C046080120400004000C014B18607047C046140120400004000C014B18607047C0460C01204038B5051C0C1C00F060F8A540024B1D60D0
:4006000000F05FF838BDC0460800204008B500F054F8064B196801220A431A6000F051F801201821FFF7E4FF08BDC04600002040014B18607047C0463801204010B50E4C8B
:400640008023DB042360236823600020FFF7B8FF236823600C22094B1A600120FFF7E8FF3122074B1A60FA208000FFF7B1FF0020FFF7B6FF10BDC0460001204024012040AF
:400680002801204008B5064B1B78002B04D1FFF7D5FF0122024B1A70FFF7B8FF08BDC046FD000020000000000230800803D00138FDD1C046C046C0467047EFF3108072B6C0
:4006C000704780F31088704710B586B0041CFFF7F4FF0E4B1B6800930D4B1B680193033C0C4B1B5D02930C4B1B68039304AA0B4B049300AB05930A4B1A600A490A4A1160C7
:400700001B68FFF7DEFF06B010BDC04608010B4000010B40240C000030001040B6EA0000080010401700008004001040024B1B68012018407047C0460C002E401F2318408D
:4007400001238340181C014B1860704700E100E001BE704738B5041C0D1C1F2802D90020FFF7F6FFA400024BE4182068256038BD4000002070B5041C0E1E032E02D900205D
:40078000FFF7E6FF1F2C02D90020FFF7E1FF03252540ED000635FFF790FFA408A400064BE41823680322AA409343AE40351C1D432560FFF786FF70BD00E400E070B5041C26
:4007C00080252D02074E04E03068FFF76DFF064BE418AC42F8D8034B58686043FFF764FF70BDC046CC0000200080FFFF08B5034B1B7A5843FFF758FF08BDC046CC00002001
:4008000010B5041C0F4B196801220A431A600E4A0E4B1A600E4B1968802212020A431A60002809D100200CE00120FFF7DFFFFFF77DFF002804D1013C002CF5D1102000E0DB
:40084000002010BD60F02E400220000078002E4010002E40044B1A68C0231B021A4201D0012000E00020704700010B4010B50D4B1A6801218A431A601A68022082431A603A
:40088000094A10683024A04310242043106010680724A043014311601968802212060A431A6010BD00F02E4000FF2E4038B5031C1D4A12680120041C1440002B02D0012BAF
:4008C00016D02BE0184B19680122914319601968022081431960154B1968302081431020014319601968072081430A431A6018E00D4B1A6802218A431A600C4A1068072588
:40090000A84301431160116830208143202001431160196801220A431A6002E00020FFF717FF201C38BDC04600F02E4000FF2E4008B5FFF7C2FE044B1968C02212020A4394
:400940001A60FFF7BEFE08BD00010B4010B5FFF7B4FE084B1968084A11408024E4012143196019680A40802109020A431A60FFF7A8FE10BD00010B40FF3FFFFF38B5051CB3
:40098000FFF79BFE041CFFF765FF002803D0FFF7DDFF012200E00022084B1D40084B1868084901400D431D601B68012A01D1FFF7BFFF201CFFF785FE38BDC046040404006A
:4009C00010020B40FBFBFBFF10B5244B1B685A0715D5234B1B685A070ED5224B9C69042214401F490868A0430860996991439961DB68002B00D098470420FFF7BFFF174B3D
:400A00001B685A0518D5164B1B685A0510D5154B9A698020C0001040114A1168814311609969114A0A409A611B69002B00D098478020C000FFF7A2FF084B1B685A030CD598
:400A4000074B1B685A0304D5064B5B69002B00D098478020C002FFF791FF10BD10020B40DC00002000010020FFFBFFFF08B500F07BF808BD08B500F02BF808BD08B5044BCF
:400A80001968802212060A431A60FFF7EFFF08BD0000244008B5064B1B78002B04D1FFF7E9FF0122024B1A70FFF7E8FF08BDC0461C01002004491F220B681340082BFBD077
:400AC000024B18607047C046080224404002244010B5134A134B1A600023134A13600121124A1160124A13480260072412480460124803601248016012490A60124A136076
:400B00000421124A1160124A1360124A1360124A1360124A1360124A1360124A136010BD0B000002000024404000244048002440070000800003244004032440100324408B
:400B400044002440000224400402244050002440880E2440C80E2440480F2440080F2440C80F2440880F2440044B1968044A0A40902109040A431A607047C04600000240BD
:400B8000FFFF0FFF70B50E4B0E4D0024ED1AAD101E1CAC4204D0A300F35898470134F8E700F058F8084B094D0024ED1AAD101E1CAC4204D0A300F35898470134F8E770BDB0
:400BC000600C0000600C0000600C0000680C0000031C8218934202D019700133FAE770470000000000300F40000400400F40000404300F4001310F4001330F4004420F4056
:400C000005430F4036013E4058045F011801B40110105008C408D40464109810B408D801EC080000030405060708090A0B0C0E0F101112131415161718191B1C1D1E1F2037
:400C400021222325262728292A2B2E2F3031323334350000F8B5C046F8BC08BC9E4670475502000009030000F8B5C046F8BC08BC9E4670472D020000880C0000C8000020D0
:400C80001800000048000000000000000000C05D80BB000030000000006CDC02040404000000000000000000000000000000000000000000000000000000000000000000F6
:400CC00000000000000000000000000000000000000000000000000000000000000000000000000000000000000000000000000000000000000000000000000000000000F4
:400D000000000000000000000000000000000000000000000000000000000000000000000000000000000000000000000000000000000000000000000000000000000000B3
:400D40000000000000000000000000000000000000000000000000000000000000000000000000000000000000000000000000000000000000000000000000000000000073
:400D80000000000000000000000000000000000000000000000000000000000000000000000000000000000000000000000000000000000000000000000000000000000033
:020000040001F9
:0200000490303A
:02000000AC4210
:0200000490402A
:4000000000000000000000000000000000000000000000000000000000000000000000000000000000000000000000000000000000000000000000000000000000000000C0
:400040000000000000000000000000000000000000000000000000000000000000000000000000000000000000000000000000000000000000000000000000000000000080
:0200000490501A
:0C00000000020E34119E00010E37BDE01E
:0200000490600A
:0100000001FE
:00000001FF