:400000000010002011000000450200004502000080B500AF00F01AF980B500AF104B104A12688021C9020A431A60182000F0E0F90B4B0B4A11680B4A0A401A600A4B0B4ADC
:400040001A600B4B10221A600A4B802212061A60094B0A4A1A600A4B00221A60BD4680BD00010B40FFFFFBFF04010B40060000802002024008010B40000002400100008093
:400080000C020B4080B582B000AF72B6FB1D00221A7023E0FB1D1A78131C5B009B185B00344A9B183B603B681A78597809020A43997809040A43DB781B0613431A1C3B6868
:4000C00019795B791B020B439BB2101C191C00F03BF9FB1D1A78FB1D01321A70FB1D1B78012BD7D9244A254B101C191C00F03CF9234BC02292041A60224BEE2212021A6088
:40010000214B992212041A60204B802292051A601F4B992212041A601E4B1E4A1278D2B202210A43D2B21A701B4B1B4A1278D2B23C218A43D2B214210A43D2B21A70154B61
:40014000144A1278D2B216210A43D2B21A70134B40221A60124BC02252031A60114BD82212011A60FFF758FF00F03EF9BD4602B080BDC04638080000440800005008000006
:40018000040001400C00014010500F4018500F4030500F4000700F4001700F4000010440080104400803044010B5064C2378002B07D1054B002B02D0044800E000BF012307
:4001C000237010BDE0000020000000003408000008B5084B002B03D00748084900E000BF07480368002B03D0064B002B00D0984708BDC0460000000034080000E400002028
:40020000C80000200000000080B582B000AF00F067FABB1DBA1D128801321A80BB1D1A88074B9A4202D9BB1D00221A80BB1D1B88181C00F083FA012000F0D4F9E9E7C04672
:40024000E703000080B500AFFEE7C04680B586B000AF224B7B61224B3B61204B7B6135E03B691B68FB603B695B68BB603B699B683B6000237B600CE0FB681A68BB681A604B
:40028000BB680433BB60FB680433FB607B6804337B607A683B689A42EED13B69DB683B6000237B6008E0BB6800221A60BB680433BB607B6804337B607A683B689A42F2D10A
:4002C0003B6910333B617B69013B7B617B69002BC6D100F081FAFFF797FFFEE701000000B408000080B582B000AF00237B600FE07B68032B04D8104B7A689200D35800E076
:400300000E4B0F4A796889008B507B6801337B607B682F2BECD9FFF7B5FE0A4B00221A608023DB058022D205126801210A431A60BD4602B080BDC04600000000450200009A
:4003400000000020C000002080B582B000AF786039607A683B68101C00211A1C00F062FABD4602B080BDC04680B586B000AF7860396000233B6100237B612EE07B699B00D4
:400380007A68D3181B68BB603B1C0F33BA681A70BB68FF229343BB6017E03B695B003A68D3181B781A1CBB68D3183A69520039688A1852781A703B6901333B613B1C0F3365
:4003C0001A783B1C0F33013A1A703B1C0F331B78002BE2D17B6901337B617B69022BCDD9BD4606B080BDC04680B500AFBD4680BD90B585B000AF78603C1C0C3400F0E2F9D4
:40040000031C23707B68022B00D8AFE07B68302B00D9ABE05B4B1B78DBB21A1C7B689A420AD3594A3B1C0F3312781A70574A3B1C0E3312781A703FE0554B1B78DBB21A1CA7
:400440007B689A420AD3534A3B1C0F3312781A70514A3B1C0E3312781A702DE04F4B1B78DBB21A1C7B689A420AD34D4A3B1C0F3312781A704B4A3B1C0E3312781A701BE036
:40048000494B1B78DBB21A1C7B689A420AD3474A3B1C0F3312781A70454A3B1C0E3312781A7009E0434A3B1C0F3312781A70424A3B1C0E3312781A707B68DA1E3B1C0B3372
:4004C0003E498A5C1A703B1C0B331B782F2B0DD97B682A2B0AD93A4B19221A60052000F067F93B1C0D3319221A7007E0344B1B68D9B23B1C0D333F220A401A703A1C0B32A4
:400500003B1C0D3312781B789A4208D22C4B7A68033A2A498A5C1A60052000F049F9294B7A68254952181278D2B21A60264B3A1C0F3212781A60254B3A1C0E3212781A60C5
:40054000052000F073F83A1C0B323B1C0D3312781B789A4209D91A4B7A68033A17498A5C1A60052000F024F903E002E0002000F02FF83B1C0C331B78181C00F027F9BD4614
:4005800005B090BDC0F1FF0FC1F1FF0FC2F1FF0FC3F1FF0FC4F1FF0FC5F1FF0FC6F1FF0FC7F1FF0FC8F1FF0FC9F1FF0FCAF1FF0FCBF1FF0FCCF1FF0FCDF1FF0F6008000004
:4005C0002CFF0B4028FF0B401CFF0B4020FF0B4080B582B000AF021CFB1D1A7001BEBD4602B080BD80B582B000AF786008E00C4B1B68181C00F0DCF87B680A4A9B187B604F
:400600007A6880231B029A42F1D8074B1B687A685343181C00F0CCF8BD4602B080BDC046D80000200080FFFFD000002080B582B000AF021CBB1D1A80BB1D1B88044A1278E7
:400640005343181C00F0B4F8BD4602B080BDC046D400002080B500AF104B8022D2041A600E4B0E4A12681A60002000F04BF80B4B0A4A12681A600A4B0C221A60012000F053
:4006800089F8084B31221A60FA239B00181C00F047F8002000F052F8BD4680BD00010540240105402801054090B583B000AFFC1D00F088F8031C2370084B084A1268012123
:4006C0000A431A60FB1D1B78181C00F07FF80120182100F041F8BD4603B090BD0000054080B500AF064B1B78002B04D1FFF7B2FF034B01221A70FFF7D7FFBD4680BDC046A6
:40070000FC00002080B582B000AF7860034B7A681204120C1A60BD4602B080BD0801054080B582B000AF7860034B7A681204120C1A60BD4602B080BD1401054080B582B012
:4007400000AF7860034B7A681204120C1A60BD4602B080BD0C01054090B585B000AF786039603C1C0F3400F02DF8031C2370084B3A687968081C9040021C1A603B1C0F33D9
:400780001B78181C00F022F8BD4605B090BDC0460800054080B582B000AF7860024B7A681A60BD4602B080BD38010540000000000230800804D0C0460138FDD1C046C04662
:4007C000C0467047EFF3108072B6704780F310887047C046C046C04670B50E4B0E4D0024ED1AAD101E1CAC4204D0A300F35898470134F8E700F04CF8084B094D0024ED1A71
:40080000AD101E1CAC4204D0A300F35898470134F8E770BD9C0800009C0800009C080000A4080000031C8218934202D019700133FAE770470000000000300F4000040040E1
:400840000F40000401330F4003410F4004430F40E61062048E04D84018808C40C608E608030405060708090A0B0C0E0F101112131415161718191B1C1D1E1F2021222325E2
:40088000262728292A2B2E2F3031323334350000F8B5C046F8BC08BC9E467047D1010000E5020000F8B5C046F8BC08BC9E467047A9010000C8080000C800002018000000FA
:4008C00020000000000000000000000000366E01C05D0000180000000000E02E000000000000000000000000000000000000000000000000000000000000000000000000F0
:4009000000000000000000000000000000000000000000000000000000000000000000000000000000000000000000000000000000000000000000000000000000000000B7
:400940000000000000000000000000000000000000000000000000000000000000000000000000000000000000000000000000000000000000000000000000000000000077
:400980000000000000000000000000000000000000000000000000000000000000000000000000000000000000000000000000000000000000000000000000000000000037
:4009C00000000000000000000000000000000000000000000000000000000000000000000000000000000000000000000000000000000000000000000000000000000000F7
:0200000490303A
:02000000E68A8E
:0200000490402A
:200000000000000000000000000000000000000000000000000000000000000000000000E0
:0200000490501A
:0C000000000204C81193110104CAF81D8D
:0200000490600A
:0100000001FE
:00000001FF