:4000000000100020390600003106000031060000F8B51148114A1AE055689368D4689D4209D0002104E06E1877683668C0C30831A142F8D100E01B191469002103E00025B2
:40004000002660C30831A142F9D1143201380028E2D101F081FEC04601000000041F000080B584B000AF021CFB1D1A70224A3B1C0E3312781A70214A3B1C0F3312781A7055
:400080001F4B1B68013BBB601AE01E4B1868BA68391C0E31131C5B009B181B1801331B780B70184B1868BA68391C0F31131C5B009B181B1802331B780B70BB68013BBB60EA
:4000C000BB68002B0ADB0F4B1968BA68131C5B009B185B5CFA1D12789A42D6D90A4B3A1C0E3212781A60094B3A1C0F3212781A60BD4604B080BDC046CCF1FF0FCDF1FF0F41
:40010000DC1E0000FC0000201CFF0B4020FF0B4080B500AF234A234B19688023DB020B4313601820FFF79CFF1F4B19221A60052001F05AFD1D4B1E4A1278D2B21A60052086
:4001400000F084FB174B174A11681A4A0A401A60194B11221A60194B20221A60184B10221A60184B30221A60174B30221A60174B30221A60164A80231B061360154A802348
:400180001B061360144B154A1A60154B154A1A60154A80231B061360144B154A1A60BD4680BDC04600010B402CFF0B4028FF0B40E5F1FF0FFFFFFBFF080202401402024072
:4001C0001802024020020240240202402802024008010B4004010B40000002400B00008040000240170000C080000240040002401000008080B582B000AF72B6FB1C002292
:400200001A7024E0FB1C1A78131C5B009B185B001A1C444BD3187B607B681A78597809020A43997809040A43DB781B0613431A1C7B6819795B791B020B439BB2101C191CF9
:4002400001F07EFCFB1CFA1C127801321A70FB1C1B78012BD6D9344A344B101C191C01F07FFC334ACC239B011360324AC0239B041360314AEE231B021360304B90221A60A1
:400280002F4B0C221A602F4AD8231B0113602E4B7E221A602D4AC0235B0313602C4B3E221A602C4AD8231B0113602B4B06221A602A4B30221A602A4B04221A60294A99236D
:4002C0001B041360284A80235B031360274A99231B041360264A99231B041360254A80239B051360244B10221A60244B10221A60234B10221A60234B224A1278D1B2022289
:400300000A43D2B21A701F4B1E4A1278D1B206220A43D2B21A70FFF7FBFE01F061FCBD4602B080BD701E00007C1E0000981E000000000140040001400C00014010000140CF
:4003400000000440080004400001044008010440180104400803044000040440080404401804044000500F4008500F4010500F4030500F4038500F40200105406001054010
:40038000A001054000700F4000B5034B1A78002A01D10120187000BD0001002008B504480368002B03D0034B002B00D0984708BDC80000200000000080B582B000AF00F033
:4003C00029F862B600F0A6FC00F042FF01F0D2FA01F03CF800F03CFD00F066FD031C002BFAD1002001F07EF9031C1A1CBB1D1A80BB1D1B881A1C1202D31A9BB2181C00F01C
:4004000057F8BB1D1B88181C01F0C6FA0A2000F0F9F9DDE780B500AF00F074FA00F012FB00F0B0FBBD4680BD80B582B000AF0A1CFB1D011C19703B1D1A80FB1D1B78022B5F
:4004400009D0032B0DD0012B10D13B1D1B88181C00F078FA0AE03B1D1B88181C00F012FB04E03B1D1B88181C00F0ACFBBD4602B080BDC04680B582B000AFBB1D18803B1D64
:400480001980BB1C1A80BB1D1B880120191CFFF7CBFF3B1D1B880220191CFFF7C5FFBB1C1B880320191CFFF7BFFFBD4602B080BD80B584B000AF021CBB1D1A80BB1D1A88FB
:4004C000534B9A4212D83A1C0A3201235B4213803A1C0C32BB1D1B88191C4900CB185B0013803B1C0E3300221A807FE0BB1D1A88484B9A4215D8BB1D1B88474AD31A9BB285
:400500003A1C0A32191C4900CB185B0013803A1C0C3201235B4213803B1C0E3300221A8064E0BB1D1A883D4B9A4215D83B1C0A3300221A803A1C0C3201235B421380BB1D7F
:400540001B881A1C5200D3189BB201339AB23B1C0E3352001A8049E0BB1D1A88304B9A4215D83B1C0A3300221A80BB1D1B882D4AD31A9BB23A1C0C32191C4900CB185B0061
:4005800013803A1C0E3201235B4213802EE0BB1D1A88254B9A4214D8BB1D1B881A1C5200D3185B009AB23B1C0A3304321A803B1C0C3300221A803A1C0E3201235B421380C9
:4005C00014E03A1C0A3201235B4213803B1C0C3300221A80BB1D1B88144AD31A9BB23A1C0E32191C4900CB185B0013803B1C0A3319883B1C0C331A883B1C0E331B88081C0B
:40060000111C1A1CFFF736FFBD4604B080BDC046A92A00005455000055550000FE7F0000A9AA0000AAAA000053D50000FFFF000080B500AFFEE7C046014B9D46014B184719
:40064000001000201100000080B582B000AF00237B600FE079687B68032B04D87A680D4B9200D35800E00C4B0C4A89008B507B6801337B607B682F2BECD9FFF7BBFD084B8B
:4006800000221A608023DB0501221A60BD4602B080BDC046000000003106000000000020C000002080B584B000AF021C3960FB1D1A7080239B05FB60FB1D1B781F2B02D970
:4006C000002000F095F8FB1D1B7810339A00FB68D3181B68BB60FB1D1B7810339A00FB68D3183A681A60BB68181CBD4604B080BD80B586B000AF0A1CFB1D011C1970BB1DD6
:400700001A70BB1D1B78032B02D9002000F070F8FB1D1B781F2B02D9002000F069F8FB1D1A7803231340DB0006333B6101F065FA031C1A1C3B1C0F331A70FB1D1B789B0819
:40074000DBB29B0013495B181B687B613B690322111C99400B1CDB437A6913407B61BB1D1A783B69111C99400B1C7A6913437B61FB1D1B789B08DBB29B00064A9B187A6951
:400780001A603B1C0F331B78181C01F03AFABD4606B080BD00E400E080B582B000AF021CFB1D1A70064BFA1D11781F220A400121081C9040021C1A60BD4602B080BDC04688
:4007C00000E100E080B582B000AF021CFB1D1A70064BFA1D11781F220A400121081C9040021C1A60BD4602B080BDC04680E100E080B582B000AF021CFB1D1A7001BEBD4667
:4008000002B080BD80B582B000AF786008E00C4B1B68181C01F0E8F97B680A4A9B187B607A6880231B029A42F1D8074B1B687A685343181C01F0D8F9BD4602B080BDC046CC
:40084000D80000200080FFFFD000002080B582B000AF021CBB1D1A80BB1D1B88044A12785343181C01F0C0F9BD4602B080BDC046D400002080B500AF0F4A8223DB04136085
:400880000D4B0D4A12681A600B4B0B4A12681A600A4B0C221A60012000F080F8084B181C00F042F8064B181C00F04CF8054B31221A60BD4680BDC04680010540A4010540F3
:4008C000FFFF0000A801054080B582B000AF01F094F9031C1A1CFB1D1A70094B084A116804220A431A60FB1D1B78181C01F089F90420182100F034F8BD4602B080BDC046B2
:400900000000054080B500AF064B1B78002B04D1FFF7B0FF034B01221A70FFF7D5FFBD4680BDC0460101002080B582B000AF7860034B7A681204120C1A60BD4602B080BD1A
:400940009401054080B582B000AF7860034B7A681204120C1A60BD4602B080BD8C01054080B584B000AF7860396001F046F9031C1A1C3B1C0F331A70074B3A687968081CE3
:400980009040021C1A603B1C0F331B78181C01F038F9BD4604B080BD0800054080B582B000AF7860024B7A681A60BD4602B080BDB801054080B500AF0F4A8223DB04136051
:4009C0000D4B0D4A12681A600B4B0B4A12681A600A4B0C221A60012000F080F8084B181C00F042F8064B181C00F04CF8054B31221A60BD4680BDC046400105406401054032
:400A0000FFFF00006801054080B582B000AF01F0F4F8031C1A1CFB1D1A70094B084A116802220A431A60FB1D1B78181C01F0E9F80220182100F034F8BD4602B080BDC046F6
:400A40000000054080B500AF064B1B78002B04D1FFF7B0FF034B01221A70FFF7D5FFBD4680BDC0460201002080B582B000AF7860034B7A681204120C1A60BD4602B080BDD8
:400A80005401054080B582B000AF7860034B7A681204120C1A60BD4602B080BD4C01054080B584B000AF7860396001F0A6F8031C1A1C3B1C0F331A70074B3A687968081CC3
:400AC0009040021C1A603B1C0F331B78181C01F098F8BD4604B080BD0800054080B582B000AF7860024B7A681A60BD4602B080BD7801054080B500AF0F4A8223DB041360F1
:400B00000D4B0D4A12681A600B4B0B4A12681A600A4B0C221A60012000F080F8084B181C00F042F8064B181C00F04CF8054B31221A60BD4680BDC046000105402401054070
:400B4000FFFF00002801054080B582B000AF01F054F8031C1A1CFB1D1A70094B084A116801220A431A60FB1D1B78181C01F049F80120182100F034F8BD4602B080BDC04637
:400B80000000054080B500AF064B1B78002B04D1FFF7B0FF034B01221A70FFF7D5FFBD4680BDC0460301002080B582B000AF7860034B7A681204120C1A60BD4602B080BD96
:400BC0001401054080B582B000AF7860034B7A681204120C1A60BD4602B080BD0C01054080B584B000AF7860396001F006F8031C1A1C3B1C0F331A70074B3A687968081CA2
:400C00009040021C1A603B1C0F331B78181C00F0F8FFBD4604B080BD0800054080B582B000AF7860024B7A681A60BD4602B080BD3801054080B500AF1B4B1B78013B9BB257
:400C4000181C002100F02AFF184B1B78013B9BB2181C002100F058FF00F03AF9144B154A1A60154A80239B001360002000F096FA124B124A1168124A0A401A600F4A0F4BDB
:400C80001968C023DB000B4313600F20FFF79AFD0C4B0F20191CFFF705FD0F200321FFF727FDBD4680BDC046F4000020F5000020040008400028A001080008401000014033
:400CC000FFF0FFFFB518000080B500AF00F0CCFE00F000FF0E4A0E4B196880231B060B4313600B4A0A4B196880231B030B4313606420FFF7ABFD064A054B196880235B0107
:400D00000B4313600F20FFF747FDBD4680BDC0460400084080B500AF094B1B78002B04D1FFF788FF064B01221A70FFF7CDFF054A044B19688023DB030B431360BD4680BD4E
:400D4000040100200400084080B584B000AF021CFB1D1A70FB1DFA1D127801321A70FB1D1B78052B1BD03B1C0E33FA1D1278D2081A70FB1D1A780723134001229A403B1CD6
:400D80000F331A703B1C0E331B78084AD25C3B1C0F331B781340DBB2002BDBD000E0C046FB1D1B78181CBD4604B080BDDC00002080B584B000AF021CFB1D1A70114B1B686E
:400DC000FB60FB68FF229343FB60FB1D1B780E4AD35CFA681343FB600A4BFA681A600B4B1B78013B9BB2181C002100F057FE084B1B78013B9BB2181C002100F085FEBD4627
:400E000004B080BD08000840041E0000F4000020F500002080B582B000AF021CFB1D1A70094B00221A70094BFA1D12781A70064A7F235B421370FB1D1B78181C00F02EF9C9
:400E4000BD4602B080BDC046050100200601002080B500AF124B00221A70124A01235B421370104B1B78DBB2181CFFF76DFF031C1A1C0C4B1A700B4B1B78DBB2042B0DD8CF
:400E8000074B1B78DAB201231343DAB2044B1A70044B1B78DBB2181C00F000F9BD4680BD050100200601002080B500AF074B1B78DBB21A1C01231340DBB2002B01D0012319
:400EC00000E00023181CBD4680BDC0460501002080B582B000AFFB1D00221A7009E0FB1D1B78181C00F068F8FB1DFA1D127801321A70FB1D1B78042BF1D9BD4602B080BD51
:400F000090B587B000AF021CFB1D1A70FB1D1B78254AD35C3B61FB1D1B78244AD35C3A1C1632191C4900CB181370FB1D1B781F4AD25C3B1C173392001A703A691C4B92007C
:400F4000D3581B68FB603B1C17331B780F22111C99400B1CDB43FA681340FB603B1C17331B780422141C9C40231CFA681343FB603A69104B9200D35839690E4A89008A58D0
:400F800011683A1C163212780720041C9440221CD2430A401A603A69054B9200D358FA681A60BD4607B090BDE01D0000FC1D0000201E0000301E000090B587B000AF021CE0
:400FC000FB1D1A70FB1D1B782F4AD35CBB60FB1D1B782E4AD25C3B1C0F3392001A70FB1D1B782A4AD35C3A1C1732191C4900CB181370BA68264B9200D358B968244A8900A2
:401000008A5811683A1C0F3212780F20041C9440221CD2430A401A60BA681E4B9200D3581B683B613B1C17331B780722111C99400B1CDB433A6913403B613B1C17331B7825
:401040000622141C9C40231C3A6913433B61BA68104B9200D3583A691A60BA680E4B9200D358B9680C4A89008A581168FA1D12780648825C0120041C9440221CD2430A40FF
:401080001A60BD4607B090BDE01D0000FC1D0000201E0000301E0000401E000080B584B000AF021CFB1D1A7000F0A7FD031C1A1C3B1C0B331A70FB1D1A783B1C0A33244924
:4010C0008A5C1A70FB1D1B78181CFFF771FEFB1D1B78181CFFF714FF1E4B1B68FB60FA681D4B1340FB60FA68A0231B021343FB60184BFA681A606420FFF7A8FB154B1B6863
:40110000FB60FA68144B1340FB60FA68134B1343FB60104BFA681A6000F0B4FC00F0E8FC00F0A2FC00F0D6FC0A20FFF78FFB0C4B3A1C0A3211780B4A89008A581A603B1CCC
:401140000B331B78181C00F05CFDBD4604B080BD181E000004000840FF3FDFFF002020000C000840141E000080B582B000AF021CFB1D1A70FB1D1A78064B1B6899B2064BD9
:401180005200D152FB1D1B78181CFFF715FFBD4602B080BD0C0008400801002080B582B000AF7860094B094A1168094A0A401A607A68032313407B60044B044A11687A680F
:4011C00052020A431A60BD4602B080BD04000840FFF9FFFF80B582B000AF021CFB1D1A70FB1D1A78FB1D1978094B4900C95A094B5200D152FB1D1B78074A0021D154FB1D94
:401200001B78064A0021D154BD4602B080BDC0460801002028010020340100203C01002080B582B000AF021CFB1D1A70FB1D1B78181CFFF7EFFDFFF737FE031C002BFAD192
:40124000FB1D1B78181CFFF7C5FFBD4602B080BD80B582B000AFFB1D00221A7009E0FB1D1B78181CFFF7DCFFFB1DFA1D127801321A70FB1D1B78042BF1D9BD4602B080BD64
:4012800080B586B000AF021CFB1D1A70FB1D1A783B1C163366498A5C1A703B1C16331A783B1C173363498A5C1A70FB1D19783B1C1433614A49008A5A1A80FB1D1A785F4BEF
:4012C0005200D35A3A1C143212889A4210D3FB1D1A785A4B5200D25A3B1C1233391C143109888A1A1A803B1C163301221A700FE0FB1D1A78514B5200D15A3B1C12333A1CB7
:40130000143212888A1A1A803B1C163300221A703B1C16331B78002B1ED13B1C12331B88142B19D9FB1D1B78454AD35C042B0AD9FB1D1B78181CFFF74DFFFB1D1B78404AB5
:401340000021D15449E0FB1D1B783D4AD25C0132D1B23B4AD15440E03B1C17331B783A1C123212889A4209D93B1C12331B88132B33D83B1C16331B78002B2ED1FB1D1A7869
:401380002E4B5200D35A1B02FB60FB1D1B782D4AD35CFA681343FB603B1C14331B88FA68D318FB60FB1D1A78244B5200D35AFA68D31AFB60FB1D1A78FB681B0A99B21F4B47
:4013C0005200D152FB1D1B78FA68D1B21D4AD154FB1D1B781A4A0021D1543B1C17331B783A1C123212889A4219D93B1C16331B78002B14D03B1C12331B88FF2B06D9FB1D2F
:401400001A78114901235B428B540DE0FB1D1B783A1C12321288D1B20B4AD15404E0FB1D1B78094A0021D154BD4606B080BDC046181E0000541E0000080100202801002019
:4014400058010020340100203C01002080B582B000AF7B1D00221A7020E0BB1D7A1D1278D2081A707B1D1A780723134001229A40FB1D1A70BB1D1B780C4AD25CFB1D1B78AA
:401480001340DBB2002B04D07B1D1B78181CFFF7F7FE7B1D7A1D127801321A707B1D1B78042BDAD9BD4602B080BDC046DC00002080B584B000AFFB1D1870BB1D19707B1DDB
:4014C0001A703A1C0A3201235B4213703B1C0B3300221A70FB1D1A78204BD318FB603B1C093300221A702AE03B1C09331A78FB68D3181B787A1D12789A4219D23B1C093326
:401500001A78FB68D3181B783A1C0B3212789A420ED23B1C0A333A1C093212781A703B1C09331A78FB68D2183B1C0B3312781A703B1C09333A1C0932127801321A703A1C4A
:401540000932BB1D12781B789A42CDD33B1C0A331B78181CBD4604B080BDC0463C01002090B587B000AF8446081C111C1A1CFB1D64461C70BB1D18707B1D1970BB1C1A8051
:40158000BB1D1A78554BD3187B613B1C0933FA1D1278013A1A703B1C0A33FA1D127801321A70FB1D1A787B69D3181A784C4B5A70FB1D1B78002B0BD1494B00221A703B1CBA
:4015C0000A331A787B69D3181A78454B9A7022E0FB1D1A787B1D1B78013B9A420BD13B1C09331A787B69D3181A783D4B1A703C4B00229A700FE03B1C09331A787B69D31828
:401600001A78374B1A703B1C0A331A787B69D3181A78334B9A70324B1B783A1C283212789A4209D22E4B1A783B1C28331B78D31ADAB22B4B1A7002E0294B00221A70284BBE
:401640005A783B1C28331B78D31ADAB2244B5A70234B9B783A1C283212789A4209D2204B9A783B1C28331B78D31ADAB21C4B9A7002E01B4B00229A70194B9B781A1C184BFF
:401680001B78D31AFB60164B1B781A1C144B5B78D218134B9B78D3183B61FB681B02181C396900F0B1FA031C1A1CFB1D1B781B02D3183B61BB1C1A883B6953433B613B6989
:4016C000FE22D2019B181A0C3B1C0B331A703B1C0B331B78181CBD4607B090BD3C0100204801002090B587B002AF021CFB1D1A70FB1D1A783B1C093358498A5C1A70FB1D83
:401700001A783B1C0A3356498A5C1A70FB1D1A783B1C0E3353498A5C1A70FB1D1A783B1C0F3351498A5C1A70FB1D1B784F4AD35C3A1C0E3211783A1C0F321278081C111CD5
:401740001A1CFFF7B5FE031C1A1C3B1C0B331A703B1C0B331B78FF2B62D0FB1D1A78444B5200D35AFA1D12784249895C8C463A1C0B3210783A1C0E3211783A1C0F3212789C
:4017800064460094FFF7ECFE031C1A1C3B1C0C331A803B1C0A331A781F231340002B52D03B1C08333A1C0932127801321A703B1C09331B78294AD35C002B0FD13B1C0833AF
:4017C0001B783A1C0C321288D1B2244AD1543B1C09331B78214A0121D15437E03B1C0A331A7808231340002B2FD03B1C08331B781A4AD35C3A1C0C321288101C191C00F01E
:401800003BF8031C1A1C3B1C0C331A803B1C08331B783A1C0C321288D1B2104AD15415E03A1C0C3201235B4213803B1C0A331A781F231340002B09D03B1C09331B78074A88
:401840000021D15402E0C04600E0C0463B1C0C331B88181CBD4605B090BDC046F80000206C1E0000601E0000641E0000501E0000681E0000541E000080B584B000AF0A1C96
:40188000BB1D011C19803B1D1A80BB1D1A883B1D1B88D318FB603B1D1B885B00FA68D318FB60FB689B08FB60FB689BB2181CBD4604B080BD80B582B000AF00F09EF9031CFA
:4018C0001A1CFB1D1A701E4B01221A601D4B1B78DBB2181CFFF748FC1B4B1B78DBB25BB2002B07DA184B1B78DBB2FE221340164A13701CE0134B1B78DBB2181CFFF724FADA
:40190000031C1A1C0F4B1A700E4B1B78DBB2042B06D80C4B1B78DBB2181CFFF7BFFB06E0094B1B78DBB2FE221340074A1370FB1D1B78181C00F065F9BD4602B080BDC046C7
:4019400014000840060100200501002080B500AF00F036F8BD4680BD80B500AF044A044B196880231B060B431360BD4680BDC0460000064080B500AF064B1B78002B04D1A1
:40198000044B01221A70FFF7E1FFFFF7E5FFBD4680BDC0465001002080B582B000AF7860054B1A680F231340082BF9D0034B7A681A60BD4602B080BD08020640400206400F
:4019C00080B500AF174B184A1A60184B00221A60174B01221A60174B07221A60164B07221A60164B00221A60154B01221A60154B154A1A60154B00221A60154B00221A6093
:401A0000144B00221A60144B00221A60134B00221A60134B00221A60124B00221A60BD4680BDC046000006400B000002400006404800064000030640040306401003064027
:401A400044000640000206400700008004020640880E0640C80E0640480F0640080F0640C80F0640880F064080B500AF044A044B196880231B060B431360BD4680BDC04608
:401A80004000024080B500AF034B034A1268520052081A60BD4680BD4000024080B584B000AF0A1CBB1D011C19807B1D1A70084B1B681B0C1B04BB60BB1D1A88BB681343AB
:401AC000FB60034BFA681A60BD4604B080BDC0464000024080B500AF044A044B196880231B060B431360BD4680BDC0460000024080B500AF034B034A1268520052081A60B7
:401B0000BD4680BD0000024080B584B000AF0A1CBB1D011C19807B1D1A70084B1B681B0C1B04BB60BB1D1A88BB681343FB60034BFA681A60BD4604B080BDC046000002404A
:401B400080B582B000AF786039607A683B68101C00211A1C00F0BAF8BD4602B080BDC04680B586B000AF786039600023FB600023BB602EE0BB689A007B68D3181B683B613D
:401B80003B1C17333A691A703B69FF2293433B6117E0FB685A003B68D3181B781A1C3B69D318FA6851003A688A1852781A70FB680133FB603B1C17333A1C17321278013A44
:401BC0001A703B1C17331B78002BE2D1BB680133BB60BB68062BCDD9BD4606B080BDC04680B500AFBD4680BD0230800804D0C0460138FDD1C046C0467047EFF3108072B6C5
:401C0000704780F310887047002941D010B4041C4C40A44601230022002900D54942002800D5404288422CD301242407A14204D2814202D209011B01F8E7E400A14204D23E
:401C4000814202D249005B00F8E7884201D3401A1A434C08A04202D3001B5C0822438C08A04202D3001B9C082243CC08A04202D3001BDC082243002803D01B0901D00909A6
:401C8000E3E7101C6446002C00D5404210BC7047002806D003DB0020C043400801E08020000607B4024802A14018029003BDC046190000000029EBD003B5FFF7A7FF0EBC3D
:401CC0004243891A1847C0467047C04630B5C9B2032A08D8002A05D0031C1218197001339342FBD130BD8418031C032201E0197001331342FBD10A02521815045219E51A02
:401D000011E01A605A609A60DA601A615A619A61DA611A625A629A62DA621A635A639A63DA63403D40333F2DEBDCE51A05E01A605A609A60DA60103D10330F2DF7DCE51AED
:401D400001E004C3043D032DFBDC01E0197001339C42FBD8C6E7C04608B500F01DF80A4B002B01D1002000E01868084B002B01D1002100E019680022FEF71EFB044B002B61
:401D800001D000E000BFFEE7000000000000000000000000FEE7000070B50D4D0D4E761BB610002E05D0002408CD01349847A642FAD800F095F8084D084E761BB610002E41
:401DC00005D0002408CD01349847A642FAD870BDEC1E0000EC1E0000EC1E0000F41E000001010101010000000200000004000000080000001000000020000000010203049D
:401E0000050000003C7878787800000050505050500000000000FF0F00000000000000000000014004000140080001400C0001400800044008010440080204400803044091
:401E400000000440000104400002044000030440640000001400000000000000010000000000000005000000C03F00000800000000300F40000400400F40000404300F402E
:401E800001310F4002330F4003400F4008410F4002420F400E430F4038803E4058045F011801B401E63850405680D460630287018A808C4094809E80D640E6106C40DC02BD
:401EC00018801A081C806102860488408C40A102B440B502C60ED802E60CEC0804000000F8B5C046F8BC08BC9E4670479D03000049060000F8B5C046F8BC08BC9E467047AA
:401F00008903000000000000181F0000C800002038000000600000000000000000366E01C05D0000180000000000E02E1F0000000801044008010440080104400801044023
:401F400008010440010C000001000000C0F1FF0F00000000000000000000000000000000000000000000000000000000000000000000000000000000000000000000000047
:401F80000000000000000000000000000000000000000000000000000000000000000000000000000000000000000000000000000000000000000000000000000000000021
:401FC00000000000000000000000000000000000000000000000000000000000000000000000000000000000000000000000000000000000000000000000000000000000E1
:4020000000000000000000000000000000000000000000000000000000000000000000000000000000000000000000000000000000000000000000000000000000000000A0
:402040000000000000000000000000000000000000000000000000000000000000000000000000000000000000000000000000000000000000000000000000000000000060
:0200000490303A
:02000000ED0F02
:0200000490501A
:0C000000000204C81193110104D1FEA2FB
:0200000490600A
:0100000001FE
:0200000490402A
:4000000000000000000000000000000000000000000000000000000000000000000000000000000000000000000000000000000000000000000000000000000000000000C0
:00000001FF
