:400000000080002011000000090400000904000008B5044B1A6803F53F5302331A6000F00DFA00BFFA46004010B5054C237833B9044B13B10448AFF300800123237010BD56
:400040009881FF1F00000000A428000008B5064B1BB106480649AFF300800648036813B1054B03B1984708BD00000000A42800009C81FF1F0881FF1F000000002DE9F04FBC
:4000800083B062B600F09AF8834601F0C3FD00F077FE00F0B9FD01F0A5FB00F085FE00F0C7FD01F0B3FB0024002700F07DFE204600F082FE204600F08BFE1FFA80F9012079
:4000C00000F086FE1FFA80F800F0B2FD204600F0B7FD204600F0C0FD85B2012000F0BCFD1FFA80FA01F0E0FB86B20096284629464A46434600F0C2F808B900F047F94846F2
:40010000012100F041F881464046012100F03CF880462846214600F037F805465046214600F032F882463046022100F02DF806464846414600F0D0F880462846514600F07B
:40014000CBF805464046394602F05EFA20B92846394602F059FA08B100F018F9CDF800B0404629463A46334600F002F902F07EFA01F0BAFE0022002301F072FF002894D0C9
:4001800000F004F991E700BF08B511B1012906D00BE002F04DF8074902F056F906E002F047F8044902F050F900E00020024902F097F808BD00F07F450000C84210B51C20FA
:4001C00002F0A6FA044600F0E5F82060002222610023A3606360E3606261204610BD00BF2DE9F843044689469046066801F020FD0546074601F0B8FC01F00CFD3046494658
:4002000042462B4600F0CEF823694B4423616068414601F05DFF6060636901336361A3691D44A56113E0304600F0E0F80546027823699B1A23616068696801F047FF606092
:400240006369013B6361AA68A3699B1AA361B7F5FA4FE8DC6668606901F0EEFF05463046294602F0F1F8A060206901F0E5FF294602F0EAF8E060BDE8F88300BF38B141B107
:400280004AB153B1BDF800304BB900207047002070470020704700207047002070470120704700BF0000000008B503460846194601F00CFF20F0004001F028FE04A3D3E913
:4002C000002301F0D7FE08B1012008BD002008BD9A9999999999B93F38B505460C46FFF7E3FF40B12846214601F0F2FE4FF07C5101F0F6FF38BD002038BD00BF10B50C4627
:40030000064902F0A9F928B12046054902F0A4F910B910BD002010BD012010BD0000A04000002041F8B5064617461C4601F0CEFE20F0004538463146FFF7E0FF01462046CB
:400340002A46FFF74DFFA068074902F085F930B9E068064902F080F918B10020F8BD0020F8BD0120F8BD00BF000020410000B44210B50446084611461A46029BFFF7D2FF41
:4003800008B9002010BD204610BD00BF08B501F0EBFB08BD08B5082002F0BAF900224260026008BD2DE9E8410546884617461E46406860B9102002F0ABF968600023C36021
:4003C00080F80080476086602860BDE8E881102002F09EF90023C36080F80080476086606B68D8606860BDE8E88100BF38B5054604683CB1E3680360204602F091F92B680A
:4004000003B96B60204638BDFEE700BF08B5094B1B681844084A821A802A02DC054A106005E002F049F90C2303604FF0FF33184608BD00BF0C81FF1F2082FF1F80B5104F14
:40044000104E002415E031687368B568224604E051F8040B43F8040B0432AA42F8D1F168224602E043F8044B04328A42FAD11036013F002FE7D102F025F9FFF7FFFDFEE74D
:40048000010000002029000010B5134A134B1A6008331A6842F400721A6000231048114C114908E0032B02D854F8232000E0024641F8232001332F2BF4D90C4B1A780C4B29
:4004C0001A70094A0B4B1A6000F038F900F000FA0022094B1A6010BD0004FA050CED00E009040000000000000080FF1FBC7600400481FF1F08ED00E00081FF1FFEE700BFD3
:40050000F0B400231F4611E050F82760F2B226F0FF0608E001EB430511F813406D78A5550133013AD2B2002AF4D101372A2FEBD9F0BC704770B41D4B1B78DBB21C4A107885
:40054000C0B21C490C78E4B203F007061A4D2E701B0901352B7040F00303137044F003030B7040F20345154B1D803025D1331D704023134D2B7002352B7006352B70023588
:400580002B7004250F4B1D70212523331D7003230D4D2B70202603352E702D352B700C7010704422094B1A7070BC7047CF010049F8460040F94600406E5800402C51004037
:4005C00001590040005B0040285B00407658004008B50A46002102F0B4F808BD08B502F0A7F808BDF8B500253A4B1D80502202331A700E2202331A80182337490B700231C4
:400600000A80364A1370172102321180023213703321023211800232137040F2ED2102321180023213702E482E490422FFF7D6FF02222D4B1A7008234FF040221370032176
:4006400002F500721170294A1178C9B2284A1170A2F27F42138041F25122264B1A801924254F4FF4F0760AE03B7803F0010343EA450505F00305304600F016F9013C0CB1BC
:40068000032DF1D114B90320FFF738FF1B4B4FF480721A8007221A70002219490A704820023108701A700222033B1A7004220A331A7003F297331A7842F03F021A70013B45
:4006C0001A7842F001021A70013B1A7842F080021A70F8BD80400040864000408A40004000410040BC0B00480043004008010049A14600402042004025420040044000407F
:4007000006400040012807D8044A52F820301044017A1A780A431A70704700BFA8280000012808D8044A52F820301044017A1A7822EA01021A707047A828000038B572B63E
:400740003E4B1A7842F004021A7000243C4D09E004EB44035B002B4418689988FFF738FF0134E4B2072CF3D90024364D0AE004EB84035B002B44186859681A89FFF72EFF96
:400780000134E4B2012CF2D94FF090402E49FFF7B7FE0A252D4B1D702D480421FFF718FF2C482D490422FFF719FF2C482C490422FFF714FF2B482C490422FFF70FFF2B4BAC
:4007C0001A7842F002021A7010331A7842F002021A70274C237843F040032370254B1A7842F010021A70244824492A46FFF7F6FE234824490822FFF7F1FE23482349082210
:40080000FFF7ECFE224823490822FFF7E7FE224B1A7842F008021A70204D61232B70FFF7E1FE81232B7001221D4B1A70FFF782FE1C4821460E22FFF7D1FE38BDE8460040EA
:40084000B4280000E4280000AC000048835800400076004008760040C00B004810760040C40B004818760040C80B004803500140A0430040C2430040C0510040980B0048FC
:40088000F2510040A40B004812510040AC0B004822510040B40B0048224300400048004004000840B04300400230800800F0058000BF013800467FF4FCAF7047EFF3108002
:4008C00072B6704780F31088704700BFAFF300800B4A7F2313708021517007E0DA0002F1804202F5F042013BDBB21370002BF5D1DB0003F1804303F5F04300221A7070479E
:400900001081FF1F172815D831B102010A4BD15C41F02001D15405E00201074BD15C01F0DF01D1540001044BC25C42F00102C25400207047012070471070004017280CD856
:400940000001074BC218117941F004011171C25C42F00102C254002070470120704700BF1070004017280BD80001064BC25C02F0F10201F0070142EA4101C15400207047A7
:40098000012070471070004041F6FF73994201D14FF4005141F6FF739A4201D14FF40052172808D8C00000F1804000F5EC408180C280002070470120704700BF172805D84B
:4009C000034B03EB0010417200207047012070471070004010B417281AD8C40004F1804404F5EC44D201D2B201F07F01114321709DF804201201D2B203F00F0313436370C3
:400A00009DF8083003F00F03A3700020E07000E001205DF8044B704710B5FFF74FFF0A4B5B78182B0BD9084A1478013B5370E30003F1804303F5F0431B78137000E0FF24F2
:400A4000FFF740FF204610BD1081FF1F10F0800F0CD111F4704F0BD1C00000F1804000F5F04001808270C37000207047012070470120704710F0800F08D1C00000F18040B7
:400A800000F5F0408180C280002070470120704701BE704708B5034B1B7A03FB00F0FFF703FF08BD1881FF1F70B505460E46074B1C681F2802D90020FFF7EAFF05F01F05D3
:400AC000103554F8250044F8256070BD08ED00E038B505460C46072902D90020FFF7D8FF1F2D02D90020FFF7D3FF05F01F0000F1604000F564406401E4B2047038BD00BF8B
:400B000010B5022001214FF4804241F6FF7300F017FA084C20700420012141F6FF72134600F02EFA6070044800F04CFA012000F04FFA10BDB481FF1F750C000070B52C4CD0
:400B40002078FFF7FBFE6078FFF7F8FE294B1B78FF2B03D1FFF760FF264B1870254C2278104604210623FFF771FF214D2E1DB6B2207845F6A2313246FFF77CFF28782178D9
:400B8000FFF71CFF6378FF2B02D1FFF745FF6070184D6A78104604210723FFF757FF68783146154A92B2FFF765FF114C60786978FFF704FF20780121FFF7A4FE607801215B
:400BC000FFF7A0FEFFF77AFE0C4B1A7842F020021A70FFF777FE0A4B1A7842F001021A701A7842F002021A700222064B1A6070BDB481FF1F2881FF1FF081FF1F97650040C8
:400C00007465004080E200E008B5074B9B6823B9FFF776FF0122044B9A60FFF78FFF00F081F9024B1B7808BDB481FF1F66650040024B1A7842F004021A7070477465004032
:400C400004490B7803F0FF020BB90028F9D01046704700BF66650040C0F10100034B33F81000034B1B88C01A00B27047F081FF1FF881FF1F704700BF10B5022001214FF4CD
:400C8000804241F6FF7300F053FA084C20700420012141F6FF72134600F06AFA6070044800F084FA002000F087FA10BDC081FF1FED0D000070B52C4C2078FFF73FFE60788C
:400CC000FFF73CFE294B1B78FF2B03D1FFF7A4FE264B1870254C2278104604210623FFF7B5FE214D2E1DB6B2207845F6A0313246FFF7C0FE28782178FFF760FE6378FF2B53
:400D000002D1FFF789FE6070184D6A78104604210723FFF79BFE68783146154A92B2FFF7A9FE114C60786978FFF748FE20780121FFF7E8FD60780121FFF7E4FDFFF7BEFD18
:400D40000C4B1A7842F020021A70FFF7BBFD0A4B1A7842F001021A701A7842F002021A700122064B1A6070BDC081FF1F2A81FF1FF481FF1F9C6400407B64004080E200E08F
:400D800008B5074B9B6823B9FFF776FF0122044B9A60FFF78FFF00F0BDF9024B1B7808BDC081FF1F6F640040024B1A7842F004021A7070477B64004004490B7803F0FF02F2
:400DC0000BB90028F9D01046704700BF6F640040C0F10100034B33F81000034B1B88C01A00B27047F481FF1F0482FF1F704700BF08B50A280FD00C2802D0082806D102E086
:400E00004FF4805209E04FF4807206E00020FFF73FFE002201E04FF48062002309490B8042F2107101FB02F202F6C412064981FB0201D217C2EBE12204490A60044A1380AC
:400E400008BD00BF0282FF1FAD8BDB68FC81FF1FF881FF1F10B5FFF731FD0446194B1A7842F002021A7010331A7842F002021A7003F5AA5310331A7842F003021A7018225C
:400E800003331A70013B1A7842F040021A701A7802F0FC021A70CE22053B1A700222A3F59753123B1A7003F5A85319331A7842F008021A700A20FFF7EDFD2046FFF702FD67
:400EC00010BD00BFAB43004010B504460A280DD00C2802D0082804D101E0C22207E0422205E00020FFF7D4FDC22200E08222034B1A702046FFF77CFF10BD00BF0A590040ED
:400F000008B5064B1A7842F006021A700C20FFF7DBFF0022024B1A8008BD00BF095900400082FF1F08B5054B1B7823B9FFF7E8FF0122024B1A70FFF78DFF08BDCC81FF1F7D
:400F4000F0B583B084468E4617461E460B4C03232370002500950195184661467246FFF739FD207839463246FFF70EFD20780221FFF7F8FC207803B0F0BD00BF2C81FF1F3A
:400F80002DE9F04182B084468E4690461F460C4C022525700026009601962846614672462B46FFF717FD207841463A46FFF7ECFC20782946FFF7D6FC207802B0BDE8F08184
:400FC0002D81FF1F014B1B685864704708ED00E04001C0B2014B1870704700BF01E400E008B50A280FD00C2802D0082806D102E04FF4805209E04FF4807206E00020FFF760
:4010000047FD002201E04FF48062002309490B8042F2107101FB02F202F6C412064981FB0201D217C2EBE12204490A60044A138008BD00BF0882FF1FAD8BDB680C82FF1F7F
:401040000482FF1F10B5FFF739FC0446194B1A7842F001021A7010331A7842F001021A7003F5AA5308331A7842F003021A70182203331A70013B1A7842F040021A701A786E
:4010800002F0FC021A70CE22053B1A700222A3F597530C3B1A7003F5A85313331A7842F008021A700A20FFF7F5FC2046FFF70AFC10BD00BFAB43004010B504460A280DD0A9
:4010C0000C2802D0082804D101E0C22207E0422205E00020FFF7DCFCC22200E08222034B1A702046FFF77CFF10BD00BF0259004008B5064B1A7842F006021A700C20FFF73E
:40110000DBFF0022024B1A8008BD00BF015900400682FF1F08B5054B1B7823B9FFF7E8FF0122024B1A70FFF78DFF08BDCD81FF1FF0B583B084468E4617461E460B4C012350
:401140002370002500950195184661467246FFF741FC207839463246FFF716FC20780221FFF700FC207803B0F0BD00BF2E81FF1FF0B583B086460F4616461D460A4C0023A3
:40118000237000930193184671463A46FFF722FC207831462A46FFF7F7FB20780221FFF7E1FB207803B0F0BD2F81FF1F014B1B681864704708ED00E04001C0B2014B1870B4
:4011C000704700BF00E400E038B59DF81040651EEDB2032D49D80138092826D8DFE800F00525250525250D15251D0F2B02D9214800781BE02048007818E00F2B02D91F480A
:40120000007813E01E48007810E00F2B02D91D4800780BE01C48007808E00F2B02D91B48007803E01A48007800E0002040B201EB401101FB02F2D20B90B20D2B0AD8C3F11B
:401240000E01084180B2134A02EB8402013302F8023C05E00F4B03EB84030F2203F8022C013C0C4B23F8240038BD0020FFF710FC38BD00BF180100491C01004919010049D1
:401280001D0100491A0100491E0100491B0100491F010049D081FF1FF8B50746FFF70EFB06460D4D2B7843F003032B700B4C237843F0030323700A4B1F700320FFF7EAFB08
:4012C0002B7803F0FC032B70237803F0FC0323703046FFF7F7FAF8BDF8460040F946004092580040F8B504460022C04B1A7401285BD13822BE4B1A70052702331F70072258
:4013000001331A70002501331D7001331D702D2201331A7002331D7001331D7001331D7001260A331E70142203F527631A7001331F70162201331A7001331D7044220333AD
:401340001A70482201331A7001331E7002331E70112201331A70192201331A70972201331A705220FFF798FF5822A24B1A7001331D7005331F70022201331A7001331D70BA
:4013800001331D70284600F0BBFA40F6CD429A4B1A600C20314600F0D7FA3320314600F05DFB1D209549FFF77FFB022C5DD138228F4B1A70042202331A70062201331A70CF
:4013C000002501331D7001331D703F2201331A7002331D7001331D7001331D7001260A331E70502203F527631A70272201331A702C2201331A7001331D70552203331A7068
:401400005A2201331A70052701331F7002331E70112201331A70192201331A70972201331A704420FFF738FF5822724B1A7001331D7005331F70022201331A7001331D70E2
:4014400001331D70284600F05BFA4FF47A426A4B1A600820314600F077FA2520314600F0FDFA1D206649FFF71FFB032C5DD138225F4B1A70042202331A70062201331A7075
:40148000002501331D7001331D703F2201331A7002331D7001331D7001331D7001260A331E70502203F527631A70272201331A702C2201331A7001331D70552203331A70A7
:4014C0005A2201331A70052701331F7002331E70112201331A70192201331A70972201331A704420FFF7D8FE5822424B1A7001331D7005331F70022201331A7001331D70B3
:4015000001331D70284600F0FBF94FF47A423A4B1A600820314600F017FA2520314600F09DFA1D203749FFF7BFFA042C5DD138222F4B1A70042202331A70062201331A70C4
:40154000002401331C7001331C703F2201331A7002331C7001331C7001331C7001250A331D70502203F527631A70272201331A702C2201331A7001331C70552203331A70EF
:401580005A2201331A70052601331E7002331D70112201331A70192201331A70972201331A704420FFF778FE5822124B1A7001331C7005331E70022201331A7001331C7088
:4015C00001331C70204600F09BF94FF47A420A4B1A600820294600F0B7F92520294600F03DFA1D200849FFF75FFAF8BDD081FF1F004E0040945800401482FF1FD118000009
:40160000D5180000D9180000DD1800002DE9F04182B03A4D4FF0010885F80080384E00247474102000F07EF9102000F005FA1D200721FFF74DFA0427324B1F7001331C70B1
:4016400007331C7003F269231A7842F018021A70A3F51D731C7003F2F5231C7001331C700A22A3F209331A7001331C7002331C70122205331A70132201331A7004331C70FA
:401680001422A3F68C231A70CDF80080022048F66B5147F2E9720E23FFF796FD02230093204649F2DA014FF400421023FFF78CFD03230093204649F2DA014FF4004210231B
:4016C000FFF782FD0097204649F2DA014FF400421023FFF779FD2B7806EB830313F8022C094B1A702B78013B36F82320074B1A802878FFF7F7FD02B0BDE8F0813081FF1FB0
:40170000D081FF1F965800400E4E00400C4E004070B5FFF7D3F806462B4B1B782B4B1A7842F001021A701A7842F010021A7010331A7842F001021A701A7842F010021A7080
:40174000234D2B7843F002032B70224C237843F002032370204B1A7842F003021A700320FFF798F92B7803F0FD032B70237803F0FD032370194B1A7842F006021A707A229F
:401780000B331A70A3F5A753013B1A7842F001021A7010331A7842F001021A700F3B1A7842F001021A7010331A7842F001021A704FF000530A4A1360A2F5C0721360304674
:4017C000FFF780F870BD00BF3081FF1FAA430040F8460040F9460040915800407758004080E200E008B5084B9B7C4BB9064BDB7C13F0FF0F01D1FFF709FF0122024B9A74EA
:40180000FFF786FF08BD00BFD081FF1F024B1A7842F001021A707047004E0040024B1A7802F0FE021A707047004E0040084A0949137C13F0FF0F02D0537CDBB202E00B78E0
:4018400003F00103012B01D00028F1D018467047D081FF1F014E00400E4B1B7803F00303012B03D80C4B188880B209E00A4A12780A49087842EA0020032B01D1084B1B7897
:40188000084B1B7C13F0FF0F02D00022054B5A7400B27047144E0040104E0040114E0040124E0040D081FF1F10B5084B1A7842F004021A70FFF7AAFF0020FFF7B7FFFFF7F7
:4018C000CBFF0446FFF7AAFF204610BD014E0040704700BF704700BF704700BF704700BF10B5002404E02046FEF71AFF0134E4B2012CF8D9FF22014B1A7010BD3181FF1FFD
:4019000010B50446FFF7ECFF2046FEF7FBFE014B1C7010BD3181FF1F014B188880B2704780400040034B1A7800F0F80002431A70704700BF82400040024B187800F0070036
:40194000704700BF8240004070B504460E46FFF7F3FF0546FFF7E0FF0346844258D02D4A127802F0010195B900B184B93BB92A4B1C8002331A7802F0BF021A7070BD274B14
:401980001A7842F040021A70023B1C8070BD29B300222348027001250F30057004300270204A107800F07F0010707A32127812F0080F00D094B91C4A13800722184B1A70DA
:4019C0001A46137813F0010FFBD1124B1A7802F0FE021A700022A3F2A1331A700D4B1B7813F0010F0DD0104B1C800EB1032200E001220B4B1A701A46137813F0010FFBD13A
:401A000070BD054B1C8003F222331A781143197070BD00BFA24300408040004082400040014000400840004002400040014B188880B2704700410040034B1A7800F0F80018
:401A400002431A70704700BF02410040024B187800F00700704700BF0241004070B504460E46FFF7F3FF0546FFF7E0FF0346844258D02D4A127802F0010195B900B184B99E
:401A80003BB92A4B1C8002331A7802F0BF021A7070BD274B1A7842F040021A70023B1C8070BD29B300222348027001251330057004380270204A107800F07F001070FA3274
:401AC000127812F0080F00D094B91C4A13800722184B1A701A46137813F0010FFBD1124B1A7802F0FE021A700022A3F568731A700D4B1B7813F0010F0DD0104B1C800EB132
:401B0000032200E001220B4B1A701A46137813F0010FFBD170BD054B1C8003F2A1231A781143197070BD00BFA14300400041004002410040014000400840004002400040F3
:401B4000084B1A7842F002021A7010331A7842F002021A7003F659331A7842F001021A70704700BFA3430040084B1A7802F0FE021A70A3F669331A7802F0FD021A701033D3
:401B80001A7802F0FD021A70704700BF0C4F0040014B1870704700BF0F4F0040014B1880704700BF104F0040014B1880704700BF124F004008B5164B1A7802F001021A70FC
:401BC00002331A7802F0FC021A7009331A7802F0CF021A701A7842F030021A701A7802F0F0021A701A7842F00F021A700A3B1A7842F001021A704FF6FF70FFF7CFFF4FF657
:401C0000FF70FFF7D1FF0820FFF7C2FF08BD00BF0C4F004008B5054B1B7823B9FFF7CAFF0122024B1A70FFF78BFF08BDE481FF1F024B1B88024B188880B27047124F00400D
:401C4000144F004081F0004102E000BF83F0004330B54FEA41044FEA430594EA050F08BF90EA020F1FBF54EA000C55EA020C7FEA645C7FEA655C00F0E2804FEA5454D4EB36
:401C80005555B8BF6D420CDD2C4480EA020281EA030382EA000083EA010180EA020281EA0303362D88BF30BD11F0004F4FEA01314FF4801C4CEA113102D0404261EB4101D7
:401CC00013F0004F4FEA03334CEA133302D0524263EB430394EA050F00F0A780A4F10104D5F1200E0DDB02FA0EFC22FA05F2801841F1000103FA0EF2801843FA05F3594146
:401D00000EE0A5F120050EF1200E012A03FA0EFC28BF4CF0020C43FA05F3C01851EBE37101F0004507D54FF0000EDCF1000C7EEB00006EEB0101B1F5801F1BD3B1F5001FD9
:401D40000CD349085FEA30004FEA3C0C04F101044FEA445212F5800F80F09A80BCF1004F08BF5FEA500C50F1000041EB045141EA050130BD5FEA4C0C404141EB010111F4B3
:401D8000801FA4F10104E9D191F0000F04BF01460020B1FA81F308BF2033A3F10B03B3F120020CDA0C3208DD02F1140CC2F10C0201FA0CF021FA02F10CE002F11402D8BF67
:401DC000C2F1200C01FA02F120FA0CFCDCBF41EA0C019040E41AA2BF01EB0451294330BD6FEA04041F3C1CDA0C340EDC04F11404C4F1200220FA04F001FA02F340EA03006D
:401E000021FA04F345EA030130BDC4F10C04C4F1200220FA02F001FA04F340EA0300294630BD21FA04F0294630BD94F0000F83F4801306BF81F480110134013D4EE77FEA69
:401E4000645C18BF7FEA655C29D094EA050F08BF90EA020F05D054EA000C04BF1946104630BD91EA030F1EBF0021002030BD5FEA545C05D14000494128BF41F0004130BDC9
:401E800014F580043CBF01F5801130BD01F0004545F0FE4141F470014FF0000030BD7FEA645C1ABF194610467FEA655C1CBF0B46024650EA013406BF52EA033591EA030F20
:401EC00041F4002130BD00BF90F0000F04BF0021704730B54FF4806404F132044FF000054FF0000150E700BF90F0000F04BF0021704730B54FF4806404F1320410F000455F
:401F000048BF40424FF000013EE700BF42004FEAE2014FEA31014FEA02701FBF12F07F4393F07F4F81F06051704792F0000F14BF93F07F4F704730B54FF4607401F0004516
:401F400021F0004120E700BF50EA010208BF704730B54FF000050AE050EA010208BF704730B511F0004502D5404261EB41014FF4806404F132045FEA915C3FF4DCAE4FF02A
:401F800003025FEADC0C18BF03325FEADC0C18BF033202EBDC02C2F1200300FA03FC20FA02F001FA03FE40EA0E0021FA02F11444C1E600BF4FF0FF3C06E000BF4FF0010C91
:401FC00002E000BF4FF0010C4DF804CD4FEA410C7FEA6C5C4FEA430C18BF7FEA6C5C1BD001B050EA410C0CBF52EA430C91EA030F02BF90EA020F0020704710F1000F91EAE3
:40200000030F58BF994208BF90422CBFD8176FEAE37040F0010070474FEA410C7FEA6C5C02D150EA013C07D14FEA430C7FEA6C5CD6D152EA033CD3D05DF8040B704700BF64
:402040008446104662468C461946634600E000BF01B5FFF7B7FF002848BF10F1000F01BD4DF808EDFFF7F4FF0CBF012000205DF808FB00BF4DF808EDFFF7EAFF34BF01204D
:4020800000205DF808FB00BF4DF808EDFFF7E0FF94BF012000205DF808FB00BF4DF808EDFFF7CEFF94BF012000205DF808FB00BF4DF808EDFFF7C4FF34BF012000205DF80B
:4020C00008FB00BF80F0004002E000BF81F0004142001FBF5FEA410392EA030F7FEA226C7FEA236C6AD04FEA1262D2EB1363C1BFD218414048404140B8BF5B42192B88BF44
:40210000704710F0004F40F4000020F07F4018BF404211F0004F41F4000121F07F4118BF494292EA030F3FD0A2F1010241FA03FC10EB0C00C3F1200301FA03F100F0004317
:4021400002D5494260EB4000B0F5000F13D3B0F1807F06D340084FEA310102F10102FE2A51D2B1F1004F40EBC25008BF20F0010040EA03007047490040EB000010F4000FFA
:40218000A2F10102EDD1B0FA80FCACF1080CB2EB0C0200FA0CF0AABF00EBC25052421843BCBFD0401843704792F0000F81F4000106BF80F400000132013BB5E74FEA410399
:4021C0007FEA226C18BF7FEA236C21D092EA030F04D092F0000F08BF0846704790EA010F1CBF0020704712F07F4F04D1400028BF40F00040704712F100723CBF00F50000D5
:40220000704700F0004343F0FE4040F4000070477FEA226216BF08467FEA23630146420206BF5FEA412390EA010F40F4800070474FF0000304E000BF10F0004348BF4042B6
:402240005FEA000C08BF704743F0964301464FF000001CE050EA010208BF70474FF000030AE000BF50EA010208BF704711F0004302D5404261EB41015FEA010C02BF844690
:402280000146002043F0B64308BFA3F18053A3F50003BCFA8CF2083AA3EBC25310DB01FA02FC634400FA02FCC2F12002BCF1004F20FA02F243EB020008BF20F00100704788
:4022C00002F1200201FA02FCC2F1200250EA4C0021FA02F243EB020008BF20EADC7070474FF0FF0C1CEAD0521EBF1CEAD15392EA0C0F93EA0C0F6FD01A4480EA010C400264
:4023000018BF5FEA41211ED04FF0006343EA501043EA5111A0FB01310CF00040B1F5000F3EBF490041EAD3715B0040EA010062F17F02FD2A1DD8B3F1004F40EBC25008BF8F
:4023400020F00100704790F0000F0CF0004C08BF49024CEA502040EA51207F3AC2BFD2F1FF0340EAC250704740F400004FF00003013A5DDC12F1190FDCBF00F000407047E2
:40238000C2F10002410021FA02F1C2F1200200FA02FC5FEA310040F1000053EA4C0308BF20EADC70704792F0000F00F0004C02BF400010F4000F013AF9D040EA0C0093F0A3
:4023C000000F01F0004C02BF490011F4000F013BF9D041EA0C018FE70CEAD15392EA0C0F18BF93EA0C0F0AD030F0004C18BF31F0004CD8D180EA010000F00040704790F09B
:40240000000F17BF90F0004F084691F0000F91F0004F14D092EA0C0F01D142020FD193EA0C0F03D14B0218BF084608D180EA010000F0004040F0FE4040F40000704740F0EE
:40244000FE4040F4400070474FF0FF0C1CEAD0521EBF1CEAD15392EA0C0F93EA0C0F69D0A2EB030280EA010C49024FEA402037D04FF0805343EA111143EA10130CF0004031
:402480008B4238BF5B0042F17D024FF4000C8B4224BF5B1A40EA0C00B3EB510F24BFA3EB510340EA5C00B3EB910F24BFA3EB910340EA9C00B3EBD10F24BFA3EBD10340EA62
:4024C000DC001B0118BF5FEA1C1CE0D1FD2A3FF650AF8B4240EBC25008BF20F0010070470CF0004C4CEA50207F32C2BFD2F1FF0340EAC250704740F400004FF00003013A5E
:4025000037E792F0000F00F0004C02BF400010F4000F013AF9D040EA0C0093F0000F01F0004C02BF490011F4000F013BF9D041EA0C0195E70CEAD15392EA0C0F08D14202EE
:402540007FF47DAF93EA0C0F7FF470AF084676E793EA0C0F04D14B023FF44CAF08466EE730F0004C18BF31F0004CCAD130F000427FF45CAF31F000437FF43CAF5FE700BF6A
:402580004FF0FF3C06E000BF4FF0010C02E000BF4FF0010C4DF804CD4FEA40024FEA41037FEA226C18BF7FEA236C11D001B052EA530C18BF90EA010F58BFB2EB030088BF63
:4025C000C81738BF6FEAE17018BF40F0010070477FEA226C02D15FEA402C05D17FEA236CE4D15FEA412CE1D05DF8040B704700BF844608466146FFE70FB5FFF7C9FF00280A
:4026000048BF10F1000F0FBD4DF808EDFFF7F4FF0CBF012000205DF808FB00BF4DF808EDFFF7EAFF34BF012000205DF808FB00BF4DF808EDFFF7E0FF94BF012000205DF815
:4026400008FB00BF4DF808EDFFF7D2FF94BF012000205DF808FB00BF4DF808EDFFF7C8FF34BF012000205DF808FB00BF4FEA4002B2F1FE4F0FD34FF09E03B3EB12620DD985
:402680004FEA002343F0004310F0004F23FA02F018BF404270474FF00000704712F1610F01D1420205D110F0004008BF6FF0004070474FF000007047014B1868704700BFF0
:4026C0009481FF1F70B50E4B0E4D0024ED1AAD101E46AC4204D056F8242090470134F8E700F00CF9084D094B0024ED1AAD101E46AC4204D056F8242090470134F8E770BDED
:4027000008290000082900001029000008290000024B0146186800F061B800BF9481FF1F024B0146186800F015B800BF9481FF1F10B50023934203D0CC5CC4540133F9E717
:4027400010BD02440346934202D003F8011BFAE77047000030B500293CD051F8042C0B1F1D49002AB8BF9B180A680C4612B95A600B6030BD93420DD219685818904203D144
:402780005A581144426819605A60236030BD994203D80A4651680029F9D1146815199D420AD11B682344D0188842136012D10868034413604B680CE002D90C23036030BD9A
:4027C00018681C188C4203D10C684968204418605960536030BD00BFEC81FF1F70B5CD1C25F0030508350C2D38BF0C25002D06463FDB8D423DD3214B1C6818462146A1B19D
:402800000B685B1B0ED40B2B03D90B60CC18CD501FE08C4202D1626802601AE04B6863600C4616E00C464968E9E7154C23681BB9304600F027F820602946304600F022F844
:40284000431C014615D0C41C24F0030484420AD1256004F10B00231D20F00700C31A0BD05A42E25070BD3046611A00F00BF80130EED10C233360002070BD00BFEC81FF1F75
:40288000E881FF1F38B5064C0023054608462360FDF7BCFD431C02D1236803B12B6038BD1882FF1F00000000035B00402443004040000000004F00401800005100401000F0
:4028C00030510040400000000140001000140140000800400140000A004C0140000210500140100060520040800B0048060000500140880B0048100043000000F8B500BF68
:40290000F8BC08BC9E4670474D00000089040000F8B500BFF8BC08BC9E46704729000000302900000881FF1F9000000088000000000000002082FF1F7F8000000F0000001C
:402940000000E02EC05D00001800000000366E01FFFFFFFFFFFFFFFF01FF00000000000000000000000000000000000000000000000000000000000000000000F828000057
:402980000000000000000000000000000000000000000000000000000000000000000000000000000000000000000000000000000000000000000000000000003481FF1F44
:4029C00000000000000000000000000000000000000000000000000000000000000000000000000000000000000000000000000000000000000000000000000000000000D7
:402A00000000000000000000000000000000000000000000000000000000000000000000000000000000000000000000000000000000000000000000000000000000000096
:402A40000000000000000000000000000000000000000000000000000000000000000000000000000000000000000000000000000000000000000000000000000000000056
:402A80000000000000000000000000000000000000000000000000000000000000000000000000000000000000000000000000000000000000000000000000000000000016
:020000040003F7
:0200000480007A
:40000000044F004004520040025B00400264004003650040160001402F0101400E020140370301401A0401403905014021060140430701404B080140540901402F0A01409B
:40004000490B0140340C0140470D0140210E01402D0F01402C1401404215014011160140421701403818014045190140321A0140491B01400E400140064101400A420140C7
:400080000C43014004440140074501400F4601400B4701400A48014003490140104C01400E4D0140055001400251014001300A9C0D50161B084010031102782027842F8425
:4000C000870F8C01870188388B72030205010F01130819081E011F10210225042B043001331F39083F04580459045C225F01D804D904DC22DF010008030206040810090803
:400100000A400B020D200E400F10111414401504172019011A40201021082320281029212A042B012D04300131A8341035013608380839043B523C183F02830184418510A9
:4001400086088753C045C27FC476CA4FCCEFCEEFE20AE60F580459045C225F018A029301AE01B401B501B602D804D904DC22DF010008012004080501080209080A040D2074
:400180000F90105013501440172018081A061B402008212028022B402E0430413128330434423501370438083B103C083F90834093509408984199219B209C10A108A2403A
:4001C000A404A520A920AE40B180B410B501C036C27EC45FCA49CCDFCE76E004EE01050106020D0413101B081F042108220125022B012E042F0230013204331F3602390846
:400200003F04580459045C115F01D804D904DC12DF010040039004080501081009080B010D200F901081121414401720186019081B8221082208281129582B802D082F8074
:400240003080310832013310360838443A143B013C443D103F0180048108870290089310984099019B20A120A240A340AC10AE01B004B204C03DC277C45FCACFCC4FCEFF9B
:40028000E00DE601580459045C115F018302870189108B208F0491809201934095209602971099089D04A308A540A780A901AD02B1FFB201B402BF01D401D804D904DB04FD
:4002C000DC01DD40DF010108020303800464080809020A040C040D081110134815011606182419201A042201280829582A062B802D182F80308833113404352036023708F9
:40030000386439113A113B403C4058425A085B208018810287208840904094049510960297019A019D509E109F10A108A240A380A480A810AA01C0EDC22EC4D7CAEFCCEF91
:40034000CE1FD60FE004E202E604E80600110206042008200C20100C1213160818111A0E221326102A0C32103420360F38023A803E05580459045C245F0180408620890986
:400380008B108C038E1C8F03902A92149403951496049803992C9A349B119D40A130A215A30CA628A910AD1CAF22B00FB240B438B560B71FB920BA22BE04C045C102C5EB17
:4003C000C70CC813C9FFCAFFCBFFCEF0CF44D00CD804D904DA04DC44DD04DF01E6C0EA40EB0200020210030204280501070109080A040BC00C040E040F40122013021528E0
:40040000170219011A041B2A1D401E201F51200221502220280429412A102C802D042E402F043104328033203401352039A03D084204430249044A414B30510C5E025F021A
:40044000800482088301850887088A109104924093089782980199A09A109B029C409F04A082A114A280A608A722A840A920AE20AF80B540C0FDC27EC47CCAFDCCAECE4CD6
:40048000D005D208E280E402EC06040305030C030F0310021103150319032103220129022B0131023501360338803E404001464049FF4A074BFF4C404D204EF04F055008C6
:4004C0005608580459045A045B045C115D945F01604061A862406320D207D306D804D904DB04DC22DD20DF01032E05200620084409200B800C800D080E4210021288130A41
:40050000140115041A012040222028402B082C802D042E602F0430023120320834013520388039083D0842014404451C52905B8060026C106D90804681108584870891040A
:4005400092409308942895509702980199209C02A104A201A480A540AB10B001B104B220B310C067C2BFC4AFCAF5CCA7CE4AD008D608D808E601E820EC21010104040601D5
:4005800009040A020C20130214071608180A1A051B012001240F2A302D04301032033303340C3504362039203F1056025735580C59045B0C5C925D205F01810185018A01E0
:4005C0008B0190019101940199019A019D01A001A401AC01AD01B301B401D804D904DC22DF01001001200468088009040A410B080E281081110416A017101B101C401D084E
:400600001E292310271828012D403080310132203402371038103A013B083D103E215D105F0C67046D206E046F41768A7D8081018240850893089644970299209A019C8109
:400640009E0A9F41A104A201A550A620AB40B302B524B601B708C0E2C26EC47DCA18CCADCEA7D620D820DE10E002E810EA20EC40580459045C225F018102850189208B104D
:400680008E018F049180934097029B089D04A110A320A508A940AA02AB80AF01B201B602B7FFBF40D401D804D904DB0CDC02DD20DF01012002010520066007010A400B0862
:4006C0000C400E2210411220155017081E021F442702284129202A402C012E242F4432203630374939403A013B083D703E4A5C807D8080808202860C87448F01C0F3C2AAF0
:40070000C4EDCAFDCCF4CEFBD610DE1003020407060809040C040E01142015041A021B011C0A1E05210126302708280F29102C012F08302031043210331034033503360C96
:40074000370839023F4552075306580C59045B045C915D105F01D608D804D904DB04DC11DD90DF010322046005280A260C100D080F181008122013801602170819011A6257
:400780001B2021622224282129012B082D282E02312032083410370839103B023C403F105E806702680869506A1479408201830888018A088D409060954096589820990802
:4007C0009A039B809F08A108A240A30EA502A720B320C0E5C267C4A7CAEFCC66CE35D610D810DE08E004E8215401580459045B0C5C115D105F018E01B201D602D73DD8049C
:40080000D904DB0CDC11DD10DF01010803810460050809080B400C040D080F081110121116221708190829282A112B042D182F80310833803404352038603C403E205A10E4
:400840005E40610268886B117150738079407D408820906091109340964899209A039D589F11A108A240A38AA488AA40AC02AF0AB380B604B701C0EDC26CC4A7CAE7CC6AF5
:40088000CE3CD614D801DE18E484EA08EE020080030104090632081F10021245148018801F01201F2414262A2880300732183301348036603E503F04403641024204440103
:4008C00045E047C0482249FF4AFF4BFF4C624DA04EF04F41500C5418580459045A045B045C245D445F016640670269106A306B106D106E106F12D804D904DC11DF010004BC
:4009000001C00210030C04200509081409100D290EA01062148017141D841E881F08272028542C802D042E402F04302234013520374039403A103D09458A47104D014F107B
:40094000570159105B205E01651066808B0190049104924093389428984199A09F01A0A2A114AE40B040B420B704C075C276C47DCAF7CCB5CECCD0F0D220D680D830E28061
:40098000E484E880EA08EC10580459045C115F01800F82F084828508880C893F8EF38F019119932294F39519960C9724981C99279AE39B189C089F06A0C3A110A404A501B2
:4009C000A740A8FFA918AC41B02CB120B20FB41CB51FB6C0B740B902BA0ABB28D602D712D804D904DB04DC44DD40DF01000401C005250702081009100A400C800D200E200A
:400A000010621502160217181D011E2524102560275428502C802D282E20302632083480350136103704380439403C103D803E085E086C146F017480762877088248888052
:400A4000890A8A068B128E8090049102932094289601984099849C049D099E809F51A022A110A204A522A610B484C0F5C2EAC4FDCAE3CCF7CE7AD640E410E6A0E8A112104F
:400A8000134016883240358038083E8842018240C4F0CC30CEE0D010E680940896019A109D80AF40EC4017085B088004940896019A109D80C420D640E680190860406502D2
:400AC0008040810296019D80AE10C610D8C0E620E8407F808F80DE01E002220856205C108680C802D402D6041B08244044105380560883089A80A208A810B220C608C801CE
:400B0000D001D406EC014280451084049A809C10A208AB80AE08B440D006EA022310278281088B109908A980AE01C8E0E420EA30AB80B302E8801D20370839105D02810249
:400B40008B089C10A004A208A530AD20C601CC01CE08D601E4011040740488408A08A004A208A910B010B110C408DE04E201E601E805101611011A021B011C16000F10AAA6
:400B8000808000004000000016010000000000000400160016010401800040808000800000000000303000000030300000404000400000000303000000030700330018018C
:400BC00000010000000200000003000000000000000000000000000000000000000000000000000000000000000000000000000000000000000000000000000000000000EF
:400C000000000000000000000000000000000000000000000000000000000000000000000000000000000000000000000000000000000000000000000000000000000000B4
:400C40000000000000000000000000000000000000000000000000000000000000000000000000000000000000000000000000000000000000000000000000000000000074
:400C80000000000000000000000000000000000000000000000000000000000000000000000000000000000000000000000000000000000000000000000000000000000034
:400CC00000000000000000000000000000000000000000000000000000000000000000000000000000000000000000000000000000000000000000000000000000000000F4
:0200000490006A
:0400000000004005B7
:0200000490105A
:04000000BC90ACAF55
:0200000490303A
:02000000B972D3
:0200000490402A
:4000000000000000000000000000000000000000000000000000000000000000000000000000000000000000000000000000000000000000000000000000000000000000C0
:400040000000000000000000000000000000000000000000000000000000000000000000000000000000000000000000000000000000000000000000000000000000000080
:400080000000000000000000000000000000000000000000000000000000000000000000000000000000000000000000000000000000000000000000000000000000000040
:4000C0000000000000000000000000000000000000000000000000000000000000000000000000000000000000000000000000000000000000000000000000000000000000
:0200000490501A
:0C00000000012E16106900012E28C9DB3B
:00000001FF