:400000000080002011000000390100003901000008B5044B1A6803F53F5302331A6000F08DF800BFFA46004010B5054C237833B9044B13B10448AFF300800123237010BD7E
:400040002081FF1F000000003C13000008B5064B1BB106480649AFF300800648036813B1054B03B1984708BD000000003C1300002481FF1F0881FF1F0000000038B50024EA
:40008000FF2503E0284600F05BFA0134032CF9DD38BD00BF10B50446FFF7F0FF207800F04FFA607800F04CFAA07800F049FAE07800F046FAFFF7E2FF10BD00BFF0B583B0B7
:4000C00062B600F02FFA00F0EFFC00F017FB0026174F184D00F0FCFC304600F009FD00F0FFFC00F01BFD80B2FF2806D94FF6FF73984201D1304600E0FF2000F01FFF39461D
:4001000001F028F8294600F071FF294600F066FE01F0BCF884B2204600F0AAFA02A840F8044DFFF7B7FF142000F03CFAD2E700BF00007F4300007A44FEE700BF80B5104FDE
:40014000104E002415E031687368B568224604E051F8040B43F8040B0432AA42F8D1F168224602E043F8044B04328A42FAD11036013F002FE7D101F0A9F8FFF79FFFFEE72C
:4001800001000000B813000010B5124A124B1A6008331A6842F400721A6000230F48104C104908E0032B02D854F8232000E0024641F8232001332F2BF4D90B4B1A780B4BB1
:4001C0001A70084A0A4B1A6000F0F2F80022094B1A6010BD0004FA050CED00E039010000000000000080FF1FBC7600400481FF1F08ED00E00081FF1FFEE700BFF0B4002315
:400200001F4611E050F82760F2B226F0FF0608E001EB430511F813406D78A5550133013AD2B2002AF4D10137122FEBD9F0BC70470A4B1B78DBB203F00701094A11701B0999
:40024000013213700123A2F24272137002F6D31213704422034B1A70704700BFCF0100496E5800407658004008B50A46002101F05CF808BD08B501F04FF808BDF8B50025D4
:40028000324B1D80502202331A70172202331A8018232F4A1370192402321480023213702C482D490422FFF7E5FF02222B4B1A7008234FF040221370032102F5007211708D
:4002C000274A1178C9B2274A1170A2F27F42138041F25122244B1A80244F4FF4F0760AE03B7803F0010343EA450505F00305304600F042F9013C0CB1032DF1D114B903205F
:40030000FFF77AFF1A4B4FF480721A8007221A70002218490A704820023108701A700222033B1A7004220A331A7003F297331A7842F007021A70013B1A7842F001021A7051
:40034000013B1A7842F080021A70F8BD804000408640004000410040580300480043004008010049A146004020420040254200400440004006400040012807D8044A52F8A3
:4003800020301044017A1A780A431A70704700BF40130000012808D8044A52F820301044017A1A7822EA01021A7070474013000038B572B6334B1A7842F004021A700024EC
:4003C000314D09E004EB44035B002B4418689988FFF74AFF0134E4B2092CF3D900242B4D0AE004EB84035B002B44186859681A89FFF740FF0134E4B2002CF2D04FF0904043
:400400002349FFF7FBFE0A22224B1A7003F577438033197841F0020119701033197841F0020119701C4C237843F0400323701B4B197841F01001197019481A49FFF71AFF59
:4004400019481A490822FFF715FF194819490822FFF710FF184B1A7842F008021A70174D61232B70FFF70AFF81232B700122144B1A70FFF7DDFE134821460E22FFF7FAFE59
:4004800038BD00BFE84600404C130000881300004C00004883580040A0430040C2430040C05100403C03004812510040480300482251004050030048224300400048004080
:4004C00004000840B04300407222074B1A70202202331A700622623B1A70472210331A7000224F331A7070478965004010B500F04DF804460A4B1A7842F020021A70023336
:400500001A7842F010021A70033B1A7842F010021A7000F021F8204600F03CF810BD00BF9965004008B5054B1B7823B9FFF7CCFF0122024B1A70FFF7D9FF08BD3C81FF1FBB
:40054000034A137813F0040FFBD1024B187070476865004048650040054B1A7842F004021A7010331A7842F004021A70704700BFA2430040000000000230800800F0058036
:4005800000BF013800467FF4FCAF7047EFF3108072B6704780F31088704700BFAFF3008001BE704738B50446084D04E02868FFF7E3FFA4F50044B4F5004FF7D8034B586834
:4005C00000FB04F0FFF7D8FF38BD00BF0C81FF1F08B5034B1B7A03FB00F0FFF7CDFF08BD0C81FF1F70B505460E46074B1C681F2802D90020FFF7D4FF05F01F05103554F8D1
:40060000250044F8256070BD08ED00E038B505460C46072902D90020FFF7C2FF1F2D02D90020FFF7BDFF05F01F0000F1604000F564406401E4B2047038BD00BF084B1A7827
:4006400042F001021A7010331A7842F001021A7003F64D331A7842F001021A70704700BFA3430040014B1880704700BF044F0040014B1880704700BF064F0040014B187011
:40068000704700BF034F004008B51A4B1A7842F002021A7002331A7802F08F0242F010021A7009331A7802F0CF021A701A7842F030021A701A7802F0F0021A701A7842F047
:4006C0000F021A704AF22700FFF7CCFF4FF47A70FFF7CEFF0020FFF7D1FF074B1A7842F001021A7003F65E331A7842F001021A7008BD00BF004F0040A343004008B5054BA1
:400700001B7823B9FFF7C0FF0122024B1A70FFF795FF08BD3E81FF1F38B59DF81040012C49D10138092826D8DFE800F00525250525250D15251D0F2B02D9214800781BE044
:400740002048007818E00F2B02D91F48007813E01E48007810E00F2B02D91D4800780BE01C48007808E00F2B02D91B48007803E01A48007800E0002040B201EB401101FB73
:4007800002F2D20B90B20D2B0AD8C3F10E01084180B2134A02EB8402013302F8023C05E00F4B03EB84030F2203F8022C013C0C4B23F8240038BD0020FFF7F2FE38BD00BF02
:4007C000180100491C010049190100491D0100491A0100491E0100491B0100491F0100494081FF1FF8B50746FFF7D0FE06460D4D2B7843F003032B700B4C237843F00303E8
:4008000023700A4B1F700320FFF7E2FE2B7803F0FC032B70237803F0FC0323703046FFF7B9FEF8BDF8460040F9460040925800402DE9F0410022324B1A7101285ED13022DE
:40084000304B1A70042202331A70062601331E70002401331C7001331C700F2201331A7002331C7001331C7001331C7001250A331D70142203F527631A704FF0050801331A
:4008800083F80080162201331A7001331C70442203331A70482201331A7001331D70022702331F70222201331A70282201331A70EB2201331A705220FFF794FF5822124BE4
:4008C0001A7001331C70053383F8008001331F7001331C7001331C70204600F059F933220A4B1A603046294600F076F91C20294600F0FCF91D200649FFF774FEBDE8F0818E
:400900004081FF1F004E0040945800404C81FF1F6D0B0000F0B583B0294D01272F70294E00247471102000F045F9102000F0CCF91D200721FFF76AFE0422234B1A700133CE
:400940001C7007331C7003F269231A7842F018021A70A3F51D731C7003F2F5231C7001331C700A22A3F209331A7001331C7002331C70122205331A70132201331A70043307
:400980001C701422A3F68C231A700097022048F66B514FF400420823FFF7BEFE2B7806EB830313F8022C094B1A702B78013B36F82320074B1A802878FFF73AFF03B0F0BDF2
:4009C0001C81FF1F4081FF1F965800400E4E00400C4E004070B5FFF7D9FD06462B4B1B782B4B1A7842F001021A701A7842F010021A7010331A7842F001021A701A7842F034
:400A000010021A70234D2B7843F002032B70224C237843F002032370204B1A7842F003021A700320FFF7D4FD2B7803F0FD032B70237803F0FD032370194B1A7842F0060236
:400A40001A707A220B331A70A3F5A753013B1A7842F001021A7010331A7842F001021A700F3B1A7842F001021A7010331A7842F001021A704FF000530A4A1360A2F5C07284
:400A800013603046FFF786FD70BD00BF1C81FF1FAA430040F8460040F9460040915800407758004080E200E008B5084B9B794BB9064BDB7913F0FF0F01D1FFF72BFF012296
:400AC000024B9A71FFF786FF08BD00BF4081FF1F024B1A7842F001021A707047004E0040024B1A7802F0FE021A707047004E0040084A0949137913F0FF0F02D05379DBB2D1
:400B000002E00B7803F00103012B01D00028F1D0184670474081FF1F014E00400E4B1B7803F00303012B03D80C4B188880B209E00A4A12780A49087842EA0020032B01D1F5
:400B4000084B1B78084B1B7913F0FF0F02D00022054B5A7100B27047144E0040104E0040114E0040124E00404081FF1F704700BF10B5002404E02046FFF70CFC0134E4B24F
:400B8000012CF8D9FF22014B1A7010BD1D81FF1F10B50446FFF7ECFF2046FFF7EDFB014B1C7010BD1D81FF1F014B188880B2704780400040034B1A7800F0F80002431A70B6
:400BC000704700BF82400040024B187800F00700704700BF8240004070B504460E46FFF7F3FF0546FFF7E0FF0346844258D02D4A127802F0010195B900B184B93BB92A4B95
:400C00001C8002331A7802F0BF021A7070BD274B1A7842F040021A70023B1C8070BD29B300222348027001250F30057004300270204A107800F07F0010707A32127812F06B
:400C4000080F00D094B91C4A13800722184B1A701A46137813F0010FFBD1124B1A7802F0FE021A700022A3F2A1331A700D4B1B7813F0010F0DD0104B1C800EB1032200E051
:400C800001220B4B1A701A46137813F0010FFBD170BD054B1C8003F222331A781143197070BD00BFA24300408040004082400040014000400840004002400040014B18880B
:400CC00080B2704700410040034B1A7800F0F80002431A70704700BF02410040024B187800F00700704700BF0241004070B504460E46FFF7F3FF0546FFF7E0FF0346844253
:400D000058D02D4A127802F0010195B900B184B93BB92A4B1C8002331A7802F0BF021A7070BD274B1A7842F040021A70023B1C8070BD29B300222348027001251330057063
:400D400004380270204A107800F07F001070FA32127812F0080F00D094B91C4A13800722184B1A701A46137813F0010FFBD1124B1A7802F0FE021A700022A3F568731A7095
:400D80000D4B1B7813F0010F0DD0104B1C800EB1032200E001220B4B1A701A46137813F0010FFBD170BD054B1C8003F2A1231A781143197070BD00BFA143004000410040FE
:400DC0000241004001400040084000400240004080F0004002E000BF81F0004142001FBF5FEA410392EA030F7FEA226C7FEA236C6AD04FEA1262D2EB1363C1BFD2184140B3
:400E000048404140B8BF5B42192B88BF704710F0004F40F4000020F07F4018BF404211F0004F41F4000121F07F4118BF494292EA030F3FD0A2F1010241FA03FC10EB0C007B
:400E4000C3F1200301FA03F100F0004302D5494260EB4000B0F5000F13D3B0F1807F06D340084FEA310102F10102FE2A51D2B1F1004F40EBC25008BF20F0010040EA030052
:400E80007047490040EB000010F4000FA2F10102EDD1B0FA80FCACF1080CB2EB0C0200FA0CF0AABF00EBC25052421843BCBFD0401843704792F0000F81F4000106BF80F4F6
:400EC00000000132013BB5E74FEA41037FEA226C18BF7FEA236C21D092EA030F04D092F0000F08BF0846704790EA010F1CBF0020704712F07F4F04D1400028BF40F000407C
:400F0000704712F100723CBF00F50000704700F0004343F0FE4040F4000070477FEA226216BF08467FEA23630146420206BF5FEA412390EA010F40F4800070474FF000031C
:400F400004E000BF10F0004348BF40425FEA000C08BF704743F0964301464FF000001CE050EA010208BF70474FF000030AE000BF50EA010208BF704711F0004302D54042A3
:400F800061EB41015FEA010C02BF84460146002043F0B64308BFA3F18053A3F50003BCFA8CF2083AA3EBC25310DB01FA02FC634400FA02FCC2F12002BCF1004F20FA02F2EB
:400FC00043EB020008BF20F00100704702F1200201FA02FCC2F1200250EA4C0021FA02F243EB020008BF20EADC7070474FF0FF0C1CEAD0521EBF1CEAD15392EA0C0F93EA29
:401000000C0F6FD01A4480EA010C400218BF5FEA41211ED04FF0006343EA501043EA5111A0FB01310CF00040B1F5000F3EBF490041EAD3715B0040EA010062F17F02FD2A1D
:401040001DD8B3F1004F40EBC25008BF20F00100704790F0000F0CF0004C08BF49024CEA502040EA51207F3AC2BFD2F1FF0340EAC250704740F400004FF00003013A5DDCB6
:4010800012F1190FDCBF00F000407047C2F10002410021FA02F1C2F1200200FA02FC5FEA310040F1000053EA4C0308BF20EADC70704792F0000F00F0004C02BF400010F4D5
:4010C000000F013AF9D040EA0C0093F0000F01F0004C02BF490011F4000F013BF9D041EA0C018FE70CEAD15392EA0C0F18BF93EA0C0F0AD030F0004C18BF31F0004CD8D1B4
:4011000080EA010000F00040704790F0000F17BF90F0004F084691F0000F91F0004F14D092EA0C0F01D142020FD193EA0C0F03D14B0218BF084608D180EA010000F00040B8
:4011400040F0FE4040F40000704740F0FE4040F4400070474FF0FF0C1CEAD0521EBF1CEAD15392EA0C0F93EA0C0F69D0A2EB030280EA010C49024FEA402037D04FF0805396
:4011800043EA111143EA10130CF000408B4238BF5B0042F17D024FF4000C8B4224BF5B1A40EA0C00B3EB510F24BFA3EB510340EA5C00B3EB910F24BFA3EB910340EA9C0087
:4011C000B3EBD10F24BFA3EBD10340EADC001B0118BF5FEA1C1CE0D1FD2A3FF650AF8B4240EBC25008BF20F0010070470CF0004C4CEA50207F32C2BFD2F1FF0340EAC250EC
:40120000704740F400004FF00003013A37E792F0000F00F0004C02BF400010F4000F013AF9D040EA0C0093F0000F01F0004C02BF490011F4000F013BF9D041EA0C0195E767
:401240000CEAD15392EA0C0F08D142027FF47DAF93EA0C0F7FF470AF084676E793EA0C0F04D14B023FF44CAF08466EE730F0004C18BF31F0004CCAD130F000427FF45CAF76
:4012800031F000437FF43CAF5FE700BF42000ED2B2F1FE4F0BD34FF09E03B3EB126209D44FEA002343F0004323FA02F070474FF00000704712F1610F01D1420202D14FF07F
:4012C000FF3070474FF00000704700BF70B50E4B0E4D0024ED1AAD101E46AC4204D056F8242090470134F8E700F054F8084D094B0024ED1AAD101E46AC4204D056F824206A
:4013000090470134F8E770BDA0130000A0130000A8130000A013000010B50023934203D0CC5CC4540133F9E710BD02440346934202D003F8011BFAE770470000000000002B
:40134000035B00402443004040000000004F00400C00005100401000305100404000F05100401000000001400010001401400006801A0140800100400140000A004C0140FA
:401380000002005001402000001A0140BC02004880000000F8B500BFF8BC08BC9E4670474D00000089010000F8B500BFF8BC08BC9E46704729000000C81300000881FF1F19
:4013C0001800000030000000000000000000E02EC05D00001800000000366E0101FF00000000000000000000000000000000000000000000000000000000000000000000BD
:4014000000000000000000000000000000000000000000000000000000000000000000000000000000000000000000000000000000000000000000000000000000000000AC
:40144000000000000000000000000000000000000000000000000000000000000000000000000000000000000000000000000000000000000000000000000000000000006C
:40148000000000000000000000000000000000000000000000000000000000000000000000000000000000000000000000000000000000000000000000000000000000002C
:4014C00000000000000000000000000000000000000000000000000000000000000000000000000000000000000000000000000000000000000000000000000000000000EC
:020000040003F7
:0200000480007A
:40000000024F004003520040036500400215014001170140691801403D190140171A0140481B0140024301400244014001450140034601400247014005480140034901400F
:40004000074C01400D4D01400250014001100A36094061806440880F89728B38E220EC10E8100009010302100344041C055306020704080C0A110E03112013451553170C0F
:4000800018141F08218024102810290A2A0C2B543130330F3580361F374039023A083B083F504021410645EB47C0482349FF4AFF4BFF4EF04F44500C5401580459045A04C7
:4000C0005B045C225D225F0166C06A406B02824C8577860889778D128E138F2991019306946C95249603971198319A0E9D40A831AA46B030B107B20FB330B44AB540B7088D
:40010000B802BA28BE01C004C704C9FFCA07CBFFCC40CD20CEF0CF05D008D602D713D804D904DA04DB04DC22DD22DF01E040E1A8E240E320008002110340055407400A2488
:400140000F081208150816101720184019141A2C1B081D401E10200821482202264827682D012F083108324235023608374039243B803E043F02404046014720484049020F
:400180004D014E044F085104570359015D015E805F1869246A8070B48948C0FDC246C462CAA0CCDBCECED031D220D6F1E810800486018C02940497019A04A301A601AE0472
:4001C000B001B202B301B604B8A0BE15BF04D418D804D904DB04DC02DD20DF010018020205440680084109420A140E100F0810A2120414011708181119111A241B041F95CD
:4002000020042102230A2508284129102A082F803080321233043608382839803A053C083E08400542904304450846204804490452085F026620670288028A848B548E01F5
:40024000902891809210978099409D01A0A4A140A202AF12C0B7C26FC4AFCA8FCC4FCE0FD00FD204D680D830E220EC101810C6107D04DE01950445089504D0019504A5088A
:4002800025106608B410C820D8808A089E08B510608095049880A508B480D802E80810807B01888089048B018C809504B508C408DC01E005E603EC0810041C0400440000EC
:4002C000001823001F082000030040041CC023003FFF0000331C0CE10210800008800000040000E30CE70018013C80C2101F2C000F38C0C000002802000041004603020059
:40030000010C000E11FFFFFF62A0F0410C00000000000000040404002202000100000000000040020010301000101012000000000000000000000000000000008000408020
:400340008000800000000000004040004000000001010000000001001C00180100000000000000000000000000000000000000000000000000000000000000000000000085
:40038000000000000000000000000000000000000000000000000000000000000000000000000000000000000000000000000000000000000000000000000000000000003D
:4003C00000000000000000000000000000000000000000000000000000000000000000000000000000000000000000000000000000000000000000000000000000000000FD
:4004000000000000000000000000000000000000000000000000000000000000000000000000000000000000000000000000000000000000000000000000000000000000BC
:40044000000000000000000000000000000000000000000000000000000000000000000000000000000000000000000000000000000000000000000000000000000000007C
:0200000490006A
:0400000000004005B7
:0200000490105A
:04000000BC90ACAF55
:0200000490303A
:02000000E19687
:0200000490402A
:4000000000000000000000000000000000000000000000000000000000000000000000000000000000000000000000000000000000000000000000000000000000000000C0
:400040000000000000000000000000000000000000000000000000000000000000000000000000000000000000000000000000000000000000000000000000000000000080
:400080000000000000000000000000000000000000000000000000000000000000000000000000000000000000000000000000000000000000000000000000000000000040
:4000C0000000000000000000000000000000000000000000000000000000000000000000000000000000000000000000000000000000000000000000000000000000000000
:0200000490501A
:0C00000000012E16106900012E1DF1FFFA
:00000001FF