:400000000080002011000000C1000000C100000008B5044B1A6803F53F5302331A6000F051F800BFFA46004010B5054C237833B9044B13B10448AFF300800123237010BDAC
:400040002081FF1F00000000EC0C000008B5064B1BB106480649AFF300800648036813B1054B03B1984708BD00000000EC0C00002481FF1F0881FF1F0000000010B504469A
:40008000007800F011FA607800F00EFAA07800F00BFAE07800F008FA10BD00BF10B582B062B600F0F3F900F041FC642400F0A0FC019001A8FFF7E2FF204600F027FAF5E78A
:4000C000FEE700BF80B5104F104E002415E031687368B568224604E051F8040B43F8040B0432AA42F8D1F168224602E043F8044B04328A42FAD11036013F002FE7D100F090
:40010000BDFDFFF7CBFFFEE7010000005C0D000010B5124A124B1A6008331A6842F400721A6000230F48104C104908E0032B02D854F8232000E0024641F8232001332F2B3F
:40014000F4D90B4B1A780B4B1A70084A0A4B1A6000F0ECF80022094B1A6010BD0004FA050CED00E0C1000000000000000080FF1FBC7600400481FF1F08ED00E00081FF1F74
:40018000FEE700BFF0B400231F4611E050F82760F2B226F0FF0608E001EB430511F813406D78A5550133013AD2B2002AF4D10137102FEBD9F0BC70470A4B1B78DBB203F0B1
:4001C0000701094A11701B09013213700123A2F24272137002F6D31213704422034B1A70704700BFCF0100496E5800407658004008B50A46002100F070FD08BD08B500F01C
:4002000063FD08BDF8B50025304B1D80502202331A70192402331C80182202331A702C482C490422FFF7EAFF02222B4B1A7008234FF040221370032102F500721170274A97
:400240001178C9B2264A1170A2F27F42138041F25122244B1A80244F4FF4F0760AE03B7803F0010343EA450505F00305304600F037F9013C0CB1032DF1D114B90320FFF766
:400280007FFF1A4B4FF480721A8007221A70002217490A704820023108701A700222033B1A7004220A331A7003F297331A7842F003021A70013B1A7842F001021A70013B8C
:4002C0001A7842F080021A70F8BD00BF8040004000410040340300480043004008010049A146004020420040254200400440004006400040012807D8044A52F82030104427
:40030000017A1A780A431A70704700BFF00C0000012808D8044A52F820301044017A1A7822EA01021A707047F00C000038B572B6304B1A7842F004021A7000242E4D09E05D
:4003400004EB44035B002B4418689988FFF750FF0134E4B2072CF3D90024284D0AE004EB84035B002B44186859681A89FFF746FF0134E4B2002CF2D04FF090402049FFF7C4
:4003800001FF0A221F4B1A7003F577438033197841F0020119701033197841F002011970194C237843F040032370184B197841F01001197016481749FFF720FF1648174980
:4003C0000822FFF71BFF164B1A7842F008021A70144D61232B70FFF715FF81232B700122114B1A70FFF7E8FE104821460E22FFF705FF38BDE8460040FC0C00002C0D0000CF
:400400004400004883580040A0430040C2430040C051004020030048225100402C030048224300400048004004000840B04300407222074B1A702022013B1A700622613BDF
:400440001A70472210331A70002253331A7070478A65004010B500F04DF804460A4B1A7842F020021A70013B1A7842F010021A7002331A7842F010021A7000F021F82046FB
:4004800000F03CF810BD00BF9A65004008B5054B1B7823B9FFF7CCFF0122024B1A70FFF7D9FF08BD3C81FF1F034A137813F0040FFBD1024B187070476B6500404B65004062
:4004C000054B1A7842F002021A7010331A7842F002021A70704700BFA2430040000000000230800800F0058000BF013800467FF4FCAF7047EFF3108072B6704780F310888C
:40050000704700BFAFF3008001BE704738B50446084D04E02868FFF7E3FFA4F50044B4F5004FF7D8034B586800FB04F0FFF7D8FF38BD00BF0C81FF1F08B5034B1B7A03FB6A
:4005400000F0FFF7CDFF08BD0C81FF1F70B505460E46074B1C681F2802D90020FFF7D4FF05F01F05103554F8250044F8256070BD08ED00E038B505460C46072902D900206D
:40058000FFF7C2FF1F2D02D90020FFF7BDFF05F01F0000F1604000F564406401E4B2047038BD00BF38B59DF81040012C49D10138092826D8DFE800F00525250525250D1532
:4005C000251D0F2B02D9214800781BE02048007818E00F2B02D91F48007813E01E48007810E00F2B02D91D4800780BE01C48007808E00F2B02D91B48007803E01A480078ED
:4006000000E0002040B201EB401101FB02F2D20B90B20D2B0AD8C3F10E01084180B2134A02EB8402013302F8023C05E00F4B03EB84030F2203F8022C013C0C4B23F8240007
:4006400038BD0020FFF760FF38BD00BF180100491C010049190100491D0100491A0100491E0100491B0100491F0100494081FF1FF8B50746FFF73EFF06460D4D2B7843F0A8
:4006800003032B700B4C237843F0030323700A4B1F700320FFF750FF2B7803F0FC032B70237803F0FC0323703046FFF727FFF8BDF8460040F946004092580040F8B5002202
:4006C000304B1A7101285BD130222F4B1A70052702331F70072201331A70002401331C7001331C702D2201331A7002331C7001331C7001331C7001250A331D70142203F562
:4007000027631A7001331F70162201331A7001331C70442203331A70482201331A7001331D70022602331E70222201331A70282201331A70EB2201331A705220FFF798FF5E
:400740005822124B1A7001331C7005331F7001331E7001331C7001331C70204600F06EF940F6CD420A4B1A603046294600F08AF90C20294600F010FA1D200649FFF7E6FE2B
:40078000F8BD00BF4081FF1F004E0040945800404881FF1F190A0000F0B583B0294D01272F70294E00247471102000F059F9102000F0E0F91D200721FFF7DCFE0422234B59
:4007C0001A7001331C7007331C7003F269231A7842F018021A70A3F51D731C7003F2F5231C7001331C700A22A3F209331A7001331C7002331C70122205331A70132201338C
:400800001A7004331C701422A3F68C231A700097022048F66B5147F2E9720E23FFF7C2FE2B7806EB830313F8022C094B1A702B78013B36F82320074B1A802878FFF73EFFF5
:4008400003B0F0BD1C81FF1F4081FF1F965800400E4E00400C4E004070B5FFF74BFE06462B4B1B782B4B1A7842F001021A701A7842F010021A7010331A7842F001021A70A6
:400880001A7842F010021A70234D2B7843F002032B70224C237843F002032370204B1A7842F003021A700320FFF746FE2B7803F0FD032B70237803F0FD032370194B1A78BB
:4008C00042F006021A707A220B331A70A3F5A753013B1A7842F001021A7010331A7842F001021A700F3B1A7842F001021A7010331A7842F001021A704FF000530A4A136095
:40090000A2F5C07213603046FFF7F8FD70BD00BF1C81FF1FAA430040F8460040F9460040915800407758004080E200E008B5084B9B794BB9064BDB7913F0FF0F01D1FFF729
:400940002BFF0122024B9A71FFF786FF08BD00BF4081FF1F024B1A7842F001021A707047004E0040024B1A7802F0FE021A707047004E0040084A0949137913F0FF0F02D05E
:400980005379DBB202E00B7803F00103012B01D00028F1D0184670474081FF1F014E00400E4B1B7803F00303012B03D80C4B188880B209E00A4A12780A49087842EA00201E
:4009C000032B01D1084B1B78084B1B7913F0FF0F02D00022054B5A7100B27047144E0040104E0040114E0040124E00404081FF1F10B5084B1A7842F004021A70FFF7AAFF38
:400A00000020FFF7B7FFFFF7CBFF0446FFF7AAFF204610BD014E0040704700BF10B5002404E02046FFF774FC0134E4B2012CF8D9FF22014B1A7010BD1D81FF1F10B5044618
:400A4000FFF7ECFF2046FFF755FC014B1C7010BD1D81FF1F014B188880B2704780400040034B1A7800F0F80002431A70704700BF82400040024B187800F00700704700BF59
:400A80008240004070B504460E46FFF7F3FF0546FFF7E0FF0346844258D02D4A127802F0010195B900B184B93BB92A4B1C8002331A7802F0BF021A7070BD274B1A7842F095
:400AC00040021A70023B1C8070BD29B300222348027001250F30057004300270204A107800F07F0010707A32127812F0080F00D094B91C4A13800722184B1A701A46137882
:400B000013F0010FFBD1124B1A7802F0FE021A700022A3F2A1331A700D4B1B7813F0010F0DD0104B1C800EB1032200E001220B4B1A701A46137813F0010FFBD170BD054B76
:400B40001C8003F222331A781143197070BD00BFA24300408040004082400040014000400840004002400040014B188880B2704700410040034B1A7800F0F80002431A7095
:400B8000704700BF02410040024B187800F00700704700BF0241004070B504460E46FFF7F3FF0546FFF7E0FF0346844258D02D4A127802F0010195B900B184B93BB92A4BD3
:400BC0001C8002331A7802F0BF021A7070BD274B1A7842F040021A70023B1C8070BD29B300222348027001251330057004380270204A107800F07F001070FA32127812F020
:400C0000080F00D094B91C4A13800722184B1A701A46137813F0010FFBD1124B1A7802F0FE021A700022A3F568731A700D4B1B7813F0010F0DD0104B1C800EB1032200E087
:400C400001220B4B1A701A46137813F0010FFBD170BD054B1C8003F2A1231A781143197070BD00BFA1430040004100400241004001400040084000400240004070B50E4B49
:400C80000E4D0024ED1AAD101E46AC4204D056F8242090470134F8E700F04EF8084D094B0024ED1AAD101E46AC4204D056F8242090470134F8E770BD440D0000440D000015
:400CC0004C0D0000440D000010B50023934203D0CC5CC4540133F9E710BD02440346934202D003F8011BFAE77047000000000000035B00402443004040000000005100409E
:400D00002000305100404000F0510040100000000140001000140140000800400140000A004C01400002005001402000605200401803004806000000F8B500BFF8BC08BC49
:400D40009E4670474D00000011010000F8B500BFF8BC08BC9E46704729000000700D00000881FF1F180000003000000000000000000000000000E02EC05D00001800000022
:400D800000366E0101FF000000000000000000000000000000000000000000000000000000000000000000000000000000000000000000000000000000000000000000008E
:400DC00000000000000000000000000000000000000000000000000000000000000000000000000000000000000000000000000000000000000000000000000000000000F3
:400E000000000000000000000000000000000000000000000000000000000000000000000000000000000000000000000000000000000000000000000000000000000000B2
:400E40000000000000000000000000000000000000000000000000000000000000000000000000000000000000000000000000000000000000000000000000000000000072
:400E80000000000000000000000000000000000000000000000000000000000000000000000000000000000000000000000000000000000000000000000000000000000032
:020000040003F7
:0200000480007A
:400000000365004001050140010B0140040E0140020F0140761801403E1901404B1A0140491B01400242014001430140044401400346014003480140014C0140074D014061
:400040000250014089388A728B0FE002E002B980BF40D904DF0126808A800014038004090610078008800A030C2C0E110F5511731304141C15731622170C1B082040243017
:400080002503260C27442810292A2B44314032603330341F350F36803780380839083B203E403F454002470449FF4A074BFF4C404D204EF04F055008580459045A045C1162
:4000C0005D015F01604061A86240632081018220830E880189448A168B318C018E0E9203941C95E7960399E79A1C9D80A522A620A751AA08B01AB107B20FB360B420B580A1
:40010000B718BA0ABE10BF40C042C103C206C401C5C0C6E0C80AC9FFCAFFCBFFCC62CDA0CEF0CF41D00CD418D804D904DA04DB04DC11DD11DF01E640E702E910EA30EB1035
:40014000ED10EE10EF1203850514068007010A500B080E101020120416441704180419011A101B081D541E201F04200121112212231024402680272428202F283008324061
:40018000331035013610370539023B103C083E403F85400141144302472048044B015020564457405A02600462808540C0FBC22EC476CA62CCEECED5D02FD204D601D80C58
:4001C000E408001C013C026303C204730508060C087F09800C030D44101F11C01260151C162317E11BE31C0C1F0420082118240425FF280229E72B182C012D10301031C0A8
:40020000322C340F35383640371F38803A283B883E0156025713580459045B045C115D105F0198019B01B401B701BE10C035C104C5EEC6CBC80FC9FFCAFFCBFFCEF0CF4443
:40024000D00CD401D804D904DA04DB04DC10DD11DF01E6C0EA40EB0200260101020608820A200F08108011401318180419151B801E08202221042201230425802880295057
:400280002A0431843212342039413A083B1047054F895680572059015C405D105E085F0168086A806B107084714072087308800681048302851087208CA48D409040922068
:4002C00093109508968297049B059C209E809F10A202A340A408A7A2C00FC24DC40FCA0FCC2FCE0FD0C0D210D6F18701E0409F017C208820DE01E00145088508D0012701AC
:400300009F01C8208502128075028E809902C408DE04E20210021C02808000004000000080004080800080000000000000000000000001000C001801000000000000000094
:40034000000000000000000000000000000000000000000000000000000000000000000000000000000000000000000000000000000000000000000000000000000000007D
:40038000000000000000000000000000000000000000000000000000000000000000000000000000000000000000000000000000000000000000000000000000000000003D
:4003C00000000000000000000000000000000000000000000000000000000000000000000000000000000000000000000000000000000000000000000000000000000000FD
:4004000000000000000000000000000000000000000000000000000000000000000000000000000000000000000000000000000000000000000000000000000000000000BC
:0200000490006A
:0400000000004005B7
:0200000490105A
:04000000BC90ACAF55
:0200000490303A
:02000000637625
:0200000490402A
:4000000000000000000000000000000000000000000000000000000000000000000000000000000000000000000000000000000000000000000000000000000000000000C0
:400040000000000000000000000000000000000000000000000000000000000000000000000000000000000000000000000000000000000000000000000000000000000080
:400080000000000000000000000000000000000000000000000000000000000000000000000000000000000000000000000000000000000000000000000000000000000040
:4000C0000000000000000000000000000000000000000000000000000000000000000000000000000000000000000000000000000000000000000000000000000000000000
:0200000490501A
:0C00000000012E16106900012E1B73DF9A
:00000001FF