:400000000080002011000000090400000904000008B5044B1A6803F53F5302331A6000F00DFA00BFFA46004010B5054C237833B9044B13B10448AFF300800123237010BD56
:400040009881FF1F00000000FC25000008B5064B1BB106480649AFF300800648036813B1054B03B1984708BD00000000FC2500009C81FF1F0881FF1F000000002DE9F04F12
:4000800083B062B600F09AF8834601F06FFC00F073FE00F0B5FD01F057FA00F081FE00F0C3FD01F065FA0024002700F079FE204600F07EFE204600F087FE1FFA80F9012088
:4000C00000F082FE1FFA80F800F0AEFD204600F0B3FD204600F0BCFD85B2012000F0B8FD1FFA80FA01F092FA86B20096284629464A46434600F0C2F808B900F047F9484655
:40010000012100F041F881464046012100F03CF880462846214600F037F805465046214600F032F882463046022100F02DF806464846414600F0D0F880462846514600F07B
:40014000CBF805464046394602F00AF920B92846394602F005F908B100F018F9CDF800B0404629463A46334600F002F902F02AF901F066FD0022002301F01EFE002894D072
:4001800000F004F991E700BF08B511B1012906D00BE001F0F9FE074902F002F806E001F0F3FE044901F0FCFF00E00020024901F043FF08BD00F07F450000C84210B51C208A
:4001C00002F052F9044600F0E5F82060002222610023A3606360E3606261204610BD00BF2DE9F843044689469046066801F0CCFB0546074601F064FB01F0B8FB30464946AE
:4002000042462B4600F0CEF823694B4423616068414601F009FE6060636901336361A3691D44A56113E0304600F0E0F80546027823699B1A23616068696801F0F3FD60603D
:400240006369013B6361AA68A3699B1AA361B7F5FA4FE8DC6668606901F09AFE05463046294601F09DFFA060206901F091FE294601F096FFE060BDE8F88300BF38B141B14D
:400280004AB153B1BDF800304BB900207047002070470020704700207047002070470120704700BF0000000008B503460846194601F0B8FD20F0004001F0D4FC04A3D3E9BF
:4002C000002301F083FD08B1012008BD002008BD9A9999999999B93F38B505460C46FFF7E3FF40B12846214601F09EFD4FF07C5101F0A2FE38BD002038BD00BF10B50C4626
:40030000064902F055F828B12046054902F050F810B910BD002010BD012010BD0000A04000002041F8B5064617461C4601F07AFD20F0004538463146FFF7E0FF01462046CA
:400340002A46FFF74DFFA068074902F031F830B9E068064902F02CF818B10020F8BD0020F8BD0120F8BD00BF000020410000B44210B50446084611461A46029BFFF7D2FFEB
:4003800008B9002010BD204610BD00BF08B501F097FA08BD08B5082002F066F800224260026008BD2DE9E8410546884617461E46406860B9102002F057F868600023C36020
:4003C00080F80080476086602860BDE8E881102002F04AF80023C36080F80080476086606B68D8606860BDE8E88100BF38B5054604683CB1E3680360204602F03DF82B68B4
:4004000003B96B60204638BDFEE700BF08B5094B1B681844084A821A802A02DC054A106005E001F0F5FF0C2303604FF0FF33184608BD00BF0C81FF1F1082FF1F80B5104F73
:40044000104E002415E031687368B568224604E051F8040B43F8040B0432AA42F8D1F168224602E043F8044B04328A42FAD11036013F002FE7D101F0D1FFFFF7FFFDFEE79C
:40048000010000007026000010B5134A134B1A6008331A6842F400721A6000231048114C114908E0032B02D854F8232000E0024641F8232001332F2BF4D90C4B1A780C4BDC
:4004C0001A70094A0B4B1A6000F032F900F0FCF90022094B1A6010BD0004FA050CED00E009040000000000000080FF1FBC7600400481FF1F08ED00E00081FF1FFEE700BFDE
:40050000F0B400231F4611E050F82760F2B226F0FF0608E001EB430511F813406D78A5550133013AD2B2002AF4D101372A2FEBD9F0BC704770B41E4B1B78DBB21D4A107883
:40054000C0B21D490C78E4B203F007061B4D2E701B0901352B7040F00303137044F003030B7040F20345164B1D803025D1331D704023144D2B7002352B7006352B70023584
:400580002B700425104B1D70032520331D70202503331D70212508331D70012530331D700C7010704422A3F2E5231A7070BC7047CF010049F8460040F94600406E580040D3
:4005C0002C51004001590040005B004008B50A46002101F062FF08BD08B501F055FF08BDF8B50025384B1D80502202331A700E2202331A80182335490B7002310A80344A6C
:4006000013703321023211800232137040F2ED2102321180023213702E482F490422FFF7DBFF02222D4B1A7008234FF040221370032102F500721170294A1178C9B2294A5A
:400640001170A2F27F42138041F25122264B1A801924264F4FF4F0760AE03B7803F0010343EA450505F00305304600F019F9013C0CB1032DF1D114B90320FFF73FFF1C4B0E
:400680004FF480721A8007221A70002219490A704820023108701A700222033B1A7004220A331A7003F297331A7842F01F021A70013B1A7842F001021A70013B1A7842F089
:4006C00080021A70F8BD00BF80400040864000408A40004000410040C00B00480043004008010049A146004020420040254200400440004006400040012807D8044A52F8E7
:4007000020301044017A1A780A431A70704700BF00260000012808D8044A52F820301044017A1A7822EA01021A7070470026000038B572B63E4B1A7842F004021A700024B7
:400740003C4D09E004EB44035B002B4418689988FFF73CFF0134E4B2072CF3D90024364D0AE004EB84035B002B44186859681A89FFF732FF0134E4B2002CF2D04FF09040C7
:400780002E49FFF7BDFE0A252D4B1D702D480421FFF71CFF2C482D490422FFF71DFF2C482C490422FFF718FF2B482C490422FFF713FF2B4B1A7842F002021A7010331A7841
:4007C00042F002021A70274C237843F040032370254B1A7842F010021A70244824490822FFF7FAFE234824492A46FFF7F5FE234823490822FFF7F0FE224823490822FFF755
:40080000EBFE224B1A7842F008021A70204D61232B70FFF7E5FE81232B7001221D4B1A70FFF788FE1C4821460E22FFF7D5FE38BDE84600400C2600003C260000AC00004826
:40084000835800400076004008760040C40B004810760040C80B004818760040CC0B004803500140A0430040C2430040025100409C0B0048C0510040A40B0048F2510040BB
:40088000B00B004822510040B80B0048224300400048004004000840B0430040000000000230800800F0058000BF013800467FF4FCAF7047EFF3108072B6704780F310882D
:4008C000704700BFAFF300800B4A7F2313708021517007E0DA0002F1804202F5F042013BDBB21370002BF5D1DB0003F1804303F5F04300221A7070471081FF1F172815D8AD
:4009000031B102010A4BD15C41F02001D15405E00201074BD15C01F0DF01D1540001044BC25C42F00102C25400207047012070471070004017280CD80001074BC21811797A
:4009400041F004011171C25C42F00102C254002070470120704700BF1070004017280BD80001064BC25C02F0F10201F0070142EA4101C154002070470120704710700040C6
:4009800041F6FF73994201D14FF4005141F6FF739A4201D14FF40052172808D8C00000F1804000F5EC408180C280002070470120704700BF172805D8034B03EB00104172E4
:4009C00000207047012070471070004010B417281AD8C40004F1804404F5EC44D201D2B201F07F01114321709DF804201201D2B203F00F03134363709DF8083003F00F03F0
:400A0000A3700020E07000E001205DF8044B704710B5FFF74FFF0A4B5B78182B0BD9084A1478013B5370E30003F1804303F5F0431B78137000E0FF24FFF740FF204610BD5C
:400A40001081FF1F10F0800F0CD111F4704F0BD1C00000F1804000F5F04001808270C37000207047012070470120704710F0800F08D1C00000F1804000F5F0408180C280B7
:400A8000002070470120704701BE704708B5034B1B7A03FB00F0FFF703FF08BD1881FF1F70B505460E46074B1C681F2802D90020FFF7EAFF05F01F05103554F8250044F849
:400AC000256070BD08ED00E038B505460C46072902D90020FFF7D8FF1F2D02D90020FFF7D3FF05F01F0000F1604000F564406401E4B2047038BD00BF10B5022001214FF431
:400B0000804241F6FF7300F017FA084C20700420012141F6FF72134600F02EFA6070044800F04CFA012000F04FFA10BDB481FF1F6D0C000070B52C4C2078FFF7FBFE6078C5
:400B4000FFF7F8FE294B1B78FF2B03D1FFF760FF264B1870254C2278104604210623FFF771FF214D2E1DB6B2207845F6A0313246FFF77CFF28782178FFF71CFF6378FF2B24
:400B800002D1FFF745FF6070184D6A78104604210723FFF757FF68783146154A92B2FFF765FF114C60786978FFF704FF20780121FFF7A4FE60780121FFF7A0FEFFF77AFE6F
:400BC0000C4B1A7842F020021A70FFF777FE0A4B1A7842F001021A701A7842F002021A700222064B1A6070BDB481FF1F2881FF1FE481FF1F966400407B64004080E200E077
:400C000008B5074B9B6823B9FFF776FF0122044B9A60FFF78FFF00F081F9024B1B7808BDB481FF1F6C640040024B1A7842F004021A7070477B64004004490B7803F0FF02BE
:400C40000BB90028F9D01046704700BF6C640040C0F10100034B33F81000034B1B88C01A00B27047E481FF1FEC81FF1F704700BF10B5022001214FF4804241F6FF7300F049
:400C800053FA084C20700420012141F6FF72134600F06AFA6070044800F084FA002000F087FA10BDC081FF1FE50D000070B52C4C2078FFF73FFE6078FFF73CFE294B1B78B8
:400CC000FF2B03D1FFF7A4FE264B1870254C2278104604210623FFF7B5FE214D2E1DB6B2207845F6A2313246FFF7C0FE28782178FFF760FE6378FF2B02D1FFF789FE607068
:400D0000184D6A78104604210723FFF79BFE68783146154A92B2FFF7A9FE114C60786978FFF748FE20780121FFF7E8FD60780121FFF7E4FDFFF7BEFD0C4B1A7842F02002FB
:400D40001A70FFF7BBFD0A4B1A7842F001021A701A7842F002021A700122064B1A6070BDC081FF1F2A81FF1FE881FF1F936400407164004080E200E008B5074B9B6823B9FD
:400D8000FFF776FF0122044B9A60FFF78FFF00F0BDF9024B1B7808BDC081FF1F62640040024B1A7842F004021A7070477164004004490B7803F0FF020BB90028F9D01046EC
:400DC000704700BF62640040C0F10100034B33F81000034B1B88C01A00B27047E881FF1FF881FF1F704700BF08B50A280FD00C2802D0082806D102E04FF4805209E04FF476
:400E0000807206E00020FFF73FFE002201E04FF48062002309490B8042F2107101FB02F202F6C412064981FB0201D217C2EBE12204490A60044A138008BD00BFF681FF1FD4
:400E4000AD8BDB68F081FF1FEC81FF1F10B5FFF731FD0446194B1A7842F001021A7010331A7842F001021A7003F5AA5308331A7842F003021A70182203331A70013B1A7816
:400E800042F040021A701A7802F0FC021A70CE22053B1A700222A3F597530C3B1A7003F5A85313331A7842F008021A700A20FFF7EDFD2046FFF702FD10BD00BFAB43004047
:400EC00010B504460A280DD00C2802D0082804D101E0C22207E0422205E00020FFF7D4FDC22200E08222034B1A702046FFF77CFF10BD00BF0259004008B5064B1A7842F0DD
:400F000006021A700C20FFF7DBFF0022024B1A8008BD00BF01590040F481FF1F08B5054B1B7823B9FFF7E8FF0122024B1A70FFF78DFF08BDCC81FF1FF0B583B084468E46EE
:400F400017461E460B4C03232370002500950195184661467246FFF739FD207839463246FFF70EFD20780221FFF7F8FC207803B0F0BD00BF2C81FF1F2DE9F04182B084466D
:400F80008E4690461F460C4C022525700026009601962846614672462B46FFF717FD207841463A46FFF7ECFC20782946FFF7D6FC207802B0BDE8F0812D81FF1F014B1B682C
:400FC0005864704708ED00E04001C0B2014B1870704700BF01E400E008B50A280FD00C2802D0082806D102E04FF4805209E04FF4807206E00020FFF747FD002201E04FF471
:401000008062002309490B8042F2107101FB02F202F6C412064981FB0201D217C2EBE12204490A60044A138008BD00BFFC81FF1FAD8BDB680082FF1FF881FF1F10B5FFF7D0
:4010400039FC0446194B1A7842F002021A7010331A7842F002021A7003F5AA5310331A7842F003021A70182203331A70013B1A7842F040021A701A7802F0FC021A70CE2259
:40108000053B1A700222A3F59753123B1A7003F5A85319331A7842F008021A700A20FFF7F5FC2046FFF70AFC10BD00BFAB43004010B504460A280DD00C2802D0082804D1FC
:4010C00001E0C22207E0422205E00020FFF7DCFCC22200E08222034B1A702046FFF77CFF10BD00BF0A59004008B5064B1A7842F006021A700C20FFF7DBFF0022024B1A805E
:4011000008BD00BF09590040FA81FF1F08B5054B1B7823B9FFF7E8FF0122024B1A70FFF78DFF08BDCD81FF1FF0B583B084468E4617461E460B4C0123237000250095019555
:40114000184661467246FFF741FC207839463246FFF716FC20780221FFF700FC207803B0F0BD00BF2E81FF1FF0B583B086460F4616461D460A4C002323700093019318466E
:4011800071463A46FFF722FC207831462A46FFF7F7FB20780221FFF7E1FB207803B0F0BD2F81FF1F014B1B681864704708ED00E04001C0B2014B1870704700BF00E400E092
:4011C00038B59DF81040012C49D10138092826D8DFE800F00525250525250D15251D0F2B02D9214800781BE02048007818E00F2B02D91F48007813E01E48007810E00F2BFD
:4012000002D91D4800780BE01C48007808E00F2B02D91B48007803E01A48007800E0002040B201EB401101FB02F2D20B90B20D2B0AD8C3F10E01084180B2134A02EB840234
:40124000013302F8023C05E00F4B03EB84030F2203F8022C013C0C4B23F8240038BD0020FFF712FC38BD00BF180100491C010049190100491D0100491A0100491E010049F6
:401280001B0100491F010049D081FF1FF8B50746FFF710FB06460D4D2B7843F003032B700B4C237843F0030323700A4B1F700320FFF7ECFB2B7803F0FC032B70237803F079
:4012C000FC0323703046FFF7F9FAF8BDF8460040F946004092580040F8B50022304B1A7101285BD130222F4B1A70052702331F70072201331A70002401331C7001331C7026
:401300002D2201331A7002331C7001331C7001331C7001250A331D70142203F527631A7001331F70162201331A7001331C70442203331A70482201331A7001331D7002267D
:4013400002331E70222201331A70282201331A70EB2201331A705220FFF798FF5822124B1A7001331C7005331F7001331E7001331C7001331C70204600F06EF940F6CD42AA
:401380000A4B1A603046294600F08AF90A20294600F010FA1D200649FFF782FBF8BD00BFD081FF1F004E0040945800400882FF1F35160000F0B583B0294D01272F70294E58
:4013C00000247471102000F059F9102000F0E0F91D200721FFF778FB0422234B1A7001331C7007331C7003F269231A7842F018021A70A3F51D731C7003F2F5231C7001339D
:401400001C700A22A3F209331A7001331C7002331C70122205331A70132201331A7004331C701422A3F68C231A700097022048F66B5147F2E9720E23FFF7C2FE2B7806EBA2
:40144000830313F8022C094B1A702B78013B36F82320074B1A802878FFF73EFF03B0F0BD3081FF1FD081FF1F965800400E4E00400C4E004070B5FFF71DFA06462B4B1B7837
:401480002B4B1A7842F001021A701A7842F010021A7010331A7842F001021A701A7842F010021A70234D2B7843F002032B70224C237843F002032370204B1A7842F0030223
:4014C0001A700320FFF7E2FA2B7803F0FD032B70237803F0FD032370194B1A7842F006021A707A220B331A70A3F5A753013B1A7842F001021A7010331A7842F001021A704A
:401500000F3B1A7842F001021A7010331A7842F001021A704FF000530A4A1360A2F5C07213603046FFF7CAF970BD00BF3081FF1FAA430040F8460040F946004091580040AA
:401540007758004080E200E008B5084B9B794BB9064BDB7913F0FF0F01D1FFF72BFF0122024B9A71FFF786FF08BD00BFD081FF1F024B1A7842F001021A707047004E00407E
:40158000024B1A7802F0FE021A707047004E0040084A0949137913F0FF0F02D05379DBB202E00B7803F00103012B01D00028F1D018467047D081FF1F014E00400E4B1B78DE
:4015C00003F00303012B03D80C4B188880B209E00A4A12780A49087842EA0020032B01D1084B1B78084B1B7913F0FF0F02D00022054B5A7100B27047144E0040104E004046
:40160000114E0040124E0040D081FF1F10B5084B1A7842F004021A70FFF7AAFF0020FFF7B7FFFFF7CBFF0446FFF7AAFF204610BD014E0040704700BF10B5002404E0204611
:40164000FFF768F80134E4B2012CF8D9FF22014B1A7010BD3181FF1F10B50446FFF7ECFF2046FFF749F8014B1C7010BD3181FF1F014B188880B2704780400040034B1A7800
:4016800000F0F80002431A70704700BF82400040024B187800F00700704700BF8240004070B504460E46FFF7F3FF0546FFF7E0FF0346844258D02D4A127802F0010195B96A
:4016C00000B184B93BB92A4B1C8002331A7802F0BF021A7070BD274B1A7842F040021A70023B1C8070BD29B300222348027001250F30057004300270204A107800F07F0002
:4017000010707A32127812F0080F00D094B91C4A13800722184B1A701A46137813F0010FFBD1124B1A7802F0FE021A700022A3F2A1331A700D4B1B7813F0010F0DD0104B2E
:401740001C800EB1032200E001220B4B1A701A46137813F0010FFBD170BD054B1C8003F222331A781143197070BD00BFA2430040804000408240004001400040084000404E
:4017800002400040014B188880B2704700410040034B1A7800F0F80002431A70704700BF02410040024B187800F00700704700BF0241004070B504460E46FFF7F3FF0546FE
:4017C000FFF7E0FF0346844258D02D4A127802F0010195B900B184B93BB92A4B1C8002331A7802F0BF021A7070BD274B1A7842F040021A70023B1C8070BD29B30022234805
:40180000027001251330057004380270204A107800F07F001070FA32127812F0080F00D094B91C4A13800722184B1A701A46137813F0010FFBD1124B1A7802F0FE021A7099
:401840000022A3F568731A700D4B1B7813F0010F0DD0104B1C800EB1032200E001220B4B1A701A46137813F0010FFBD170BD054B1C8003F2A1231A781143197070BD00BFB9
:40188000A14300400041004002410040014000400840004002400040084B1A7842F002021A7010331A7842F002021A7003F659331A7842F001021A70704700BFA3430040C9
:4018C000084B1A7802F0FE021A70A3F669331A7802F0FD021A7010331A7802F0FD021A70704700BF0C4F0040014B1870704700BF0F4F0040014B1880704700BF104F004003
:40190000014B1880704700BF124F004008B5164B1A7802F001021A7002331A7802F0FC021A7009331A7802F0CF021A701A7842F030021A701A7802F0F0021A701A7842F0DD
:401940000F021A700A3B1A7842F001021A704FF6FF70FFF7CFFF4FF6FF70FFF7D1FF0020FFF7C2FF08BD00BF0C4F004008B5054B1B7823B9FFF7CAFF0122024B1A70FFF723
:401980008BFF08BDD881FF1F024B1B88024B188880B27047124F0040144F004081F0004102E000BF83F0004330B54FEA41044FEA430594EA050F08BF90EA020F1FBF54EA6A
:4019C000000C55EA020C7FEA645C7FEA655C00F0E2804FEA5454D4EB5555B8BF6D420CDD2C4480EA020281EA030382EA000083EA010180EA020281EA0303362D88BF30BDF0
:401A000011F0004F4FEA01314FF4801C4CEA113102D0404261EB410113F0004F4FEA03334CEA133302D0524263EB430394EA050F00F0A780A4F10104D5F1200E0DDB02FA60
:401A40000EFC22FA05F2801841F1000103FA0EF2801843FA05F359410EE0A5F120050EF1200E012A03FA0EFC28BF4CF0020C43FA05F3C01851EBE37101F0004507D54FF0F3
:401A8000000EDCF1000C7EEB00006EEB0101B1F5801F1BD3B1F5001F0CD349085FEA30004FEA3C0C04F101044FEA445212F5800F80F09A80BCF1004F08BF5FEA500C50F1C7
:401AC000000041EB045141EA050130BD5FEA4C0C404141EB010111F4801FA4F10104E9D191F0000F04BF01460020B1FA81F308BF2033A3F10B03B3F120020CDA0C3208DD9B
:401B000002F1140CC2F10C0201FA0CF021FA02F10CE002F11402D8BFC2F1200C01FA02F120FA0CFCDCBF41EA0C019040E41AA2BF01EB0451294330BD6FEA04041F3C1CDA03
:401B40000C340EDC04F11404C4F1200220FA04F001FA02F340EA030021FA04F345EA030130BDC4F10C04C4F1200220FA02F001FA04F340EA0300294630BD21FA04F0294659
:401B800030BD94F0000F83F4801306BF81F480110134013D4EE77FEA645C18BF7FEA655C29D094EA050F08BF90EA020F05D054EA000C04BF1946104630BD91EA030F1EBF33
:401BC0000021002030BD5FEA545C05D14000494128BF41F0004130BD14F580043CBF01F5801130BD01F0004545F0FE4141F470014FF0000030BD7FEA645C1ABF19461046A9
:401C00007FEA655C1CBF0B46024650EA013406BF52EA033591EA030F41F4002130BD00BF90F0000F04BF0021704730B54FF4806404F132044FF000054FF0000150E700BFF4
:401C400090F0000F04BF0021704730B54FF4806404F1320410F0004548BF40424FF000013EE700BF42004FEAE2014FEA31014FEA02701FBF12F07F4393F07F4F81F0605188
:401C8000704792F0000F14BF93F07F4F704730B54FF4607401F0004521F0004120E700BF50EA010208BF704730B54FF000050AE050EA010208BF704730B511F0004502D52C
:401CC000404261EB41014FF4806404F132045FEA915C3FF4DCAE4FF003025FEADC0C18BF03325FEADC0C18BF033202EBDC02C2F1200300FA03FC20FA02F001FA03FE40EA05
:401D00000E0021FA02F11444C1E600BF4FF0FF3C06E000BF4FF0010C02E000BF4FF0010C4DF804CD4FEA410C7FEA6C5C4FEA430C18BF7FEA6C5C1BD001B050EA410C0CBF26
:401D400052EA430C91EA030F02BF90EA020F0020704710F1000F91EA030F58BF994208BF90422CBFD8176FEAE37040F0010070474FEA410C7FEA6C5C02D150EA013C07D1B9
:401D80004FEA430C7FEA6C5CD6D152EA033CD3D05DF8040B704700BF8446104662468C461946634600E000BF01B5FFF7B7FF002848BF10F1000F01BD4DF808EDFFF7F4FF08
:401DC0000CBF012000205DF808FB00BF4DF808EDFFF7EAFF34BF012000205DF808FB00BF4DF808EDFFF7E0FF94BF012000205DF808FB00BF4DF808EDFFF7CEFF94BF012031
:401E000000205DF808FB00BF4DF808EDFFF7C4FF34BF012000205DF808FB00BF80F0004002E000BF81F0004142001FBF5FEA410392EA030F7FEA226C7FEA236C6AD04FEA8D
:401E40001262D2EB1363C1BFD218414048404140B8BF5B42192B88BF704710F0004F40F4000020F07F4018BF404211F0004F41F4000121F07F4118BF494292EA030F3FD070
:401E8000A2F1010241FA03FC10EB0C00C3F1200301FA03F100F0004302D5494260EB4000B0F5000F13D3B0F1807F06D340084FEA310102F10102FE2A51D2B1F1004F40EB42
:401EC000C25008BF20F0010040EA03007047490040EB000010F4000FA2F10102EDD1B0FA80FCACF1080CB2EB0C0200FA0CF0AABF00EBC25052421843BCBFD04018437047CF
:401F000092F0000F81F4000106BF80F400000132013BB5E74FEA41037FEA226C18BF7FEA236C21D092EA030F04D092F0000F08BF0846704790EA010F1CBF0020704712F025
:401F40007F4F04D1400028BF40F00040704712F100723CBF00F50000704700F0004343F0FE4040F4000070477FEA226216BF08467FEA23630146420206BF5FEA412390EA4F
:401F8000010F40F4800070474FF0000304E000BF10F0004348BF40425FEA000C08BF704743F0964301464FF000001CE050EA010208BF70474FF000030AE000BF50EA0102B1
:401FC00008BF704711F0004302D5404261EB41015FEA010C02BF84460146002043F0B64308BFA3F18053A3F50003BCFA8CF2083AA3EBC25310DB01FA02FC634400FA02FC5F
:40200000C2F12002BCF1004F20FA02F243EB020008BF20F00100704702F1200201FA02FCC2F1200250EA4C0021FA02F243EB020008BF20EADC7070474FF0FF0C1CEAD05214
:402040001EBF1CEAD15392EA0C0F93EA0C0F6FD01A4480EA010C400218BF5FEA41211ED04FF0006343EA501043EA5111A0FB01310CF00040B1F5000F3EBF490041EAD37133
:402080005B0040EA010062F17F02FD2A1DD8B3F1004F40EBC25008BF20F00100704790F0000F0CF0004C08BF49024CEA502040EA51207F3AC2BFD2F1FF0340EAC2507047CF
:4020C00040F400004FF00003013A5DDC12F1190FDCBF00F000407047C2F10002410021FA02F1C2F1200200FA02FC5FEA310040F1000053EA4C0308BF20EADC70704792F0EB
:40210000000F00F0004C02BF400010F4000F013AF9D040EA0C0093F0000F01F0004C02BF490011F4000F013BF9D041EA0C018FE70CEAD15392EA0C0F18BF93EA0C0F0AD06C
:4021400030F0004C18BF31F0004CD8D180EA010000F00040704790F0000F17BF90F0004F084691F0000F91F0004F14D092EA0C0F01D142020FD193EA0C0F03D14B0218BFD1
:40218000084608D180EA010000F0004040F0FE4040F40000704740F0FE4040F4400070474FF0FF0C1CEAD0521EBF1CEAD15392EA0C0F93EA0C0F69D0A2EB030280EA010C81
:4021C00049024FEA402037D04FF0805343EA111143EA10130CF000408B4238BF5B0042F17D024FF4000C8B4224BF5B1A40EA0C00B3EB510F24BFA3EB510340EA5C00B3EBA5
:40220000910F24BFA3EB910340EA9C00B3EBD10F24BFA3EBD10340EADC001B0118BF5FEA1C1CE0D1FD2A3FF650AF8B4240EBC25008BF20F0010070470CF0004C4CEA502063
:402240007F32C2BFD2F1FF0340EAC250704740F400004FF00003013A37E792F0000F00F0004C02BF400010F4000F013AF9D040EA0C0093F0000F01F0004C02BF490011F4AC
:40228000000F013BF9D041EA0C0195E70CEAD15392EA0C0F08D142027FF47DAF93EA0C0F7FF470AF084676E793EA0C0F04D14B023FF44CAF08466EE730F0004C18BF31F025
:4022C000004CCAD130F000427FF45CAF31F000437FF43CAF5FE700BF4FF0FF3C06E000BF4FF0010C02E000BF4FF0010C4DF804CD4FEA40024FEA41037FEA226C18BF7FEAB3
:40230000236C11D001B052EA530C18BF90EA010F58BFB2EB030088BFC81738BF6FEAE17018BF40F0010070477FEA226C02D15FEA402C05D17FEA236CE4D15FEA412CE1D0DA
:402340005DF8040B704700BF844608466146FFE70FB5FFF7C9FF002848BF10F1000F0FBD4DF808EDFFF7F4FF0CBF012000205DF808FB00BF4DF808EDFFF7EAFF34BF0120DE
:4023800000205DF808FB00BF4DF808EDFFF7E0FF94BF012000205DF808FB00BF4DF808EDFFF7D2FF94BF012000205DF808FB00BF4DF808EDFFF7C8FF34BF012000205DF800
:4023C00008FB00BF4FEA4002B2F1FE4F0FD34FF09E03B3EB12620DD94FEA002343F0004310F0004F23FA02F018BF404270474FF00000704712F1610F01D1420205D110F061
:40240000004008BF6FF0004070474FF000007047014B1868704700BF9481FF1F70B50E4B0E4D0024ED1AAD101E46AC4204D056F8242090470134F8E700F008F9084D094BD6
:402440000024ED1AAD101E46AC4204D056F8242090470134F8E770BD58260000582600006026000058260000024B0146186800F061B800BF9481FF1F024B0146186800F091
:4024800015B800BF9481FF1F10B50023934203D0CC5CC4540133F9E710BD02440346934202D003F8011BFAE77047000030B500293CD051F8042C0B1F1D49002AB8BF9B1850
:4024C0000A680C4612B95A600B6030BD93420DD219685818904203D15A581144426819605A60236030BD994203D80A4651680029F9D1146815199D420AD11B682344D018B4
:402500008842136012D10868034413604B680CE002D90C23036030BD18681C188C4203D10C684968204418605960536030BD00BFE081FF1F70B5CD1C25F0030508350C2DC9
:4025400038BF0C25002D06463FDB8D423DD3214B1C6818462146A1B10B685B1B0ED40B2B03D90B60CC18CD501FE08C4202D1626802601AE04B6863600C4616E00C464968EA
:40258000E9E7154C23681BB9304600F027F820602946304600F022F8431C014615D0C41C24F0030484420AD1256004F10B00231D20F00700C31A0BD05A42E25070BD30466B
:4025C000611A00F00BF80130EED10C233360002070BD00BFE081FF1FDC81FF1F38B5064C0023054608462360FDF710FF431C02D1236803B12B6038BD0C82FF1F0000000097
:40260000035B00402443004040000000004F0040180010510040100030510040400000000140001000140140000800400140000A004C0140000210500140100000500140B2
:402640008C0B00481000000043000000F8B500BFF8BC08BC9E4670474D00000089040000F8B500BFF8BC08BC9E46704729000000802600000881FF1F9000000078000000D2
:40268000000000001082FF1F7F8000000F0000000000E02EC05D00001800000000366E01FFFFFFFFFFFFFFFF01FF000000000000000000000000000000000000000000007C
:4026C000000000000000000000000000482600000000000000000000000000000000000000000000000000000000000000000000000000000000000000000000000000006C
:402700000000000000000000000000003481FF1F000000000000000000000000000000000000000000000000000000000000000000000000000000000000000000000000C6
:402740000000000000000000000000000000000000000000000000000000000000000000000000000000000000000000000000000000000000000000000000000000000059
:402780000000000000000000000000000000000000000000000000000000000000000000000000000000000000000000000000000000000000000000000000000000000019
:4027C00000000000000000000000000000000000000000000000000000000000000000000000000000000000000000000000000000000000000000000000000000000000D9
:402800000000000000000000000000000000000000000000000000000000000000000000000000000000000000000000000000000000000000000000000000000000000098
:020000040003F7
:0200000480007A
:40000000044F004005520040025B004003640040026500402900014032010140110201404A0301401C0401403F050140200601404C0701401508014047090140300A0140A0
:40004000480B0140300C0140460D01401A0E01402B0F01403A1401403E1501402D16014043170140311801404D190140321A0140411B01400F4001400541014010420140B0
:40008000064301400644014009450140164601400C47014006480140034901400B4C0140064D0140035001400251014001800A9C0D40164B1001110260806440782027843B
:4000C0002F84830186018838840F88721E0134015608580459045B045C225D905F018302840A8605880489048A018D018E309301940F98079A089C20A001AA02AD04B020D0
:40010000B20CB403B504B610B703B920BF10D207D306D80CD904DB04DC92DD20DF01012003200514070209800A880E19116013041680171018041A081C801D041E491F104E
:400140002620270229202D80310232D43320370239403B043E503F02594063026E106F127F028110884089408B108D12C0E6C2EBC457CA14CC8FCEBAD608D808DE10E080B9
:40018000E6245401580459045B0C5C115D205F019201B201D602D735D804D904DB0CDC22DD20DF010004012002800508070809100AA00C040E20101011401210130414202F
:4001C0001501160817401A20281029202C042D093102329034203758380439403C083E085A105E40622069246A817040719072807B027F02804081408240860189048D10A5
:400200009004925095409620970499209D809E80A112A220A302A580A680AD20B404C06EC22EC4F5CAE6CC7DCE4AD614D804DE18E009E401E604EE022301370158045904E3
:400240005C125F018001861087048A0193029A089C04A202A402A701A808AE04B104B301B41FB502B820BE10D804D904DC11DF0100240120028005010608076209100A20B2
:400280000E240F8311401210134014011510160117191C081D101F1023012520275829182A012B012D012E042F0431213510374939103B083D103E083F80840890049140BA
:4002C0009220950199209D089E109F58A112A280A404A610AA80B190B610C0FEC2F6C4F5CAEFCCF5CE76E208E440E60CEE060304050109200B100D800F40110417021B08F0
:400300001F01214022012380250829102B202D0233FF36013F0456025736580459045B0F5C015D105F01D804D904DC12DF01002002800304051006200740081009020F8153
:40034000111012101340168017181F8027202B802D802E202FA43104335034013504360137583B293D413E983F0158105A205C0865206D406E166F207402758076087701F3
:400380007BC07F408610870489418F50922093E1950196049708980899109B589C019D089E189F21A010A102A280A610A740AF52C07AC29AC477CAF1CCFECEF7D640D82054
:4003C000DE80E408EA08050106010D01110116011D01300135013E013F105418580459045B045C125D305F01D804D904DC11DF0101020302050406030744088009040A08F9
:400400000D030E080F2010021220150416801F01261028882B022D222F22300232243401350136A2370838203C043E605E02640467028448850288128B088C908D248E2035
:4004400091049503960899019A819B449C809D029E40A102A204A482A504A620A804AA01AE01AF02C0F9C277C435CAFDCCF7CE74D680D830E010E4C0E620E804EC03000362
:40048000140318021A011C03200326032C03340236015608580459045B045C215D905F0180018302840A86058B018C20940F9A309C079E08A104A404A501A601AA02B01096
:4004C000B20CB304B420B503B603B980BF44D207D306D80CD904DB04DC91DD10DF010102044005040640088009040A080D200E22108212201620171018041A021C401D040A
:400500001E021F102402253026082A892D012F103020334439023D243E083F025A4063026E206F127F02800186308A088E409104972099019A819B449E08A020A102A20404
:40054000A702A801AA40AC80AF10B210B308B408B502C0B8C2E7C46DCACBCC0ECEA1D608D808DE10E208E444E840EC21EE8002040420061008800A400E02120114041A0864
:400580001B011C0220082410262028402A802C0134FF35013A023E105401580459045B0C5C235D105F018101820190019101950198019901A001A601A701A801A901AC018B
:4005C000AD01B201B701D804D904DC22DF01010203400412058006D10710081009020C300D420E080F1011241241130814081502160217041B081D1122402510270428084D
:400600002A882C222D02302231023304358037183A013D203E805C807F02801081408204871089018E0290029104958297109A019C089D129E0A9F04A102A204AD04AF08C1
:40064000B401B508B601C0F8C2FAC4FFCADECC77CE31D610DE10E060EC40580459045C225F0184048A108B028C0290019301960498089E02A208A304AE01B104B21FB301E3
:40068000B702B808BE04D804D904DC22DF01012A02040304051A060109040B080D420E080F101102120113401502160A17051F0C241225072604280829082D082E022F08E6
:4006C0003102330834083520370138103A053D0A3F508F04C0FEC2F6C4F9CAE6CCE3CEF7E020E6140411060E071509330B0C0E2C12081308142C1613181119331A261B043E
:400700002140252A2610270429032A132B0430103130320F3340342A350F39023A283B203E013F054004460449FF4A074BFF4C404D204EF04F0550085401580459045A04DE
:400740005B045C335D335F01604061A862406320D804D904DC11DF01000403020628074009200A100B800F081038121015011718180419181A90213222242820290A2A10F0
:400780002D012E282F14311033023758380839203F084102500C51045340581059025A8883848710910193289528978099029B589C209D10A020A382A408A620AE01B6806F
:4007C000C075C24EC476CAE7CC75CE46D001D60FE406E80E16013201580459045C115F01842C86118C098E1090109480981C9A229E03A014A430A60CA840AC80B060B4803D
:40080000B61FB822BE10C023C106C5ECC60BC807C9FFCAFFCBFFCEF0CF44D00CD804D904DA04DC23DD03DF01E6C0EA40EB020008030205040602074008280A010B800E14D8
:400840001088118012201501171819201A011B021D041F042A102E062F94310232903304375839103B403D01411448244912508083048510874089029101923093609510EF
:40088000970898089A109B5C9D20A142A280A380AE10B002B108B390B708C0B5C26FC47FCAE4CC7FCE8CD006D204E001E402E608EA02EC1000800409063208020A45149FF2
:4008C00018141A2A289F30803207341836603E40402441054206440146CE480C49FF4AFF4BFF4C624DA04EF04F41500C56025711580459045A045B045C235D335F016640EE
:40090000670269106A306B106D106E106F12D804D904DC21DF01002001020204030204120508088009040C080E041040122017101C101D921E142A822E022F2032103360EC
:4009400035043608374039023B253C083DA03F0145A246404E0A57505E206C096F10748077288110828084048602871089408B04910294049501964098C19A029B409C0483
:400980009D04A010A104A232A302A681A710AD02B264B320B480B702C07BC265C44CCAC9CC1CCEF7D0B0D230D620E420E8A0ECD0580459045C115F01800F811082F0844116
:4009C000851888828B018C1C8EE38F209119934494C39547971898F399089A0C9C089F20A2F3A306A404A501A780A80CA95FACFFAD19AF42B02CB140B21CB380B40FB5202D
:400A0000B6C0B71FB902BA22BB80BF10D804D904DC33DF01032205190702088809040B400C800E180F021040120414131501164817281C041D251E4A24102690274228881D
:400A40002D092E402F08304033223410360437423A043B403C103E083F8278047A108002810283288740890892109404964098C199109A449B289C049D0EA080A104A3421D
:400A8000A520A681AD01B610C0F5C2EDC4FACAF5CCFDCEFAE8461040120816883020352038023E88420180018860C4F0CC30CEE0D010E620530896019D20A208D420170134
:400AC0005B015D088108830486018E089601A208A708AD20C420D6C0E210E620EE401B086308A304A708C610D84074027C0883208B10DE05E00420205101570893209C0892
:400B0000A402A720C802D4031B02278045025010560880088702880293209C08A402A720AB08B010B101C608C801D001D406E401E804EE01408047208B80932098809B8040
:400B4000A502A720A890AE08D006E6042202240127109401B401C8E0AB10AE02E8601F2037083B2093209F20A720B502C601CC01CE08EC0810408840AB08AF20C408E201C4
:400B8000100E1A0E1C0E000F10AA00000E01000000000000060106000E010E00000101000100000080004080800080000000000030300000003030000707000000030700A8
:400BC0000A001801000100000002000000030000000000000000000000000000000000000000000000000000000000000000000000000000000000000000000000000000CC
:400C000000000000000000000000000000000000000000000000000000000000000000000000000000000000000000000000000000000000000000000000000000000000B4
:400C40000000000000000000000000000000000000000000000000000000000000000000000000000000000000000000000000000000000000000000000000000000000074
:400C80000000000000000000000000000000000000000000000000000000000000000000000000000000000000000000000000000000000000000000000000000000000034
:400CC00000000000000000000000000000000000000000000000000000000000000000000000000000000000000000000000000000000000000000000000000000000000F4
:0200000490006A
:0400000000004005B7
:0200000490105A
:04000000BC90ACAF55
:0200000490303A
:020000000122DB
:0200000490402A
:4000000000000000000000000000000000000000000000000000000000000000000000000000000000000000000000000000000000000000000000000000000000000000C0
:400040000000000000000000000000000000000000000000000000000000000000000000000000000000000000000000000000000000000000000000000000000000000080
:400080000000000000000000000000000000000000000000000000000000000000000000000000000000000000000000000000000000000000000000000000000000000040
:4000C0000000000000000000000000000000000000000000000000000000000000000000000000000000000000000000000000000000000000000000000000000000000000
:0200000490501A
:0C00000000012E16106900012E28118B43
:00000001FF