:400000000080002011000000BD020000BD02000008B5044B1A6803F53F5302331A6000F067F900BFFA46004010B5054C237833B9044B13B10448AFF300800123237010BD99
:400040009881FF1F00000000A01C000008B5064B1BB106480649AFF300800648036813B1054B03B1984708BD00000000A01C00009C81FF1F0881FF1F000000002DE9F84FD4
:4000800062B600F075F800F07BFD00F0BDFC00F08BFD00F0CDFC00240125294E00F084FD204600F089FD204600F092FD8246284600F08EFD074600F0BBFC204600F0C0FCDF
:4000C000204600F0C9FC8146284600F0C5FC804600F0C8FF83461FFA8AF0294600F032F88246B8B2294600F02DF807461FFA89F0214600F027F881461FFA88F0214600F0E3
:4001000021F880461FFA8BF0022100F01BF85046394600F065F807464846414600F060F880463846314601F093FC28B94046314601F08EFC0028B1D04FF0FF30BDE8F88F43
:40014000000080BF08B511B1012906D00BE001F093FA064901F09CFB08BD01F08DFA034901F096FB08BD002008BD00BF00F07F4510B50C2001F0CAFC0446C82000F07CF81B
:40018000206000236360A360204610BD0000000038B501F0BFF920F0004001F0DBF804460D460BA3D3E9002301F088F950B12046294609A3D3E9002301F09EF928B94FF054
:4001C000FF3038BD4FF0FF3038BD012038BD00BF9A9999999999B93F9A9999999999B9BF38B505460C46FFF7D3FFB0F1FF3F08D02846214601F090F94FF07C5101F094FA22
:4002000038BD014838BD00BF000080BF38B505460B4B1C6854B9082001F078FC084B1860002343600560074B186038BD082001F06DFC6060056000224260014A106038BD11
:40024000E081FF1FE481FF1F38B5094B186858B1056842681C461A6001F060FC236823B90022044B1A6000E00025284638BD00BFE481FF1FE081FF1FF8B50646082001F0E5
:4002800045FC0546094B0360094B43600024094B1C60094B1C60002703E02B68384698470134B442F9DB2846F8BD00BF0D02000049020000E081FF1FE481FF1FFEE700BF65
:4002C00008B5094B1B681844084A821A802A02DC054A106005E001F0EDFB0C2303604FF0FF33184608BD00BF0C81FF1F1082FF1F80B5104F104E002415E031687368B5683F
:40030000224604E051F8040B43F8040B0432AA42F8D1F168224602E043F8044B04328A42FAD11036013F002FE7D101F0C9FBFFF7A5FEFEE701000000141D000010B5134AF6
:40034000134B1A6008331A6842F400721A6000231048114C114908E0032B02D854F8232000E0024641F8232001332F2BF4D90C4B1A780C4B1A70094A0B4B1A6000F012F92E
:4003800000F0D2F90022094B1A6010BD0004FA050CED00E0BD020000000000000080FF1FBC7600400481FF1F08ED00E00081FF1FFEE700BFF0B400231F4611E050F8276073
:4003C000F2B226F0FF0608E001EB430511F813406D78A5550133013AD2B2002AF4D10137292FEBD9F0BC704770B41E4B1B78DBB21D4A1078C0B21D490C78E4B203F00706C0
:400400001B4D2E701B0901352B7040F00303137044F003030B7040F20345164B1D803025D1331D704023144D2B7002352B7006352B7002352B700425104B1D700325203390
:400440001D70202503331D70212508331D70012530331D700C7010704422A3F2E5231A7070BC7047CF010049F8460040F94600406E5800402C51004001590040005B004049
:4004800008B50A46002101F05AFB08BD08B501F04DFB08BDF8B50025354B1D80502202331A70012202331A801823324A13700E2231490A8002310B7002310A802F4A137061
:4004C0002F4830490422FFF7E1FF02222E4B1A7008234FF040221370032102F5007211702A4A1178C9B22A4A1170A2F27F42138041F25122274B1A801924274F4FF4F07629
:400500000AE03B7803F0010343EA450505F00305304600F0F5F8013C0CB1032DF1D114B90320FFF745FF1D4B4FF480721A8007221A7000221A490A704820023108701A70C4
:400540000222033B1A7004220A331A7003F297331A7842F00F021A70013B1A7842F001021A70013B1A7842F080021A70F8BD00BF8040004086400040884000408E4000405B
:4005800000410040E80900480043004008010049A14600402042004025420040044000400640004038B572B63C4B1A7842F004021A7000243A4D09E004EB44035B002B44AE
:4005C00018689988FFF75CFF0134E4B2072CF3D90024344D0AE004EB84035B002B44186859681A89FFF752FF0134E4B2002CF2D04FF090402C49FFF7DDFE0A222B4B1A700B
:400600002B480421FFF73CFF2A482B490422FFF73DFF2A482A490422FFF738FF29482A490422FFF733FF294B1A7842F002021A7010331A7842F002021A70254C237843F0AF
:4006400040032370234B1A7842F010021A70224822490822FFF71AFF214822490822FFF715FF214821490822FFF710FF204B1A7842F008021A701F4D61232B70FFF70AFF71
:4006800081232B7001221C4B1A70FFF7ADFE1B4821460E22FFF7FAFE38BD00BFE8460040B01C0000E01C0000A8000048835800400076004008760040EC09004810760040F2
:4006C000F009004818760040F409004803500140A0430040C243004002510040D0090048F2510040D809004822510040E0090048224300400048004004000840B0430040BA
:400700000230800800F0058000BF013800467FF4FCAF7047EFF3108072B6704780F31088704700BFAFF300800B4A7F2313708021517007E0DA0002F1804202F5F042013BCC
:40074000DBB21370002BF5D1DB0003F1804303F5F04300221A7070471081FF1F172815D831B102010A4BD15C41F02001D15405E00201074BD15C01F0DF01D1540001044BF2
:40078000C25C42F00102C25400207047012070471070004017280CD80001074BC218117941F004011171C25C42F00102C254002070470120704700BF1070004017280BD816
:4007C0000001064BC25C02F0F10201F0070142EA4101C15400207047012070471070004041F6FF73994201D14FF4005141F6FF739A4201D14FF40052172808D8C00000F113
:40080000804000F5EC408180C280002070470120704700BF172805D8034B03EB0010417200207047012070471070004010B417281AD8C40004F1804404F5EC44D201D2B2AA
:4008400001F07F01114321709DF804201201D2B203F00F03134363709DF8083003F00F03A3700020E07000E001205DF8044B704710B5FFF74FFF0A4B5B78182B0BD9084A49
:400880001478013B5370E30003F1804303F5F0431B78137000E0FF24FFF740FF204610BD1081FF1F10F0800F0CD111F4704F0BD1C00000F1804000F5F04001808270C37070
:4008C00000207047012070470120704710F0800F08D1C00000F1804000F5F0408180C280002070470120704701BE704708B5034B1B7A03FB00F0FFF703FF08BD1881FF1F09
:4009000010B5022001214FF4804241F6FF7300F017FA084C20700420012141F6FF72134600F02EFA6070044800F04CFA012000F04FFA10BDB481FF1F750A000070B52C4CD4
:400940002078FFF727FF6078FFF724FF294B1B78FF2B03D1FFF78CFF264B1870254C2278104604210623FFF79DFF214D2E1DB6B2207845F6A0313246FFF7A8FF28782178FF
:40098000FFF748FF6378FF2B02D1FFF771FF6070184D6A78104604210723FFF783FF68783146154A92B2FFF791FF114C60786978FFF730FF20780121FFF7D0FE6078012155
:4009C000FFF7CCFEFFF7A6FE0C4B1A7842F020021A70FFF7A3FE0A4B1A7842F001021A701A7842F002021A700222064B1A6070BDB481FF1F2881FF1FE881FF1F986400404E
:400A00007865004080E200E008B5074B9B6823B9FFF776FF0122044B9A60FFF78FFF00F081F9024B1B7808BDB481FF1F6B650040024B1A7842F004021A7070477865004027
:400A400004490B7803F0FF020BB90028F9D01046704700BF6B650040C0F10100034B33F81000034B1B88C01A00B27047E881FF1FF081FF1F704700BF10B5022001214FF4DA
:400A8000804241F6FF7300F053FA084C20700420012141F6FF72134600F06AFA6070044800F084FA002000F087FA10BDC081FF1FED0B000070B52C4C2078FFF76BFE607864
:400AC000FFF768FE294B1B78FF2B03D1FFF7D0FE264B1870254C2278104604210623FFF7E1FE214D2E1DB6B2207845F6A2313246FFF7ECFE28782178FFF78CFE6378FF2B77
:400B000002D1FFF7B5FE6070184D6A78104604210723FFF7C7FE68783146154A92B2FFF7D5FE114C60786978FFF774FE20780121FFF714FE60780121FFF710FEFFF7EAFDE4
:400B40000C4B1A7842F020021A70FFF7E7FD0A4B1A7842F001021A701A7842F002021A700122064B1A6070BDC081FF1F2A81FF1FEC81FF1F946400407764004080E200E079
:400B800008B5074B9B6823B9FFF776FF0122044B9A60FFF78FFF00F0BDF9024B1B7808BDC081FF1F67650040024B1A7842F004021A7070477764004004490B7803F0FF02FF
:400BC0000BB90028F9D01046704700BF67650040C0F10100034B33F81000034B1B88C01A00B27047EC81FF1FFC81FF1F704700BF08B50A280FD00C2802D0082806D102E0A0
:400C00004FF4805209E04FF4807206E00020FFF76BFE002201E04FF48062002309490B8042F2107101FB02F202F6C412064981FB0201D217C2EBE12204490A60044A138082
:400C400008BD00BFFA81FF1FAD8BDB68F481FF1FF081FF1F10B5FFF75DFD0446194B1A7842F001021A7010331A7842F001021A7003F5AA5308331A7842F003021A70182255
:400C800003331A70013B1A7842F040021A701A7802F0FC021A70CE22053B1A700222A3F597530C3B1A7003F5A85313331A7842F008021A700A20FFF719FE2046FFF72EFD1C
:400CC00010BD00BFAB43004010B504460A280DD00C2802D0082804D101E0C22207E0422205E00020FFF700FEC22200E08222034B1A702046FFF77CFF10BD00BF02590040CA
:400D000008B5064B1A7842F006021A700C20FFF7DBFF0022024B1A8008BD00BF01590040F881FF1F08B5054B1B7823B9FFF7E8FF0122024B1A70FFF78DFF08BDCC81FF1F90
:400D4000F0B583B084468E4617461E460B4C03232370002500950195184661467246FFF765FD207839463246FFF73AFD20780221FFF724FD207803B0F0BD00BF2C81FF1FB7
:400D80002DE9F04182B084468E4690461F460C4C022525700026009601962846614672462B46FFF743FD207841463A46FFF718FD20782946FFF702FD207802B0BDE8F08100
:400DC0002D81FF1F014B1B685864704708ED00E04001C0B2014B1870704700BF01E400E008B50A280FD00C2802D0082806D102E04FF4805209E04FF4807206E00020FFF762
:400E000073FD002201E04FF48062002309490B8042F2107101FB02F202F6C412064981FB0201D217C2EBE12204490A60044A138008BD00BF0082FF1FAD8BDB680482FF1F65
:400E4000FC81FF1F10B5FFF765FC0446194B1A7842F002021A7010331A7842F002021A7003F5AA5310331A7842F003021A70182203331A70013B1A7842F040021A701A7843
:400E800002F0FC021A70CE22053B1A700222A3F59753123B1A7003F5A85319331A7842F008021A700A20FFF721FD2046FFF736FC10BD00BFAB43004010B504460A280DD046
:400EC0000C2802D0082804D101E0C22207E0422205E00020FFF708FDC22200E08222034B1A702046FFF77CFF10BD00BF0A59004008B5064B1A7842F006021A700C20FFF70B
:400F0000DBFF0022024B1A8008BD00BF09590040FE81FF1F08B5054B1B7823B9FFF7E8FF0122024B1A70FFF78DFF08BDCD81FF1FF0B583B084468E4617461E460B4C012353
:400F40002370002500950195184661467246FFF76DFC207839463246FFF742FC20780221FFF72CFC207803B0F0BD00BF2E81FF1FF0B583B086460F4616461D460A4C002321
:400F8000237000930193184671463A46FFF74EFC207831462A46FFF723FC20780221FFF70DFC207803B0F0BD2F81FF1F014B1B681864704708ED00E04001C0B2014B187030
:400FC000704700BF00E400E0024B1A7842F001021A707047004E0040024B1A7802F0FE021A707047004E0040084A0949137913F0FF0F02D05379DBB202E00B7803F001036C
:40100000012B01D00028F1D018467047D081FF1F014E00400E4B1B7803F00303012B03D80C4B188880B209E00A4A12780A49087842EA0020032B01D1084B1B78084B1B79EF
:4010400013F0FF0F02D00022054B5A7100B27047144E0040104E0040114E0040124E0040D081FF1F10B5084B1A7842F004021A70FFF7AAFF0020FFF7B7FFFFF7CBFF044618
:40108000FFF7AAFF204610BD014E004081F0004102E000BF83F0004330B54FEA41044FEA430594EA050F08BF90EA020F1FBF54EA000C55EA020C7FEA645C7FEA655C00F046
:4010C000E2804FEA5454D4EB5555B8BF6D420CDD2C4480EA020281EA030382EA000083EA010180EA020281EA0303362D88BF30BD11F0004F4FEA01314FF4801C4CEA113183
:4011000002D0404261EB410113F0004F4FEA03334CEA133302D0524263EB430394EA050F00F0A780A4F10104D5F1200E0DDB02FA0EFC22FA05F2801841F1000103FA0EF296
:40114000801843FA05F359410EE0A5F120050EF1200E012A03FA0EFC28BF4CF0020C43FA05F3C01851EBE37101F0004507D54FF0000EDCF1000C7EEB00006EEB0101B1F590
:40118000801F1BD3B1F5001F0CD349085FEA30004FEA3C0C04F101044FEA445212F5800F80F09A80BCF1004F08BF5FEA500C50F1000041EB045141EA050130BD5FEA4C0CE1
:4011C000404141EB010111F4801FA4F10104E9D191F0000F04BF01460020B1FA81F308BF2033A3F10B03B3F120020CDA0C3208DD02F1140CC2F10C0201FA0CF021FA02F10B
:401200000CE002F11402D8BFC2F1200C01FA02F120FA0CFCDCBF41EA0C019040E41AA2BF01EB0451294330BD6FEA04041F3C1CDA0C340EDC04F11404C4F1200220FA04F0C9
:4012400001FA02F340EA030021FA04F345EA030130BDC4F10C04C4F1200220FA02F001FA04F340EA0300294630BD21FA04F0294630BD94F0000F83F4801306BF81F4801129
:401280000134013D4EE77FEA645C18BF7FEA655C29D094EA050F08BF90EA020F05D054EA000C04BF1946104630BD91EA030F1EBF0021002030BD5FEA545C05D140004941CA
:4012C00028BF41F0004130BD14F580043CBF01F5801130BD01F0004545F0FE4141F470014FF0000030BD7FEA645C1ABF194610467FEA655C1CBF0B46024650EA013406BFA7
:4013000052EA033591EA030F41F4002130BD00BF90F0000F04BF0021704730B54FF4806404F132044FF000054FF0000150E700BF90F0000F04BF0021704730B54FF4806499
:4013400004F1320410F0004548BF40424FF000013EE700BF42004FEAE2014FEA31014FEA02701FBF12F07F4393F07F4F81F06051704792F0000F14BF93F07F4F704730B5BF
:401380004FF4607401F0004521F0004120E700BF50EA010208BF704730B54FF000050AE050EA010208BF704730B511F0004502D5404261EB41014FF4806404F132045FEA92
:4013C000915C3FF4DCAE4FF003025FEADC0C18BF03325FEADC0C18BF033202EBDC02C2F1200300FA03FC20FA02F001FA03FE40EA0E0021FA02F11444C1E600BF4FF0FF3C65
:4014000006E000BF4FF0010C02E000BF4FF0010C4DF804CD4FEA410C7FEA6C5C4FEA430C18BF7FEA6C5C1BD001B050EA410C0CBF52EA430C91EA030F02BF90EA020F0020FF
:40144000704710F1000F91EA030F58BF994208BF90422CBFD8176FEAE37040F0010070474FEA410C7FEA6C5C02D150EA013C07D14FEA430C7FEA6C5CD6D152EA033CD3D0C8
:401480005DF8040B704700BF8446104662468C461946634600E000BF01B5FFF7B7FF002848BF10F1000F01BD4DF808EDFFF7F4FF0CBF012000205DF808FB00BF4DF808ED32
:4014C000FFF7EAFF34BF012000205DF808FB00BF4DF808EDFFF7E0FF94BF012000205DF808FB00BF4DF808EDFFF7CEFF94BF012000205DF808FB00BF4DF808EDFFF7C4FF6D
:4015000034BF012000205DF808FB00BF80F0004002E000BF81F0004142001FBF5FEA410392EA030F7FEA226C7FEA236C6AD04FEA1262D2EB1363C1BFD21841404840414025
:40154000B8BF5B42192B88BF704710F0004F40F4000020F07F4018BF404211F0004F41F4000121F07F4118BF494292EA030F3FD0A2F1010241FA03FC10EB0C00C3F1200366
:4015800001FA03F100F0004302D5494260EB4000B0F5000F13D3B0F1807F06D340084FEA310102F10102FE2A51D2B1F1004F40EBC25008BF20F0010040EA030070474900E2
:4015C00040EB000010F4000FA2F10102EDD1B0FA80FCACF1080CB2EB0C0200FA0CF0AABF00EBC25052421843BCBFD0401843704792F0000F81F4000106BF80F4000001327C
:40160000013BB5E74FEA41037FEA226C18BF7FEA236C21D092EA030F04D092F0000F08BF0846704790EA010F1CBF0020704712F07F4F04D1400028BF40F00040704712F1AD
:4016400000723CBF00F50000704700F0004343F0FE4040F4000070477FEA226216BF08467FEA23630146420206BF5FEA412390EA010F40F4800070474FF0000304E000BFEC
:4016800010F0004348BF40425FEA000C08BF704743F0964301464FF000001CE050EA010208BF70474FF000030AE000BF50EA010208BF704711F0004302D5404261EB410171
:4016C0005FEA010C02BF84460146002043F0B64308BFA3F18053A3F50003BCFA8CF2083AA3EBC25310DB01FA02FC634400FA02FCC2F12002BCF1004F20FA02F243EB020002
:4017000008BF20F00100704702F1200201FA02FCC2F1200250EA4C0021FA02F243EB020008BF20EADC7070474FF0FF0C1CEAD0521EBF1CEAD15392EA0C0F93EA0C0F6FD0B7
:401740001A4480EA010C400218BF5FEA41211ED04FF0006343EA501043EA5111A0FB01310CF00040B1F5000F3EBF490041EAD3715B0040EA010062F17F02FD2A1DD8B3F197
:40178000004F40EBC25008BF20F00100704790F0000F0CF0004C08BF49024CEA502040EA51207F3AC2BFD2F1FF0340EAC250704740F400004FF00003013A5DDC12F1190FDD
:4017C000DCBF00F000407047C2F10002410021FA02F1C2F1200200FA02FC5FEA310040F1000053EA4C0308BF20EADC70704792F0000F00F0004C02BF400010F4000F013A6F
:40180000F9D040EA0C0093F0000F01F0004C02BF490011F4000F013BF9D041EA0C018FE70CEAD15392EA0C0F18BF93EA0C0F0AD030F0004C18BF31F0004CD8D180EA01004B
:4018400000F00040704790F0000F17BF90F0004F084691F0000F91F0004F14D092EA0C0F01D142020FD193EA0C0F03D14B0218BF084608D180EA010000F0004040F0FE406E
:4018800040F40000704740F0FE4040F4400070474FF0FF0C1CEAD0521EBF1CEAD15392EA0C0F93EA0C0F69D0A2EB030280EA010C49024FEA402037D04FF0805343EA11116E
:4018C00043EA10130CF000408B4238BF5B0042F17D024FF4000C8B4224BF5B1A40EA0C00B3EB510F24BFA3EB510340EA5C00B3EB910F24BFA3EB910340EA9C00B3EBD10F11
:4019000024BFA3EBD10340EADC001B0118BF5FEA1C1CE0D1FD2A3FF650AF8B4240EBC25008BF20F0010070470CF0004C4CEA50207F32C2BFD2F1FF0340EAC250704740F437
:4019400000004FF00003013A37E792F0000F00F0004C02BF400010F4000F013AF9D040EA0C0093F0000F01F0004C02BF490011F4000F013BF9D041EA0C0195E70CEAD153F1
:4019800092EA0C0F08D142027FF47DAF93EA0C0F7FF470AF084676E793EA0C0F04D14B023FF44CAF08466EE730F0004C18BF31F0004CCAD130F000427FF45CAF31F00043E5
:4019C0007FF43CAF5FE700BF4FF0FF3C06E000BF4FF0010C02E000BF4FF0010C4DF804CD4FEA40024FEA41037FEA226C18BF7FEA236C11D001B052EA530C18BF90EA010FCA
:401A000058BFB2EB030088BFC81738BF6FEAE17018BF40F0010070477FEA226C02D15FEA402C05D17FEA236CE4D15FEA412CE1D05DF8040B704700BF844608466146FFE781
:401A40000FB5FFF7C9FF002848BF10F1000F0FBD4DF808EDFFF7F4FF0CBF012000205DF808FB00BF4DF808EDFFF7EAFF34BF012000205DF808FB00BF4DF808EDFFF7E0FF20
:401A800094BF012000205DF808FB00BF4DF808EDFFF7D2FF94BF012000205DF808FB00BF4DF808EDFFF7C8FF34BF012000205DF808FB00BF014B1868704700BF9081FF1F1C
:401AC00070B50E4B0E4D0024ED1AAD101E46AC4204D056F8242090470134F8E700F008F9084D094B0024ED1AAD101E46AC4204D056F8242090470134F8E770BDFC1C000018
:401B0000FC1C0000041D0000FC1C0000024B0146186800F061B800BF9081FF1F024B0146186800F015B800BF9081FF1F10B50023934203D0CC5CC4540133F9E710BD024493
:401B40000346934202D003F8011BFAE77047000030B500293CD051F8042C0B1F1D49002AB8BF9B180A680C4612B95A600B6030BD93420DD219685818904203D15A5811445C
:401B8000426819605A60236030BD994203D80A4651680029F9D1146815199D420AD11B682344D0188842136012D10868034413604B680CE002D90C23036030BD18681C18F9
:401BC0008C4203D10C684968204418605960536030BD00BFDC81FF1F70B5CD1C25F0030508350C2D38BF0C25002D06463FDB8D423DD3214B1C6818462146A1B10B685B1B84
:401C00000ED40B2B03D90B60CC18CD501FE08C4202D1626802601AE04B6863600C4616E00C464968E9E7154C23681BB9304600F027F820602946304600F022F8431C014693
:401C400015D0C41C24F0030484420AD1256004F10B00231D20F00700C31A0BD05A42E25070BD3046611A00F00BF80130EED10C233360002070BD00BFDC81FF1FD881FF1FC0
:401C800038B5064C0023054608462360FEF718FB431C02D1236803B12B6038BD0882FF1F00000000035B00402443004040000000105100401000305100404000C05100407D
:401CC000100000000140001000140140000800400140000A004C0140000210500140100000500140C00900481000000043000000F8B500BFF8BC08BC9E4670474D0000009A
:401D00003D030000F8B500BFF8BC08BC9E46704729000000281D00000881FF1F900000007800000000000000000000001082FF1F7F8000000F0000000000E02EC05D0000DE
:401D40001800000000366E01FFFFFFFFFFFFFFFF0000000000000000000000000000000000000000000000000000000000000000EC1C0000000000000000000000000000A6
:401D80000000000000000000000000000000000000000000000000000000000000000000000000000000000000000000000000003081FF1F00000000000000000000000054
:401DC00000000000000000000000000000000000000000000000000000000000000000000000000000000000000000000000000000000000000000000000000000000000E3
:401E000000000000000000000000000000000000000000000000000000000000000000000000000000000000000000000000000000000000000000000000000000000000A2
:401E40000000000000000000000000000000000000000000000000000000000000000000000000000000000000000000000000000000000000000000000000000000000062
:401E80000000000000000000000000000000000000000000000000000000000000000000000000000000000000000000000000000000000000000000000000000000000022
:020000040003F7
:0200000480007A
:4000000005520040025B004002640040016500400E00014024010140290201403E030140240401404605014012060140370701401E080140420901401A0A0140480B0140E4
:400040000C0C0140330D0140180E0140220F01403814014039150140181601403E1701402718014045190140171A01403A1B01400C4001400B410140094201400343014058
:40008000024401400D4501400D460140094701400848014005490140164C0140044D014005500140025101400001100111037810793027842F8484018801840F0602120111
:4000C0001F01300132023301580459045C335F01D804D904DC33DF010040031804600504061009080A800B010C040F21100412501588186019011B08210C231029012B08AD
:400100002F28308031043320350539883B413F518101C0E7C2ADC4AECA65CCCECEBBE004580459045C225F0180028301860887048B088E108F029001910494089520971053
:4001400099089A019D809F40A140A204A380A510A720A804A901AD02AE02B1FFB41FB820BE10BF01D608D804D904DB04DC03DD90DF01004001200240031007010880092072
:400180000A400B200C400F54109212041405174019201B302040289029552B402C40300832413310340437413820398A3A543B213F5441014240480249405B806002870170
:4001C0008B508D409020910895809680970199019D049E409F10A480A734AB04C08FC2FFC4CFCA8FCCDFCE7FD608D808E2060004020104070608070109040C0A0D040E05CC
:400200001020140F1A02263029012C012F0230103220330434033503360C39083F045602573A580C59045B0C5C935D305F01D804D904DC33DF0101810320050508080A44D1
:400240000D010F2013841590161419881A401B242108230428022B042D102F1035043682388039203B043FA0400841105808610868886AA26B1071707380794083208401CE
:4002800090809101936095829682980299019A149C459D549F10A350A488A520A704AB80AD01AF04B105B450B710C03DC23EC4E5CA6CCCD0CE3ED602D802DE08E20AE4048B
:4002C000EA0A580459045C325F0196019B029F01B102B201B701D207D306D804D904DB04DC33DD30DF01012002800602070809020A200B040C400F401180121814041501A9
:4003000017401904208021432282281029242BC02D202F8031523504368839803A343B043C803E203F0469606A048D048F809220934095E29604980499589A149C409D04D3
:40034000A350A682B004C0CAC29EC4D7CAA7CC5DCE7EE6100308050809200B100F041301170219011D0421022510272029402B802D802F4033FF3F04560257315804590499
:400380005B0C5C025D205F01D804D904DC33DF010120054006800708080209A00B100D0210021301151417012720280229202D542E0A2F14300231A13484351237493880C3
:4003C0003B103DA23E845E2065806C146D606E046F4074B0751076427F0282408D20931894209540960497A0980299419B099C809D209E089F20A143A4B0A520B201C0D252
:40040000C21FC479CAFCCCFDCEFCD620D810DE10E014EE80580459045C335F01800186108A088B0490089A019E02A204A301A402A702AC04B102B501B61FB704B880BE40EC
:40044000D804D904DC22DF0101200340042205400720080209200B100CA00D020E20100611201480168A17081D401E01240225032709280229202C802E04300631213340D8
:400480003540361037093B103C203D823E08454046028440874193189402954096019720980299019B409D209E809F08A150A210A440A503AD02AF20B002B310B404B501B7
:4004C000B740C0FAC2FEC4F3CACCCCFFCEF4E404E830EA08ECC0EE102E012F0132013701580459045C225F01D804D904DC22DF0100900402072009410B200C400E27120157
:400500001308154017091C101E201F042540270128402A012E842F14302031023601370838023BA83C803D023F048420854087048B588D10940497109C029D209F40A51093
:40054000B001B501C033C2EDC4B5CA71CCC5CEDFE224E410E68005010B01130115012101250129013701580459045C335F01850189019101950199019F01A901B101D804E8
:40058000D904DC33DF010004012004040521081209100B080C100F10100513181401174820022501281029212F04300534063521374038243C043E20801082208308C076C1
:4005C000C26AC4A7CA27CCF3CE66020507070B080E040F01120815041E02240330083101330234043508360337043E10404041034524465D4701481F49FF4AFF4BFF4DA09F
:400600004F04501852805407580459045A045B045C115D115F016040624063A864406540664067A868406A406BA86C406D206E406FA8D804D904DC22DF0100400102060291
:4006400009020A010C400F40122014041541174818401A052108225023802C042D4131083440370838683E023F40405049024A205014524058015AA4640166407102820298
:4006800087088901901093409501960198449B409D029E029F88C089C299C4F4CAB0CC52CE9ED003D60FE208E604EC0808010C0110011C0120012A012C01300158045904DD
:4006C0005C325F0180019C01B201B808BE04D401D804D904DB0CDC33DD30DF01010206020708081109020A110C400F401180129C14041501174018101E8028102A102B48E5
:400700002C012F0831023410368839903A043D903E103FA05940794089488A4091C093409501985499089A149B409E029F88A102A280A350A540A940AB40AC40B520B75062
:40074000C0C8C29FC4DFCA37CC71CE3ED608DE08E003E440E801EE0900010420050409040A3010071208140F180A1A051B011C041E011F0221012A02300331043210330344
:40078000340C362039023F0152075306580C59045B045C925D205F01D608D804D904DB04DC22DD90DF01034104200504064009020B280C800E6410061180120117101D04D5
:4007C0001E441F4024202601272029022F40300431423340368037203A013B283D203F0449804A015840628067C06D206E206F127F0290089308966097A0980499429A4004
:400800009B019D80A142A610A702A840A901AA10AB01AF04B5A0C079C2FEC443CA81CC3BCE67D608D808DE10E023E440E810EC4407010901110115011F0121012901310163
:4008400038083E04580459045C225F018601B401D401D804D904DB0CDC22DD20DF01018A040805C209020BA80C040D020E041308160817081A201E041F10220229022A200A
:400880002B402C022F5430043142340435483A083B283F805F407F0281028202840488028A208B08900893489620972098049942A002A102A302A880AC40AF04C0BDC27E21
:4008C000C464CAF5CC5BCE16D610DE10E001E680EA061110130116883320358039083E884310C4F0CC30CEE0D010551083109110930195089D809F10AB20D440E220EE2003
:40090000858091109D80A510AB01AD04E210E880EA108D109110A5107C08DE01210258405C108010901098409C08B040B410C802D401D604E8091820250247048040942029
:400940009C08A520AD20B502C608C801D001EE0842204601822090609C089F04A102A520D00625102710811086048F109110C8A0E0C01A049604AD10C640EC101D203602B1
:400980003840728074048304860288048E0190609E019F04A102A520A808C601CC01CE08DC01DE04E004E40282809E80A810AD02100E11011A0E1C041D01000F10AA000008
:4009C0000C010000000000000C010C010C000C000001010001000000000000000030300000000000000307000A001801000100000002000000030000000000000000000022
:400A000000000000000000000000000000000000000000000000000000000000000000000000000000000000000000000000000000000000000000000000000000000000B6
:400A40000000000000000000000000000000000000000000000000000000000000000000000000000000000000000000000000000000000000000000000000000000000076
:400A80000000000000000000000000000000000000000000000000000000000000000000000000000000000000000000000000000000000000000000000000000000000036
:400AC00000000000000000000000000000000000000000000000000000000000000000000000000000000000000000000000000000000000000000000000000000000000F6
:0200000490006A
:0400000000004005B7
:0200000490105A
:04000000BC90ACAF55
:0200000490303A
:02000000237C5F
:0200000490402A
:4000000000000000000000000000000000000000000000000000000000000000000000000000000000000000000000000000000000000000000000000000000000000000C0
:400040000000000000000000000000000000000000000000000000000000000000000000000000000000000000000000000000000000000000000000000000000000000080
:400080000000000000000000000000000000000000000000000000000000000000000000000000000000000000000000000000000000000000000000000000000000000040
:4000C0000000000000000000000000000000000000000000000000000000000000000000000000000000000000000000000000000000000000000000000000000000000000
:0200000490501A
:0C00000000012E16106900012E2433E5CB
:00000001FF