:400000000080002011000000250200002502000008B5044B1A6803F53F5302331A6000F01BF900BFFA46004010B5054C237833B9044B13B10448AFF300800123237010BD15
:400040009881FF1F00000000801B000008B5064B1BB106480649AFF300800648036813B1054B03B1984708BD00000000801B00009C81FF1F0881FF1F000000002DE9F84F16
:4000800062B600F075F800F037FD00F079FC00F047FD00F089FC00240125294E00F040FD204600F045FD204600F04EFD8246284600F04AFD074600F077FC204600F07CFC87
:4000C000204600F085FC8146284600F081FC804600F084FF83461FFA8AF0294600F032F88246B8B2294600F02DF807461FFA89F0214600F027F881461FFA88F0214600F0AF
:4001000021F880461FFA8BF0022100F01BF85046394600F069F807464846414600F064F880463846314601F04FFC28B94046314601F04AFC0028B1D04FF0FF30BDE8F88FC3
:40014000000080BF08B511B1012906D00BE001F04FFA064901F058FB08BD01F049FA034901F052FB08BD002008BD00BF00F07F4510B5182001F086FC0446052000F04AF858
:40018000206000236360A3602361E36000236361204610BD0000000038B501F077F920F0004001F093F804460D460BA3D3E9002301F040F950B12046294609A3D3E9002326
:4001C00001F056F928B94FF0FF3038BD4FF0FF3038BD012038BD00BF9A9999999999B93F9A9999999999B9BF38B505460C46FFF7D3FFB0F1FF3F08D02846214601F048F995
:400200004FF07C5101F04CFA38BD014838BD00BF000080BF08B5082001F034FC00224260026008BDFEE700BF08B5094B1B681844084A821A802A02DC054A106005E001F0BA
:40024000F5FB0C2303604FF0FF33184608BD00BF0C81FF1F0882FF1F80B5104F104E002415E031687368B568224604E051F8040B43F8040B0432AA42F8D1F168224602E03E
:4002800043F8044B04328A42FAD11036013F002FE7D101F0D1FBFFF7F1FEFEE701000000F41B000010B5134A134B1A6008331A6842F400721A6000231048114C114908E0F0
:4002C000032B02D854F8232000E0024641F8232001332F2BF4D90C4B1A780C4B1A70094A0B4B1A6000F018F900F0DAF90022094B1A6010BD0004FA050CED00E025020000F7
:40030000000000000080FF1FBC7600400481FF1F08ED00E00081FF1FFEE700BFF0B400231F4611E050F82760F2B226F0FF0608E001EB430511F813406D78A5550133013A81
:40034000D2B2002AF4D10137292FEBD9F0BC704770B41E4B1B78DBB21D4A1078C0B21D490C78E4B203F007061B4D2E701B0901352B7040F00303137044F003030B7040F22A
:400380000345164B1D803025D1331D704023144D2B7002352B7006352B7002352B700425104B1D70032520331D70202503331D70212508331D70012530331D700C701070F7
:4003C0004422A3F2E5231A7070BC7047CF010049F8460040F94600406E5800402C51004001590040005B004008B50A46002101F05AFB08BD08B501F04DFB08BDF8B50025B9
:40040000374B1D80502202331A70012202331A801823344A13700E2233490A8002310B7002310A80314A13702722314B1A80192402331C702F4830490422FFF7DBFF022238
:400440002E4B1A7008234FF040221370032102F5007211702A4A1178C9B22A4A1170A2F27F42138041F25122274B1A80274F4FF4F0760AE03B7803F0010343EA450505F0F6
:400480000305304600F0F8F8013C0CB1032DF1D114B90320FFF740FF1D4B4FF480721A8007221A7000221B490A704820023108701A700222033B1A7004220A331A7003F278
:4004C00097331A7842F01F021A70013B1A7842F001021A70013B1A7842F080021A70F8BD8040004086400040884000408E4000409040004000410040840A0048004300406F
:4005000008010049A14600402042004025420040044000400640004038B572B63C4B1A7842F004021A7000243A4D09E004EB44035B002B4418689988FFF756FF0134E4B2B4
:40054000072CF3D90024344D0AE004EB84035B002B44186859681A89FFF74CFF0134E4B2002CF2D04FF090402C49FFF7D7FE0A252B4B1D702B480421FFF736FF2A482B49A5
:400580000422FFF737FF2A482A490422FFF732FF29482A490422FFF72DFF294B1A7842F002021A7010331A7842F002021A70254C237843F040032370234B1A7842F01002D7
:4005C0001A70224822490822FFF714FF214822492A46FFF70FFF214821492A46FFF70AFF204B1A7842F008021A701F4D61232B70FFF704FF81232B7001221C4B1A70FFF74F
:40060000A7FE1B4821460E22FFF7F4FE38BD00BFE8460040901B0000C01B0000A8000048835800400076004008760040880A0048107600408C0A004818760040900A0048DE
:4006400003500140A0430040C243004002510040640A0048F05100406C0A004820510040780A0048224300400048004004000840B0430040000000000230800800F00580A0
:4006800000BF013800467FF4FCAF7047EFF3108072B6704780F31088704700BFAFF300800B4A7F2313708021517007E0DA0002F1804202F5F042013BDBB21370002BF5D17B
:4006C000DB0003F1804303F5F04300221A7070471081FF1F172815D831B102010A4BD15C41F02001D15405E00201074BD15C01F0DF01D1540001044BC25C42F00102C2540B
:4007000000207047012070471070004017280CD80001074BC218117941F004011171C25C42F00102C254002070470120704700BF1070004017280BD80001064BC25C02F09D
:40074000F10201F0070142EA4101C15400207047012070471070004041F6FF73994201D14FF4005141F6FF739A4201D14FF40052172808D8C00000F1804000F5EC40818013
:40078000C280002070470120704700BF172805D8034B03EB0010417200207047012070471070004010B417281AD8C40004F1804404F5EC44D201D2B201F07F0111432170B7
:4007C0009DF804201201D2B203F00F03134363709DF8083003F00F03A3700020E07000E001205DF8044B704710B5FFF74FFF0A4B5B78182B0BD9084A1478013B5370E300B2
:4008000003F1804303F5F0431B78137000E0FF24FFF740FF204610BD1081FF1F10F0800F0CD111F4704F0BD1C00000F1804000F5F04001808270C3700020704701207047AF
:400840000120704710F0800F08D1C00000F1804000F5F0408180C280002070470120704701BE704708B5034B1B7A03FB00F0FFF703FF08BD1881FF1F10B5022001214FF4EC
:40088000804241F6FF7300F017FA084C20700420012141F6FF72134600F02EFA6070044800F04CFA012000F04FFA10BDB481FF1FED09000070B52C4C2078FFF727FF60789E
:4008C000FFF724FF294B1B78FF2B03D1FFF78CFF264B1870254C2278104604210623FFF79DFF214D2E1DB6B2207845F6A0313246FFF7A8FF28782178FFF748FF6378FF2BCA
:4009000002D1FFF771FF6070184D6A78104604210723FFF783FF68783146154A92B2FFF791FF114C60786978FFF730FF20780121FFF7D0FE60780121FFF7CCFEFFF7A6FEBD
:400940000C4B1A7842F020021A70FFF7A3FE0A4B1A7842F001021A701A7842F002021A700222064B1A6070BDB481FF1F2881FF1FE081FF1F976400407464004080E200E0D7
:4009800008B5074B9B6823B9FFF776FF0122044B9A60FFF78FFF00F081F9024B1B7808BDB481FF1F63640040024B1A7842F004021A7070477464004004490B7803F0FF0251
:4009C0000BB90028F9D01046704700BF63640040C0F10100034B33F81000034B1B88C01A00B27047E081FF1FE881FF1F704700BF10B5022001214FF4804241F6FF7300F0DD
:400A000053FA084C20700420012141F6FF72134600F06AFA6070044800F084FA002000F087FA10BDC081FF1F650B000070B52C4C2078FFF76BFE6078FFF768FE294B1B7864
:400A4000FF2B03D1FFF7D0FE264B1870254C2278104604210623FFF7E1FE214D2E1DB6B2207845F6A2313246FFF7ECFE28782178FFF78CFE6378FF2B02D1FFF7B5FE60700E
:400A8000184D6A78104604210723FFF7C7FE68783146154A92B2FFF7D5FE114C60786978FFF774FE20780121FFF714FE60780121FFF710FEFFF7EAFD0C4B1A7842F0200274
:400AC0001A70FFF7E7FD0A4B1A7842F001021A701A7842F002021A700122064B1A6070BDC081FF1F2A81FF1FE481FF1F986500407B65004080E200E008B5074B9B6823B947
:400B0000FFF776FF0122044B9A60FFF78FFF00F0BDF9024B1B7808BDC081FF1F68640040024B1A7842F004021A7070477B65004004490B7803F0FF020BB90028F9D010465D
:400B4000704700BF68640040C0F10100034B33F81000034B1B88C01A00B27047E481FF1FF481FF1F704700BF08B50A280FD00C2802D0082806D102E04FF4805209E04FF4FA
:400B8000807206E00020FFF76BFE002201E04FF48062002309490B8042F2107101FB02F202F6C412064981FB0201D217C2EBE12204490A60044A138008BD00BFF281FF1F2F
:400BC000AD8BDB68EC81FF1FE881FF1F10B5FFF75DFD0446194B1A7842F001021A7010331A7842F001021A7003F5AA5308331A7842F003021A70182203331A70013B1A7875
:400C000042F040021A701A7802F0FC021A70CE22053B1A700222A3F597530C3B1A7003F5A85313331A7842F008021A700A20FFF719FE2046FFF72EFD10BD00BFAB43004070
:400C400010B504460A280DD00C2802D0082804D101E0C22207E0422205E00020FFF700FEC22200E08222034B1A702046FFF77CFF10BD00BF0259004008B5064B1A7842F032
:400C800006021A700C20FFF7DBFF0022024B1A8008BD00BF01590040F081FF1F08B5054B1B7823B9FFF7E8FF0122024B1A70FFF78DFF08BDCC81FF1FF0B583B084468E4675
:400CC00017461E460B4C03232370002500950195184661467246FFF765FD207839463246FFF73AFD20780221FFF724FD207803B0F0BD00BF2C81FF1F2DE9F04182B084466B
:400D00008E4690461F460C4C022525700026009601962846614672462B46FFF743FD207841463A46FFF718FD20782946FFF702FD207802B0BDE8F0812D81FF1F014B1B6828
:400D40005864704708ED00E04001C0B2014B1870704700BF01E400E008B50A280FD00C2802D0082806D102E04FF4805209E04FF4807206E00020FFF773FD002201E04FF4C7
:400D80008062002309490B8042F2107101FB02F202F6C412064981FB0201D217C2EBE12204490A60044A138008BD00BFF881FF1FAD8BDB68FC81FF1FF481FF1F10B5FFF760
:400DC00065FC0446194B1A7842F002021A7010331A7842F002021A7003F5AA5310331A7842F003021A70182203331A70013B1A7842F040021A701A7802F0FC021A70CE22B0
:400E0000053B1A700222A3F59753123B1A7003F5A85319331A7842F008021A700A20FFF721FD2046FFF736FC10BD00BFAB43004010B504460A280DD00C2802D0082804D125
:400E400001E0C22207E0422205E00020FFF708FDC22200E08222034B1A702046FFF77CFF10BD00BF0A59004008B5064B1A7842F006021A700C20FFF7DBFF0022024B1A80B3
:400E800008BD00BF09590040F681FF1F08B5054B1B7823B9FFF7E8FF0122024B1A70FFF78DFF08BDCD81FF1FF0B583B084468E4617461E460B4C01232370002500950195DC
:400EC000184661467246FFF76DFC207839463246FFF742FC20780221FFF72CFC207803B0F0BD00BF2E81FF1FF0B583B086460F4616461D460A4C002323700093019318466D
:400F000071463A46FFF74EFC207831462A46FFF723FC20780221FFF70DFC207803B0F0BD2F81FF1F014B1B681864704708ED00E04001C0B2014B1870704700BF00E400E08E
:400F4000024B1A7842F001021A707047004E0040024B1A7802F0FE021A707047004E0040084A0949137913F0FF0F02D05379DBB202E00B7803F00103012B01D00028F1D040
:400F800018467047D081FF1F014E00400E4B1B7803F00303012B03D80C4B188880B209E00A4A12780A49087842EA0020032B01D1084B1B78084B1B7913F0FF0F02D0002251
:400FC000054B5A7100B27047144E0040104E0040114E0040124E0040D081FF1F10B5084B1A7842F004021A70FFF7AAFF0020FFF7B7FFFFF7CBFF0446FFF7AAFF204610BDCC
:40100000014E004081F0004102E000BF83F0004330B54FEA41044FEA430594EA050F08BF90EA020F1FBF54EA000C55EA020C7FEA645C7FEA655C00F0E2804FEA5454D4EB96
:401040005555B8BF6D420CDD2C4480EA020281EA030382EA000083EA010180EA020281EA0303362D88BF30BD11F0004F4FEA01314FF4801C4CEA113102D0404261EB410123
:4010800013F0004F4FEA03334CEA133302D0524263EB430394EA050F00F0A780A4F10104D5F1200E0DDB02FA0EFC22FA05F2801841F1000103FA0EF2801843FA05F3594192
:4010C0000EE0A5F120050EF1200E012A03FA0EFC28BF4CF0020C43FA05F3C01851EBE37101F0004507D54FF0000EDCF1000C7EEB00006EEB0101B1F5801F1BD3B1F5001F26
:401100000CD349085FEA30004FEA3C0C04F101044FEA445212F5800F80F09A80BCF1004F08BF5FEA500C50F1000041EB045141EA050130BD5FEA4C0C404141EB010111F4FF
:40114000801FA4F10104E9D191F0000F04BF01460020B1FA81F308BF2033A3F10B03B3F120020CDA0C3208DD02F1140CC2F10C0201FA0CF021FA02F10CE002F11402D8BFB3
:40118000C2F1200C01FA02F120FA0CFCDCBF41EA0C019040E41AA2BF01EB0451294330BD6FEA04041F3C1CDA0C340EDC04F11404C4F1200220FA04F001FA02F340EA0300B9
:4011C00021FA04F345EA030130BDC4F10C04C4F1200220FA02F001FA04F340EA0300294630BD21FA04F0294630BD94F0000F83F4801306BF81F480110134013D4EE77FEAB6
:40120000645C18BF7FEA655C29D094EA050F08BF90EA020F05D054EA000C04BF1946104630BD91EA030F1EBF0021002030BD5FEA545C05D14000494128BF41F0004130BD15
:4012400014F580043CBF01F5801130BD01F0004545F0FE4141F470014FF0000030BD7FEA645C1ABF194610467FEA655C1CBF0B46024650EA013406BF52EA033591EA030F6C
:4012800041F4002130BD00BF90F0000F04BF0021704730B54FF4806404F132044FF000054FF0000150E700BF90F0000F04BF0021704730B54FF4806404F1320410F00045AB
:4012C00048BF40424FF000013EE700BF42004FEAE2014FEA31014FEA02701FBF12F07F4393F07F4F81F06051704792F0000F14BF93F07F4F704730B54FF4607401F0004563
:4013000021F0004120E700BF50EA010208BF704730B54FF000050AE050EA010208BF704730B511F0004502D5404261EB41014FF4806404F132045FEA915C3FF4DCAE4FF076
:4013400003025FEADC0C18BF03325FEADC0C18BF033202EBDC02C2F1200300FA03FC20FA02F001FA03FE40EA0E0021FA02F11444C1E600BF4FF0FF3C06E000BF4FF0010CDD
:4013800002E000BF4FF0010C4DF804CD4FEA410C7FEA6C5C4FEA430C18BF7FEA6C5C1BD001B050EA410C0CBF52EA430C91EA030F02BF90EA020F0020704710F1000F91EA2F
:4013C000030F58BF994208BF90422CBFD8176FEAE37040F0010070474FEA410C7FEA6C5C02D150EA013C07D14FEA430C7FEA6C5CD6D152EA033CD3D05DF8040B704700BFB1
:401400008446104662468C461946634600E000BF01B5FFF7B7FF002848BF10F1000F01BD4DF808EDFFF7F4FF0CBF012000205DF808FB00BF4DF808EDFFF7EAFF34BF012099
:4014400000205DF808FB00BF4DF808EDFFF7E0FF94BF012000205DF808FB00BF4DF808EDFFF7CEFF94BF012000205DF808FB00BF4DF808EDFFF7C4FF34BF012000205DF857
:4014800008FB00BF80F0004002E000BF81F0004142001FBF5FEA410392EA030F7FEA226C7FEA236C6AD04FEA1262D2EB1363C1BFD218414048404140B8BF5B42192B88BF90
:4014C000704710F0004F40F4000020F07F4018BF404211F0004F41F4000121F07F4118BF494292EA030F3FD0A2F1010241FA03FC10EB0C00C3F1200301FA03F100F0004364
:4015000002D5494260EB4000B0F5000F13D3B0F1807F06D340084FEA310102F10102FE2A51D2B1F1004F40EBC25008BF20F0010040EA03007047490040EB000010F4000F46
:40154000A2F10102EDD1B0FA80FCACF1080CB2EB0C0200FA0CF0AABF00EBC25052421843BCBFD0401843704792F0000F81F4000106BF80F400000132013BB5E74FEA4103E5
:401580007FEA226C18BF7FEA236C21D092EA030F04D092F0000F08BF0846704790EA010F1CBF0020704712F07F4F04D1400028BF40F00040704712F100723CBF00F5000021
:4015C000704700F0004343F0FE4040F4000070477FEA226216BF08467FEA23630146420206BF5FEA412390EA010F40F4800070474FF0000304E000BF10F0004348BF404203
:401600005FEA000C08BF704743F0964301464FF000001CE050EA010208BF70474FF000030AE000BF50EA010208BF704711F0004302D5404261EB41015FEA010C02BF8446DC
:401640000146002043F0B64308BFA3F18053A3F50003BCFA8CF2083AA3EBC25310DB01FA02FC634400FA02FCC2F12002BCF1004F20FA02F243EB020008BF20F001007047D4
:4016800002F1200201FA02FCC2F1200250EA4C0021FA02F243EB020008BF20EADC7070474FF0FF0C1CEAD0521EBF1CEAD15392EA0C0F93EA0C0F6FD01A4480EA010C4002B0
:4016C00018BF5FEA41211ED04FF0006343EA501043EA5111A0FB01310CF00040B1F5000F3EBF490041EAD3715B0040EA010062F17F02FD2A1DD8B3F1004F40EBC25008BFDC
:4017000020F00100704790F0000F0CF0004C08BF49024CEA502040EA51207F3AC2BFD2F1FF0340EAC250704740F400004FF00003013A5DDC12F1190FDCBF00F0004070472E
:40174000C2F10002410021FA02F1C2F1200200FA02FC5FEA310040F1000053EA4C0308BF20EADC70704792F0000F00F0004C02BF400010F4000F013AF9D040EA0C0093F0EF
:40178000000F01F0004C02BF490011F4000F013BF9D041EA0C018FE70CEAD15392EA0C0F18BF93EA0C0F0AD030F0004C18BF31F0004CD8D180EA010000F00040704790F0E7
:4017C000000F17BF90F0004F084691F0000F91F0004F14D092EA0C0F01D142020FD193EA0C0F03D14B0218BF084608D180EA010000F0004040F0FE4040F40000704740F03B
:40180000FE4040F4400070474FF0FF0C1CEAD0521EBF1CEAD15392EA0C0F93EA0C0F69D0A2EB030280EA010C49024FEA402037D04FF0805343EA111143EA10130CF000407D
:401840008B4238BF5B0042F17D024FF4000C8B4224BF5B1A40EA0C00B3EB510F24BFA3EB510340EA5C00B3EB910F24BFA3EB910340EA9C00B3EBD10F24BFA3EBD10340EAAE
:40188000DC001B0118BF5FEA1C1CE0D1FD2A3FF650AF8B4240EBC25008BF20F0010070470CF0004C4CEA50207F32C2BFD2F1FF0340EAC250704740F400004FF00003013AAA
:4018C00037E792F0000F00F0004C02BF400010F4000F013AF9D040EA0C0093F0000F01F0004C02BF490011F4000F013BF9D041EA0C0195E70CEAD15392EA0C0F08D142023B
:401900007FF47DAF93EA0C0F7FF470AF084676E793EA0C0F04D14B023FF44CAF08466EE730F0004C18BF31F0004CCAD130F000427FF45CAF31F000437FF43CAF5FE700BFB6
:401940004FF0FF3C06E000BF4FF0010C02E000BF4FF0010C4DF804CD4FEA40024FEA41037FEA226C18BF7FEA236C11D001B052EA530C18BF90EA010F58BFB2EB030088BFAF
:40198000C81738BF6FEAE17018BF40F0010070477FEA226C02D15FEA402C05D17FEA236CE4D15FEA412CE1D05DF8040B704700BF844608466146FFE70FB5FFF7C9FF002856
:4019C00048BF10F1000F0FBD4DF808EDFFF7F4FF0CBF012000205DF808FB00BF4DF808EDFFF7EAFF34BF012000205DF808FB00BF4DF808EDFFF7E0FF94BF012000205DF862
:401A000008FB00BF4DF808EDFFF7D2FF94BF012000205DF808FB00BF4DF808EDFFF7C8FF34BF012000205DF808FB00BF014B1868704700BF9081FF1F70B50E4B0E4D002488
:401A4000ED1AAD101E46AC4204D056F8242090470134F8E700F0BCF8084D094B0024ED1AAD101E46AC4204D056F8242090470134F8E770BDDC1B0000DC1B0000E41B00000D
:401A8000DC1B0000024B0146186800F015B800BF9081FF1F10B50023934203D0CC5CC4540133F9E710BD02440346934202D003F8011BFAE77047000070B5CD1C25F00305AF
:401AC00008350C2D38BF0C25002D06463FDB8D423DD3214B1C6818462146A1B10B685B1B0ED40B2B03D90B60CC18CD501FE08C4202D1626802601AE04B6863600C4616E002
:401B00000C464968E9E7154C23681BB9304600F027F820602946304600F022F8431C014615D0C41C24F0030484420AD1256004F10B00231D20F00700C31A0BD05A42E25095
:401B400070BD3046611A00F00BF80130EED10C233360002070BD00BFDC81FF1FD881FF1F38B5064C0023054608462360FEF75CFB431C02D1236803B12B6038BD0082FF1F49
:401B800000000000035B00402443004040000000105100401000305100404000C0510040100000000140001000140140000800400140000A004C0140000210500140100014
:401BC00000500140540A00481000000043000000F8B500BFF8BC08BC9E4670474D000000A5020000F8B500BFF8BC08BC9E46704729000000081C00000881FF1F90000000E5
:401C00007000000000000000000000000882FF1F7F8000000F0000000000E02EC05D00001800000000366E01FFFFFFFFFFFFFFFF000000000000000000000000000000009E
:401C400000000000000000000000000000000000CC1B000000000000000000000000000000000000000000000000000000000000000000000000000000000000000000007D
:401C8000000000000000000000000000000000003081FF1F000000000000000000000000000000000000000000000000000000000000000000000000000000000000000055
:401CC00000000000000000000000000000000000000000000000000000000000000000000000000000000000000000000000000000000000000000000000000000000000E4
:401D000000000000000000000000000000000000000000000000000000000000000000000000000000000000000000000000000000000000000000000000000000000000A3
:401D40000000000000000000000000000000000000000000000000000000000000000000000000000000000000000000000000000000000000000000000000000000000063
:401D80000000000000000000000000000000000000000000000000000000000000000000000000000000000000000000000000000000000000000000000000000000000023
:020000040003F7
:0200000480007A
:4000000006520040025B00400364004001650040330001402F010140490201403D0301404A0401404005014012060140400701402908014043090140110A0140370B014078
:40004000100C0140340D0140120E0140270F0140161401403515014026160140351701401218014046190140271A01403C1B01400E4001400B410140044201400643014077
:40008000044401400A4501400F4601400847014008480140064901400E4C0140094D0140055001400251014000010101100311027820791027842F84800F850D87018801AA
:4000C00006020A0112041B012A012B01320433013402360139203F144030410445D246544701481F49FF4AFF4BFF4DA04F04501852805407580459045A045B045C215D11BB
:400100005F016040624063A864406540664067A868406A406BA86C406D206E406FA8D804D904DC22DF01001003200A400FA610081502160A181019101A021B0420082204BF
:400140002A082B452C802E0A30A0370239123B043D103FA6405048204901504C5320584059115A0872408080870188048F10C006C2F8C4D2CACFCC8CCEF7D003D60FE204B0
:40018000E401E608404149FF4AFF4BFF4F0150185280580459045A045B045C225D445F016040624064406540668068806A806C806E8080018403871488028A018B028C01A2
:4001C0008D038E029104950898049B01A404AD08B004B110B304B403B503B708B802B980BE01BF40C041C9FFCAFFCBFFCD83CE03CF01D018D401D80CD904DA04DB0CDC128F
:40020000DD24DF01E040E240E440E540E680E880EA80EC80EE80000A01200302040409200C900FA41020150216081702184019201A042130228528022C802E082F203028B8
:40024000320134043702388839203C043FA04282468258807680794084018B2090889440950297049C409E089F02A0A0A310A740AB02AE08B201B304C02FC2F2C454CAC82A
:40028000CCC7CE7ED099D608DE08E608EA20EC03020103020C031001160C170118021A011C042602280329013003330334043608404149FF4AFF4BFF4D834E034F01501803
:4002C00052075306580C59045A045B045C925D245F016040624064406540668068806A806C806E8083018F01B101BF01C041C5ECC720C823C9FFCAFFCBFFCD83CE03CF018C
:40030000D018D401D804D904DA04DB04DC22DD44DF01E040E240E440E540E680E880EA80EC80EE8000020302040409080A460C800FA01028147015021608180819101A02ED
:400340001B022108278029102C802E202F203108344438013C043E823F20428246824F0556025F85682C69406A107940800187028E208F409204940495429A889C969E02B9
:40038000A081A280A310A40CA762AC40AE04C029C2BFC476CAE4CC52CEF1D099D6D0DE08E008E201580459045C225F0187019E02A601B101B402B601D602D731D804D904E3
:4003C000DB0CDC22DD20DF0101200322040405100A080B410FA010041104120114061502171018041A081B40210123C0280229202A012B402F203044311034223790390234
:400400003A083C043FA05A106280680269146B40704072487301794088408A04914092109404950296409C24A280A310A760A884B402C067C23BC4D7CA4DCCBECE73D6041F
:40044000D808DE08E240EC40020203040402050809100B200D021004130815011A081B021C011F012104220425402601278029202A102B102C082D802F4033FF361F38806B
:400480003E403F045401580459045B0C5C035D305F01D804D904DC33DF010020028003010540068807200BA00C400D030F24110213201402150117181D401E011F40271085
:4004C00028402B102C882D012E682F1030103301345235023680372939023BA03CA03D2A3E803F245DC07D808A028D40928093209402960197809B019C429E229F20A010BC
:40050000A507A681A740B580C0FBC2FCC4FACAF3CCF5CEFDD610DE10E080E240EA10EC40580459045C335F0182028701A601B201B402B701D608D804D904DB04DC33DD9062
:40054000DF01002002800301040207200A400BA00D0A0E0911021320144216201C201D081E081F10270128402C402E402F10311833013510372139013BA03C203D0B5D80C4
:40058000670183018F10928097A09C409E029F31A410A509A601A740B202B608C03BC2FCC4BACAD1CCA7CEEDD610D810E008E440010105010D011301170119011D01310133
:4005C000580459045C235F01D804D904DC33DF010020064008400A400BA00C400D080E401001110312401320161017212602284030013118330135083601375039013A10A4
:400600003BA03E063F808908928497A099109B409C409E029F31A208A509A601A740AB40AD04B101B204C012C2BDC47BCA01CCF7CEDDE080E608EC20010309010B020F03F4
:40064000110315031903210331013302580459045C335F01D804D904DC32DF010304074008400A400BA00E060F801001110313201504160217102101220828402C402E40EC
:400680002F103001311833053510372539013BA03D028240834086028E01C012C2DDC4EBCAD1CCE7CE8DE020E210000406040C04140418041C041F0124042A012E023001B7
:4006C000320434023501580459045C225F01D804D904DC22DF0101010322051008480A080E400F20100211101220144015201602170419201A401B1A2110223028482920EA
:400700002D212E022F6231103204334634403620370439203B808F08911192089620984099109B409D20A002A320A702B101B722C04DC237C4F7CAF5CC7FCE0CEC20EE02C5
:40074000580459045C225F0180018301850889208A108B108D029180920493409404970298029B049C089D04A308A501A608A940AA01AB80AD10AE02AF20B3FFB41FB82063
:40078000BE10BF04D804D904DC02DF01002001010322051008400AA80B040F8411461204140215021610171019101B202020284229202A1C2B422D212F203002325433546C
:4007C00034023714388039573F808D218E108F409080911692089A089B409C029D309F10A002A340A722C04FC25FC4FFCAEFCCEFCE1FE080E80203020F01170431023301EB
:4008000037045602573A580459045B0C5C325D305F01D804D904DC33DF01001002800301060208080BA00D040E0A0F801004112214201710241025032680272028082902FA
:400840002C062D012F50300631023280350236803728381039013C803E015D0865046C896D086E417440764077087D808B088E058F10928093A09402964099029A029B019F
:400880009D809F28A110A4C8A547A681A740C08BC2FCC46ACAF5CCFBCE95D640D840DE10E0D0E440E8025608580459045B045C335D905F018230830290049201940A95045C
:4008C000960598209C079E089F01A001A40FA904AA02AD01B020B103B20CB304B410B603B908BF04D207D306D80CD904DB04DC93DD30DF01001002800740082509100BA0EF
:400900000E160F4011021201164017141E5725082740282529022A012D802E402F08310E32803508374438103F025A8063026D806F147D808A019010928093E099029A409C
:400940009D8CA113A280A308A540AF40B104B420B740C01AC2FEC479CA3FCC59CE84D608D808DE10E010E840ECE0EE021102120116883210362039043E8840088101C4F0C5
:40098000CC30CEE0D010E4805D2084089504962099209A019C08A620B120D620E610950496209A01A6208E1095049620AA20B601EE807F108B10DE01E004210157085D809F
:4009C0008508A308B308C802D402D604E8041908241046105408870291029D08A008B008B580C608C801D001D402EC064302440191029E10A302B410D006EA0825022701C6
:400A00008B2095049F01AF01C8A0E8401B20A720AD04B102C640EE401F1035083A407A01890991029C01AE10C601CC01CE08DC01E001E2048A408E019E40A601AF10B001BB
:400A4000E008E401EC04100C11011A041C0C1D01000F10AA1E010000000000001600140108010C00000101000100000030000030000000303000000007000007000000032B
:400A8000070000000A001801000100000002000000030000000000000000000000000000000000000000000000000000000000000000000000000000000000000000000006
:400AC00000000000000000000000000000000000000000000000000000000000000000000000000000000000000000000000000000000000000000000000000000000000F6
:400B000000000000000000000000000000000000000000000000000000000000000000000000000000000000000000000000000000000000000000000000000000000000B5
:400B40000000000000000000000000000000000000000000000000000000000000000000000000000000000000000000000000000000000000000000000000000000000075
:400B80000000000000000000000000000000000000000000000000000000000000000000000000000000000000000000000000000000000000000000000000000000000035
:0200000490006A
:0400000000004005B7
:0200000490105A
:04000000BC90ACAF55
:0200000490303A
:020000000C1AD8
:0200000490402A
:4000000000000000000000000000000000000000000000000000000000000000000000000000000000000000000000000000000000000000000000000000000000000000C0
:400040000000000000000000000000000000000000000000000000000000000000000000000000000000000000000000000000000000000000000000000000000000000080
:400080000000000000000000000000000000000000000000000000000000000000000000000000000000000000000000000000000000000000000000000000000000000040
:4000C0000000000000000000000000000000000000000000000000000000000000000000000000000000000000000000000000000000000000000000000000000000000000
:0200000490501A
:0C00000000012E16106900012E241C8344
:00000001FF