:400000000080002011000000FD000000FD00000008B5044B1A6803F53F5302331A6000F06FF800BFFA46004010B5054C237833B9044B13B10448AFF300800123237010BD16
:400040002081FF1F0000000040060000084B10B51BB108480849AFF300800848036803B910BD074B002BFBD0BDE81040184700BF00000000400600002481FF1F0881FF1F85
:400080000000000038B562B600F078FA00F0CCF900F0DCF900F00EFA00F0DEF904464FF47A7000F025FA00F0D7F9054600F01CF8601B00D51F30401100F004F800F0A0F9A6
:4000C000E4E700BF10B50446C0B200F065FAC4F3072000F061FAC4F3074000F05DFA200E00F05AFA10BD00BF10B5002403E0FF2000F052FA0134032CF9DD10BDFEE700BF68
:4001000008B5104E104D16E029686B68AC68002204E051F8040B43F8040B0432A242F8D1E868002203E0002143F8041B04328242F9D11035013E002EE6D100F047FAFFF72A
:40014000A1FFFEE701000000AC06000008B5124A124B1A60124A136843F40073136000230AE0032B03D80F4A52F8231000E00E490E4A42F8231001332F2BF2D90C4B1A7839
:400180000C4B1A70094A0C4B1A6000F0B7F800220A4B1A6008BD00BF0004FA050CED00E014ED00E000000000FD0000000080FF1FBC7600400481FF1F08ED00E00081FF1F45
:4001C000FEE700BFF0B40022174611E050F82760F3B226F0FF0608E001EB420511F812406D78A5550132013BDBB2002BF4D101370A2FEBD9F0BC7047064B1B78DBB203F07B
:400200000701054A11701B09013213704422034B1A707047CF0100496E5800407658004008B50A46002100F002FA08BD38B51925264B1D801823264A137040F2ED21023230
:400240001180023213700222224B1A7008224FF040231A70032103F5007319701E4B1B78DBB21E490B701E4B1A8041F25122023B1A8000240CE01B4B1B7803F0010343EA95
:40028000440404F003044FF4F07000F021F9013D0DB1032CEFD115B90320FFF791FF124B4FF480721A8007221A7000220F490A704820023108701A700222033B1A700C4A3A
:4002C000137843F00303137038BD00BF80400040824000400043004008010049A146004022420040254200400440004006400040A243004008B500F08FF908BD38B572B67C
:40030000304A137843F00403137000240CE02E4963001A1952000A4423445B00C8589188FFF77EFF0134E4B2072CF0D900240FE02549A3001A1952000A4452F8300F234422
:400340005B000B4451681A8FFFF7D4FF0134E4B2012CEDD94FF090401C49FFF733FF1C4A137843F0020313701032137843F002031370184C237843F040032370A2F58632C3
:40038000513A137843F010031370134813490A22FFF7B0FF124A137843F008031370114D61232B70FFF742FF81232B7001220E4B1A70FFF721FF0D4821460E22FFF79AFFA4
:4003C00038BD00BFE8460040440600002C00004803500140A0430040C0510040AC030048224300400048004004000840B0430040024A137843F08003137070477B6400408C
:40040000024A137803F07F03137070477B640040014B1870704700BF8B640040014B1878704700BF6B640040014B188880B2704754680040014B1880704700BF5468004016
:40044000014B188880B2704794680040014B1880704700BF14680040024B1B78024B188880B270470A6400409468004008B501E0FFF7E6FFFFF7D2FF10F0080FF8D108BDD0
:4004800008B54FF6FF70FFF7D5FF4FF6FF70FFF7DDFF00F025F8064A137843F01003137000F022F8FFF7E2FF0020FFF7B1FF08BD9B64004008B5054B1B7823B9FFF7E0FFCE
:4004C0000122024B1A70FFF793FF08BD3C81FF1F0230800803D000BF01380046FCD17047EFF3108072B6704780F31088704700BF10B5044605E0084B1868FFF7E9FFA4F57B
:400500000044B4F5004FF6D8034B586800FB04F0FFF7DEFF10BD00BF0C81FF1F7222084B1A702022A3F580731A700622A1331A70472210331A7000224D331A70704700BF84
:400540008A65004010B5FFF7CBFF04460A4A137843F020031370A2F58072137843F010031370FE32137843F01003137000F020F82046FFF7B9FF10BD9A65004008B5054B2F
:400580001B7823B9FFF7CAFF0122024B1A70FFF7D9FF08BD3D81FF1F034B1B7813F0040FFAD1024B187070476865004048650040054A137843F0010313701032137843F0C8
:4005C00001031370704700BFA24300400E4B70B51E460E4C0025E41AA410A54204D056F8253098470135F8E700F04EF8084B094C1E46E41AA4100025A54204D056F82530FD
:4006000098470135F8E770BD9406000094060000940600009C06000010B5431E0A44914204D011F8014B03F8014FF8E710BD03460244934202D003F8011BFAE770470000DD
:4006400000000000005100407000F05100401000000001400010001401400006801A0140800100400140000A004C0140000200500140200060520040240300480600001A94
:4006800001402C0300488000F8B500BFF8BC08BC9E4670474D0000004D010000F8B500BFF8BC08BC9E46704729000000C00600000881FF1F1800000020000000000000009B
:4006C000000000000000E02EC05D00001800000000366E01000000000000000000000000000000000000000000000000000000000000000000000000000000000000000012
:4007000000000000000000000000000000000000000000000000000000000000000000000000000000000000000000000000000000000000000000000000000000000000B9
:400740000000000000000000000000000000000000000000000000000000000000000000000000000000000000000000000000000000000000000000000000000000000079
:400780000000000000000000000000000000000000000000000000000000000000000000000000000000000000000000000000000000000000000000000000000000000039
:4007C00000000000000000000000000000000000000000000000000000000000000000000000000000000000000000000000000000000000000000000000000000000000F9
:020000040003F7
:0200000480007A
:40000000026400400265004008090140490A01402A0B01405D1801403E190140101A0140411B01400C4D0140045001408A388B0D880F8A7292089A089D219E119F02A508AE
:40004000A620B64806020A020E041001150116011C011D012101260429012A01320133013402360438083A023E503F04405149FF4AFF4BFF4F0150185418580459045A04B1
:400080005B045D015F016040624064406540668068806A806C806E809201AE01B001BE01C015C5ECC602C807C9FFCAFFCBFFCD83CE03CF01D018D280D401D804DA04DB0443
:4000C000DD11DF01E040E240E440E540E680E880EA80EC80EE8002110308084009080A800F80100412201740180419401A801B081E802204284429213108324043804740C7
:4001000048014D044F8157C05B025D045E805F016004614074017740C007C21DC486CA05CC0AD018D218D6D1D80C001002AC040906D008DC0A220D030F44120317081814AB
:40014000192A1B441D731F0C2010224026202755280C29732A712B042D80301F314032E033803530370F39203A083B803F1540534102450B460C47E0482549FF4AFF4BFFC6
:400180004EF04F44500C5401580459045A045B045F0166C06A406B028108860C88C08D108E08908091029240930194C0981199179A0E9C0C9D019E139F06A011A206A420FD
:4001C000A603A917AC40AD04AE80AF01B0C0B230B310B40FB508B707B808BA20BF10D804D904DF0100200108030B040205140AA00B0A0E400F081012128014141701191C23
:400200001A801B011E401F04200421842462268027042B092C142E402F243002318032103514368039413A023F8044144C014F085480560257405C445D015F108D108F0140
:4002400092089A089D219E119F02A508A620C077C25FC47DCA7CCC7DCE19D060D210D6F0C003C740C9FFCA07CBFFCC40CD20CEF0CF05D008DA04DF01E040E1A8E240E320BE
:4002800000440308081009880A840B40108213241845192520082108222023022965301031883201382A3B4040414104420C430847044804521157225A08681069406A20DB
:4002C0007094714073248601870888028C0191089288954096209A089B049D219E119F02A180A412A508A620A722AC80AF10B410C007C20FC40FCA0FCC0FCE0FD04FD20445
:40030000D60210801280750188808E809901B501C408DE04E202E601EC0200030C0310011C0100008080000040000000004400000F1840000008430043800C00020020E336
:400340000C3C43C24FFF000003C0100008E70018040000040C1C00E10110A0000F00801F4C3830C00000220800004000430206000100E0C028FFFFFF62A0F0410C0000006A
:400380000000021204040404000000010000000000004002001030100010101200000000000000000000000000000000800040808000800000000000000000000000000014
:4003C00000000000000000000000000000000000000000000000000000000000000000000000000000000000000000000000000000000000000000000000000000000000FD
:4004000000000000000000000000000000000000000000000000000000000000000000000000000000000000000000000000000000000000000000000000000000000000BC
:40044000000000000000000000000000000000000000000000000000000000000000000000000000000000000000000000000000000000000000000000000000000000007C
:40048000000000000000000000000000000000000000000000000000000000000000000000000000000000000000000000000000000000000000000000000000000000003C
:0200000490006A
:0400000000004005B7
:0200000490105A
:04000000BC90ACAF55
:0200000490303A
:02000000682A6C
:0200000490402A
:4000000000000000000000000000000000000000000000000000000000000000000000000000000000000000000000000000000000000000000000000000000000000000C0
:400040000000000000000000000000000000000000000000000000000000000000000000000000000000000000000000000000000000000000000000000000000000000080
:400080000000000000000000000000000000000000000000000000000000000000000000000000000000000000000000000000000000000000000000000000000000000040
:4000C0000000000000000000000000000000000000000000000000000000000000000000000000000000000000000000000000000000000000000000000000000000000000
:0200000490501A
:0C00000000012E16106900012E197893E3
:00000001FF