:4000000000800020110000003D0200003D02000008B5044B1A6803F53F5302331A6000F00FF900BFFA46004010B5054C237833B9044B13B10448AFF300800123237010BDF1
:400040003081FF1F000000003C11000008B5064B1BB106480649AFF300800648036813B1054B03B1984708BD000000003C1100003481FF1F0881FF1F0000000010B562B602
:4000800000F034FB00F0E8FD00F044FB00F0F8FD002000F043FB002000F0F6FD002400F095F800F0AFF8204600F038FB204600F0EBFDF4E708B5034BA3FB0020400900F00B
:4000C000B1FF08BDD34D621008B5034BA3FB0020400900F0A7FF08BDD34D621008B511B9FFF7E8FF08BDFFF7EFFF08BD02884388934200D8134682889A4200D81A46034B61
:40010000A3FB0210C0F3CF00704700BFCDCCCCCC38B50446FFF7EAFF218862888D1A002DB8BF6D42ADB2A388C91A0029B8BF494289B2D31A002BB8BF5B429BB2854203D25B
:40014000814201D2834207D3834207D3814207D3854207D2032038BD002038BD012038BD022038BD042038BD08B5032928D8DFE801F0020F171F0188438819448388C81877
:40018000104B83FB001080B21146FFF7A7FF08BD41888388C81840081146FFF79FFF08BD01888388C81840081146FFF797FF08BD01884388C81840081146FFF78FFF08BD40
:4001C000014808BD56555555000080BF00B583B0002000F0AFFAADF80000012000F0AAFAADF80200022000F0A5FAADF804006846FFF78EFF014668460022FFF7B5FF03B0BC
:400200005DF804FB00B583B0002000F049FDADF80000012000F044FDADF80200022000F03FFDADF804006846FFF772FF014668460122FFF799FF03B05DF804FBFEE700BF31
:4002400080B5104F104E002415E031687368B568224604E051F8040B43F8040B0432AA42F8D1F168224602E043F8044B04328A42FAD11036013F002FE7D100F027FFFFF796
:40028000FDFEFEE7010000009411000010B5134A134B1A6008331A6842F400721A6000231048114C114908E0032B02D854F8232000E0024641F8232001332F2BF4D90C4BD8
:4002C0001A780C4B1A70094A0B4B1A6000F0ECF800F052FB0022094B1A6010BD0004FA050CED00E03D020000000000000080FF1FBC7600400481FF1F08ED00E00081FF1F58
:40030000FEE700BFF0B400231F4611E050F82760F2B226F0FF0608E001EB430511F813406D78A5550133013AD2B2002AF4D10137262FEBD9F0BC704770B41D4B1978C9B2E9
:400340001C4B1878C0B21C4A1478E4B201F007061A4D2E7009090135297040F00301197044F0030111701021A5F262752970222630352E70112610352E700226B0352E70EA
:4003800080250F4E3570083635700E4D2970202103352970053529700335297014701870442203F58B531E331A7070BC704700BFCF010049F8460040F94600406E58004028
:4003C00001590040205B004008B50A46002100F0ACFE08BDF8B50E22274B1A80182327490B7002310A80264A13700222254B1A7008234FF040221370032102F500721170E1
:40040000214A1178C9B2214A1170A2F27F42138041F251221E4B1A80002519241D4F4FF4F0760AE03B7803F0010343EA450505F00305304600F08CFA013C0CB1032DF1D179
:4004400014B90320FFF75CFF134B4FF480721A8007221A70002211490A704820023108701A700222033B1A7003F2A1331A7842F003021A70F8BD00BF80400040824000404A
:40048000864000400043004008010049A14600402042004025420040044000400640004008B500F039FE08BD70B572B6344B1A7842F004021A700024324D09E004EB44035C
:4004C0005B002B4418689988FFF77EFF0134E4B2072CF3D94FF090402B49FFF713FF2B480421FFF771FF2A482A490422FFF7D8FF29482A490422FFF7D3FF29482949042218
:40050000FFF7CEFF284B1A7842F002021A7010331A7842F002021A70244C237843F040032370234B1A7842F010021A70214822490822FFF7B5FF214821490822FFF7B0FF72
:40054000204821490822FFF7ABFF204820490822FFF7A6FF1F4B1A7842F008021A701E4E01253570FFF736FF812333701B4B1D70FFF7E2FE1A4821460E22FFF791FF70BD69
:40058000E8460040401100009C00004800760040087600406C0800481076004070080048187600407408004803500140A0430040C2430040025100404C080048F2510040A2
:4005C00054080048325100405C0800484251004064080048224300400048004004000840B043004010B5022001214FF4804241F6FF7300F05BF9084C20700620012141F657
:40060000FF72134600F072F96070044800F090F9012000F093F910BD4C81FF1F5107000070B52C4C207800F0DDF9607800F0DAF9294B1B78FF2B03D100F042FA264B187093
:40064000254C2278104606210B4600F053FA214D2E1DB6B2207845F6A031324600F05EFA2878217800F0FEF96378FF2B02D100F027FA6070184D6A7810460621072300F028
:4006800039FA68783146154A92B200F047FA114C6078697800F0E6F92078012100F086F96078012100F082F900F05CF90C4B1A7842F020021A7000F059F90A4B1A7842F002
:4006C00001021A701A7842F002021A700222064B1A6070BD4C81FF1F0C81FF1F7481FF1F976500407965004080E200E008B5074BDB6823B9FFF776FF0122044BDA60FFF77F
:400700008FFF00F0BDF8024B1B7808BD4C81FF1F6964004008B500F0C1F808BD04490B7803F0FF020BB90028F9D01046704700BF69640040C0F10200034B33F81000034BE2
:400740001B88C01A00B270477481FF1F7C81FF1F704700BF08B50A280FD00C2802D0082806D102E04FF4805309E04FF4807306E0002000F0E1F9002301E04FF480630021E2
:40078000084A118042F2107202FB03F313F5806301D503F2FF73DB12034A13600022034B1A8008BD8681FF1F8081FF1F7C81FF1F10B500F0D7F80446194B1A7842F00102B1
:4007C0001A7010331A7842F001021A7003F5AA5308331A7842F003021A70182203331A70013B1A7842F040021A701A7802F0FC021A70C822053B1A700222A3F597530C3BE5
:400800001A7003F5A85313331A7842F008021A700A2000F093F9204600F0A8F810BD00BFAB43004010B504460A280DD00C2802D0082804D101E0C22207E0422205E0002009
:4008400000F07AF9C22200E08222034B1A702046FFF780FF10BD00BF0259004008B5064B1A7842F006021A700C20FFF7DBFF0022024B1A8008BD00BF015900408481FF1F29
:4008800008B5054B1B7823B9FFF7E8FF0122024B1A70FFF78DFF08BD5C81FF1F024B1A7842F001021A70704700590040F0B583B084468E4617461E460B4C03232370002549
:4008C0000095019518466146724600F0D7F820783946324600F0ACF82078022100F096F8207803B0F0BD00BF0E81FF1F2DE9F04182B084468E4690461F460C4C022525702B
:400900000026009601962846614672462B4600F0B5F8207841463A4600F08AF82078294600F074F8207802B0BDE8F0810F81FF1F014B1B685864704708ED00E04001C0B23D
:40094000014B1870704700BF01E400E0000000000230800800F0058000BF013800467FF4FCAF7047EFF3108072B6704780F31088704700BFAFF300800B4A7F231370802117
:40098000517007E0DA0002F1804202F5F042013BDBB21370002BF5D1DB0003F1804303F5F04300221A7070471081FF1F172815D831B102010A4BD15C41F02001D15405E0DC
:4009C0000201074BD15C01F0DF01D1540001044BC25C42F00102C25400207047012070471070004017280CD80001074BC218117941F004011171C25C42F00102C25400203C
:400A000070470120704700BF1070004017280BD80001064BC25C02F0F10201F0070142EA4101C15400207047012070471070004041F6FF73994201D14FF4005141F6FF73B3
:400A40009A4201D14FF40052172808D8C00000F1804000F5EC408180C280002070470120704700BF172805D8034B03EB0010417200207047012070471070004010B4172844
:400A80001AD8C40004F1804404F5EC44D201D2B201F07F01114321709DF804201201D2B203F00F03134363709DF8083003F00F03A3700020E07000E001205DF8044B7047C2
:400AC00010B5FFF74FFF0A4B5B78182B0BD9084A1478013B5370E30003F1804303F5F0431B78137000E0FF24FFF740FF204610BD1081FF1F10F0800F0CD111F4704F0BD1C0
:400B0000C00000F1804000F5F04001808270C37000207047012070470120704710F0800F08D1C00000F1804000F5F0408180C280002070470120704701BE704708B5034B81
:400B40001B7A03FB00F0FFF703FF08BD1881FF1F10B5022001214FF4804241F6FF7300F05BF9084C20700620012141F6FF72134600F072F96070044800F08CF9002000F05A
:400B80008FF910BD6081FF1FBD0C000070B52C4C2078FFF727FF6078FFF724FF294B1B78FF2B03D1FFF78CFF264B1870254C2278104606210B46FFF79DFF214D2E1DB6B2CB
:400BC000207845F6A2313246FFF7A8FF28782178FFF748FF6378FF2B02D1FFF771FF6070184D6A78104606210723FFF783FF68783146154A92B2FFF791FF114C60786978BA
:400C0000FFF730FF20780121FFF7D0FE60780121FFF7CCFEFFF7A6FE0C4B1A7842F020021A70FFF7A3FE0A4B1A7842F001021A701A7842F002021A700122064B1A6070BD4C
:400C40006081FF1F2881FF1F8881FF1F936400407464004080E200E008B5074BDB6823B9FFF776FF0122044BDA60FFF78FFF00F0BDF8024B1B7808BD6081FF1F6B650040D4
:400C800008B500F0C1F808BD04490B7803F0FF020BB90028F9D01046704700BF6B650040C0F10200034B33F81000034B1B88C01A00B270478881FF1F9081FF1F704700BF78
:400CC00008B50A280FD00C2802D0082806D102E04FF4805309E04FF4807306E00020FFF72BFF002301E04FF480630021084A118042F2107202FB03F313F5806301D503F24F
:400D0000FF73DB12034A13600022034B1A8008BD9481FF1F9881FF1F9081FF1F10B5FFF721FE0446194B1A7842F002021A7010331A7842F002021A7003F5AA5310331A78F3
:400D400042F003021A70182203331A70013B1A7842F040021A701A7802F0FC021A70C822053B1A700222A3F59753123B1A7003F5A85319331A7842F008021A700A20FFF7F8
:400D8000DDFE2046FFF7F2FD10BD00BFAB43004010B504460A280DD00C2802D0082804D101E0C22207E0422205E00020FFF7C4FEC22200E08222034B1A702046FFF780FF42
:400DC00010BD00BF0A59004008B5064B1A7842F006021A700C20FFF7DBFF0022024B1A8008BD00BF095900409281FF1F08B5054B1B7823B9FFF7E8FF0122024B1A70FFF7BB
:400E00008DFF08BD7081FF1F024B1A7842F001021A70704708590040F0B583B084468E4617461E460B4C01232370002500950195184661467246FFF721FE20783946324666
:400E4000FFF7F6FD20780221FFF7E0FD207803B0F0BD00BF2A81FF1FF0B583B086460F4616461D460A4C0023237000930193184671463A46FFF702FE207831462A46FFF790
:400E8000D7FD20780221FFF7C1FD207803B0F0BD2B81FF1F014B1B681864704708ED00E04001C0B2014B1870704700BF00E400E080F0004002E000BF81F0004142001FBF72
:400EC0005FEA410392EA030F7FEA226C7FEA236C6AD04FEA1262D2EB1363C1BFD218414048404140B8BF5B42192B88BF704710F0004F40F4000020F07F4018BF404211F0D8
:400F0000004F41F4000121F07F4118BF494292EA030F3FD0A2F1010241FA03FC10EB0C00C3F1200301FA03F100F0004302D5494260EB4000B0F5000F13D3B0F1807F06D38C
:400F400040084FEA310102F10102FE2A51D2B1F1004F40EBC25008BF20F0010040EA03007047490040EB000010F4000FA2F10102EDD1B0FA80FCACF1080CB2EB0C0200FA3C
:400F80000CF0AABF00EBC25052421843BCBFD0401843704792F0000F81F4000106BF80F400000132013BB5E74FEA41037FEA226C18BF7FEA236C21D092EA030F04D092F0E0
:400FC000000F08BF0846704790EA010F1CBF0020704712F07F4F04D1400028BF40F00040704712F100723CBF00F50000704700F0004343F0FE4040F4000070477FEA22624F
:4010000016BF08467FEA23630146420206BF5FEA412390EA010F40F4800070474FF0000304E000BF10F0004348BF40425FEA000C08BF704743F0964301464FF000001CE09A
:4010400050EA010208BF70474FF000030AE000BF50EA010208BF704711F0004302D5404261EB41015FEA010C02BF84460146002043F0B64308BFA3F18053A3F50003BCFAF1
:401080008CF2083AA3EBC25310DB01FA02FC634400FA02FCC2F12002BCF1004F20FA02F243EB020008BF20F00100704702F1200201FA02FCC2F1200250EA4C0021FA02F234
:4010C00043EB020008BF20EADC70704770B50E4B0E4D0024ED1AAD101E46AC4204D056F8242090470134F8E700F042F8084D094B0024ED1AAD101E46AC4204D056F8242015
:4011000090470134F8E770BD7C1100007C110000841100007C11000010B50023934203D0CC5CC4540133F9E710BD02440346934202D003F8011BFAE77047000000000000C5
:40114000105100402000505100402000C0510040100000000140001000140140000800400140000A004C01400002005001402000F8B500BFF8BC08BC9E4670474D00000007
:401180008D020000F8B500BFF8BC08BC9E46704729000000A81100000881FF1F28000000700000000000000000000000FFFFFFFF7F8000000F0000000000E02EC05D0000CB
:4011C0001800000000366E01FFFFFFFF0000000000000000000000000000000000000000000000000000000000000000000000000000000000000000000000000000000036
:4012000000000000000000000000000000000000000000000000000000000000000000000000000000000000000000000000000000000000000000000000000000000000AE
:40124000000000000000000000000000000000000000000000000000000000000000000000000000000000000000000000000000000000000000000000000000000000006E
:40128000000000000000000000000000000000000000000000000000000000000000000000000000000000000000000000000000000000000000000000000000000000002E
:4012C00000000000000000000000000000000000000000000000000000000000000000000000000000000000000000000000000000000000000000000000000000000000EE
:020000040003F7
:0200000480007A
:4000000004520040025B0040016400400165004018000140270101401F02014046030140140401403705014025060140380701400B08014031090140170A0140310B014024
:40004000160C0140290D01400C14014035150140121601403E17014024180140441901401A1A0140381B0140104001400A4101400D4201400D430140024501400646014044
:4000800006470140104801400B490140084C0140044D01400A50014002510140001019202010790227842F848302870202040A080B040C01100414081A011B011E101F02E4
:4000C000220228023101321F3302350438083E04580459045F01D804D904DF010060011103200510080209220A220B800D020F181091120814011502170818101B04204410
:40010000210D22182318281229112F6030843120340535013708384039183C403F18C04FC27FC4BFCACFCCCECE7E580459045F018301870889208B108D808F4093049702FC
:4001400099089D02A140A201A380A501A910AA02AB20AD04B001B1FFB402BF01D602D731D804D904DB0CDF0100400320040405110A680C100D0A0F0810111110130215022F
:4001800019111A401B202201280229112A082C012F243081310A3204331035013608380439523B083C403F085A105C025D016302681069516B1270807120720879808501ED
:4001C0008D19904491029220950196029C109D11A108A208A304A490A522A720B410C075C27EC41FCA7FCCCFCE5FD604D808DE08E402E8080E0128022C022F01300231015E
:40020000320138023E0152035302580459045B045C015F01D804D904DC11DF01001001480410050808800A400B100E400F101008134A1481170818101B092102280229014D
:400240002B042F48311A34803508370238443E403F10680869806A1081408740904491029580961098029911A108A304A502A701A804B102C067C23DC4BFCAADCCD7CE3A90
:40028000E001E218E602E804EE01580459045F018101820284208610871088408A808C808E409102920494109508962098019B089D049E01A002A304A408AA08AB01AC0465
:4002C000AF02B31FB4FFB908BE10BF04D804D904DC10DF010018016204040511062008800AD60B020D0A0E800F2810901104124913901503180820202204280829082A41C4
:400300002D012E20301132483511364038183B823F2840084204580159025B028E109014910295409640979099119C819D089F0AA10AA304C07FC27FC41FCAAFCCBFCE6F05
:40034000E609EE06580459045C015F01D401D804D904DB0CDC01DD10DF0100240404082609800DA4100811101422151028812A082C022E023002348138A23A223B403D04CB
:400380003E283F405A807940822086808C088E8090A2910493109404978098819C269D049E80A002A110A280C026C2EFC4E2CA9BCC91CE7DD608DE08E410EE0658045904A4
:4003C0005F018001850188018D018E019001930195019901A101A201A401AB01AC01B201B501D804D904DC10DF01001002400430064208010A200C0210021104130214917A
:40040000150417021F08270828912C042F4030023422350438A23A423C043E80811087088F0890A291049220931098019B02A002A280A810A980AA60B001C0DAC21CC4BD65
:40044000CAABCCE1CE5DE210E602EC20580459045F01810189018C018D0190019301940198019901A201A301A401AC01AD01B001B701D804D904DF01018006A00801091486
:400480000C010F08114413021402170A1A802280280129012C012F8030123501370A38A23D043EA0841285048C438D548E908F8C93109B02AF10B702C031C25EC4BDCA99A5
:4004C000CCC5CE7DE040E450E8101A02220130013602580459045C115F01D804D904DC11DF010040013102040402052008020A960E501080120813201402150117201842DB
:4005000019421A4229022A042D012E102F4032593402354036083B803D103E4089028A0192B49380960299209D02A080A208AB20AD40B004B208C05BC23FC4DACAA3CCDFB5
:40054000CE38E602E810EA01EC20EE08580459045C115F0187029F01AA01B201B302B701D602D731D804D904DB0FDC11DD10DF01013A052208040A8A0B040E100F04100897
:400580001484158019081A30214022482804290A2D082F403205334034803522360839943E085B206140680C69446BC070807204780184018D088E489208938095449696E6
:4005C000988099209D0A9F80A484A608B010B120B348C05EC26FC4D2CAC7CCFBCE4ED604D808DE01E202E401E640EE010202041008100C04120116041A081D0128012F032A
:400600003003320C33013410370238203E1056085804590D5B045C095D905F0188019603B001B202D203D302D80CD904DB04DC11DD10DF0100100480050806400704090833
:400640000D080E800F04171018901A801D081E801F2126802710282029022A202F0131243203368038045C805F106640670469406B0579407D208080810887018D868E4550
:400680008F109202931094049548968097809C209D04A130A410A580A620AA40B006B120B201C0F2C274C440CA17CC17CE02D630D830DE28E050E644E820EC8004010A015F
:4006C000100114011801200126013601580459045C115F018701910195019901A101A501A901B501D401D804D904DB0DDC11DF01000C02080404070408250C600D200E2262
:400700000F081060150817011A02262028602C442F1430013120320A3301361E370439083B283F085E407D20860188248A108B109108924094049C20A130A207A620AB04A3
:40074000AF20B010B104B220B340C066C2EEC43CCAE3CCE7CE46D610DE20E0A0E810ECA01102131016883120348039043E88432053085E01C4F0CC30CEE0D010D420D680BD
:400780005E02950496019C80A101A520A728AF10D680E81086018F40950496019C80A101A310A520A601A728AB10E210EE80820186809B409C80A101A310A520A601A7080D
:4007C000AB20AD04E690EE602201C8021B04260486019202C608C80144019720A204AB04AF10D004208024085B4081018D209B40A101A280A310A520A708A880C860D480ED
:40080000E480EE80528063208708A280A310A708B040B404D420D840E6401F103402820497209C01A204C601CC01B001B402E808EC04000308010A030C030E011003110188
:400840001A021C031D01000F10AA000000000000001010000000000000020200000000000022220000000000001111000001000000020000000300000000000000000000C6
:400880000000000000000000000000000000000000000000000000000000000000000000000000000000000000000000000000000000000000000000000000000000000038
:4008C00000000000000000000000000000000000000000000000000000000000000000000000000000000000000000000000000000000000000000000000000000000000F8
:4009000000000000000000000000000000000000000000000000000000000000000000000000000000000000000000000000000000000000000000000000000000000000B7
:400940000000000000000000000000000000000000000000000000000000000000000000000000000000000000000000000000000000000000000000000000000000000077
:0200000490006A
:0400000000004005B7
:0200000490105A
:04000000BC90ACAF55
:0200000490303A
:0200000014B03A
:0200000490402A
:4000000000000000000000000000000000000000000000000000000000000000000000000000000000000000000000000000000000000000000000000000000000000000C0
:400040000000000000000000000000000000000000000000000000000000000000000000000000000000000000000000000000000000000000000000000000000000000080
:400080000000000000000000000000000000000000000000000000000000000000000000000000000000000000000000000000000000000000000000000000000000000040
:4000C0000000000000000000000000000000000000000000000000000000000000000000000000000000000000000000000000000000000000000000000000000000000000
:0200000490501A
:0C00000000012E12306900012E1B451972
:00000001FF